{
	"data": {
		"bytecode": {
			"linkReferences": {},
			"object": "6080604052348015600e575f80fd5b506103f58061001c5f395ff3fe608060405234801561000f575f80fd5b5060043610610029575f3560e01c80637cc1f8671461002d575b5f80fd5b61003561004d565b604051610044939291906101b5565b60405180910390f35b60608060606040518060400160405260058152806020017f48656c6c6f00000000000000000000000000000000000000000000000000000081525060405180602001610098906100db565b6020820181038252601f19601f82011660405250604051806020016100bc906100e7565b6020820181038252601f19601f82011660405250925092509250909192565b60ed8061020083390190565b60d3806102ed83390190565b5f81519050919050565b5f82825260208201905092915050565b8281835e5f83830152505050565b5f601f19601f8301169050919050565b5f610135826100f3565b61013f81856100fd565b935061014f81856020860161010d565b6101588161011b565b840191505092915050565b5f81519050919050565b5f82825260208201905092915050565b5f61018782610163565b610191818561016d565b93506101a181856020860161010d565b6101aa8161011b565b840191505092915050565b5f6060820190508181035f8301526101cd818661012b565b905081810360208301526101e1818561017d565b905081810360408301526101f5818461017d565b905094935050505056fe6080604052348015600e575f80fd5b5060d380601a5f395ff3fe6080604052348015600e575f80fd5b50600436106026575f3560e01c806338cc483114602a575b5f80fd5b60306044565b604051603b91906086565b60405180910390f35b5f30905090565b5f73ffffffffffffffffffffffffffffffffffffffff82169050919050565b5f607282604b565b9050919050565b608081606a565b82525050565b5f60208201905060975f8301846079565b9291505056fea2646970667358221220dbe9e9ca74be7d1e63ae5d42ed25bf2423a93dc47fa605bf0a4852f865cdba9864736f6c634300081a00336080604052348015600e575f80fd5b50600436106026575f3560e01c806338cc483114602a575b5f80fd5b60306044565b604051603b91906086565b60405180910390f35b5f30905090565b5f73ffffffffffffffffffffffffffffffffffffffff82169050919050565b5f607282604b565b9050919050565b608081606a565b82525050565b5f60208201905060975f8301846079565b9291505056fea2646970667358221220dbe9e9ca74be7d1e63ae5d42ed25bf2423a93dc47fa605bf0a4852f865cdba9864736f6c634300081a0033a2646970667358221220c5863756c45f94bb1476c808a460b23fcaaad428b75c2d09e8d3b4a64631639664736f6c634300081a0033",
			"opcodes": "PUSH1 0x80 PUSH1 0x40 MSTORE CALLVALUE DUP1 ISZERO PUSH1 0xE JUMPI PUSH0 DUP1 REVERT JUMPDEST POP PUSH2 0x3F5 DUP1 PUSH2 0x1C PUSH0 CODECOPY PUSH0 RETURN INVALID PUSH1 0x80 PUSH1 0x40 MSTORE CALLVALUE DUP1 ISZERO PUSH2 0xF JUMPI PUSH0 DUP1 REVERT JUMPDEST POP PUSH1 0x4 CALLDATASIZE LT PUSH2 0x29 JUMPI PUSH0 CALLDATALOAD PUSH1 0xE0 SHR DUP1 PUSH4 0x7CC1F867 EQ PUSH2 0x2D JUMPI JUMPDEST PUSH0 DUP1 REVERT JUMPDEST PUSH2 0x35 PUSH2 0x4D JUMP JUMPDEST PUSH1 0x40 MLOAD PUSH2 0x44 SWAP4 SWAP3 SWAP2 SWAP1 PUSH2 0x1B5 JUMP JUMPDEST PUSH1 0x40 MLOAD DUP1 SWAP2 SUB SWAP1 RETURN JUMPDEST PUSH1 0x60 DUP1 PUSH1 0x60 PUSH1 0x40 MLOAD DUP1 PUSH1 0x40 ADD PUSH1 0x40 MSTORE PUSH1 0x5 DUP2 MSTORE DUP1 PUSH1 0x20 ADD PUSH32 0x48656C6C6F000000000000000000000000000000000000000000000000000000 DUP2 MSTORE POP PUSH1 0x40 MLOAD DUP1 PUSH1 0x20 ADD PUSH2 0x98 SWAP1 PUSH2 0xDB JUMP JUMPDEST PUSH1 0x20 DUP3 ADD DUP2 SUB DUP3 MSTORE PUSH1 0x1F NOT PUSH1 0x1F DUP3 ADD AND PUSH1 0x40 MSTORE POP PUSH1 0x40 MLOAD DUP1 PUSH1 0x20 ADD PUSH2 0xBC SWAP1 PUSH2 0xE7 JUMP JUMPDEST PUSH1 0x20 DUP3 ADD DUP2 SUB DUP3 MSTORE PUSH1 0x1F NOT PUSH1 0x1F DUP3 ADD AND PUSH1 0x40 MSTORE POP SWAP3 POP SWAP3 POP SWAP3 POP SWAP1 SWAP2 SWAP3 JUMP JUMPDEST PUSH1 0xED DUP1 PUSH2 0x200 DUP4 CODECOPY ADD SWAP1 JUMP JUMPDEST PUSH1 0xD3 DUP1 PUSH2 0x2ED DUP4 CODECOPY ADD SWAP1 JUMP JUMPDEST PUSH0 DUP2 MLOAD SWAP1 POP SWAP2 SWAP1 POP JUMP JUMPDEST PUSH0 DUP3 DUP3 MSTORE PUSH1 0x20 DUP3 ADD SWAP1 POP SWAP3 SWAP2 POP POP JUMP JUMPDEST DUP3 DUP2 DUP4 MCOPY PUSH0 DUP4 DUP4 ADD MSTORE POP POP POP JUMP JUMPDEST PUSH0 PUSH1 0x1F NOT PUSH1 0x1F DUP4 ADD AND SWAP1 POP SWAP2 SWAP1 POP JUMP JUMPDEST PUSH0 PUSH2 0x135 DUP3 PUSH2 0xF3 JUMP JUMPDEST PUSH2 0x13F DUP2 DUP6 PUSH2 0xFD JUMP JUMPDEST SWAP4 POP PUSH2 0x14F DUP2 DUP6 PUSH1 0x20 DUP7 ADD PUSH2 0x10D JUMP JUMPDEST PUSH2 0x158 DUP2 PUSH2 0x11B JUMP JUMPDEST DUP5 ADD SWAP2 POP POP SWAP3 SWAP2 POP POP JUMP JUMPDEST PUSH0 DUP2 MLOAD SWAP1 POP SWAP2 SWAP1 POP JUMP JUMPDEST PUSH0 DUP3 DUP3 MSTORE PUSH1 0x20 DUP3 ADD SWAP1 POP SWAP3 SWAP2 POP POP JUMP JUMPDEST PUSH0 PUSH2 0x187 DUP3 PUSH2 0x163 JUMP JUMPDEST PUSH2 0x191 DUP2 DUP6 PUSH2 0x16D JUMP JUMPDEST SWAP4 POP PUSH2 0x1A1 DUP2 DUP6 PUSH1 0x20 DUP7 ADD PUSH2 0x10D JUMP JUMPDEST PUSH2 0x1AA DUP2 PUSH2 0x11B JUMP JUMPDEST DUP5 ADD SWAP2 POP POP SWAP3 SWAP2 POP POP JUMP JUMPDEST PUSH0 PUSH1 0x60 DUP3 ADD SWAP1 POP DUP2 DUP2 SUB PUSH0 DUP4 ADD MSTORE PUSH2 0x1CD DUP2 DUP7 PUSH2 0x12B JUMP JUMPDEST SWAP1 POP DUP2 DUP2 SUB PUSH1 0x20 DUP4 ADD MSTORE PUSH2 0x1E1 DUP2 DUP6 PUSH2 0x17D JUMP JUMPDEST SWAP1 POP DUP2 DUP2 SUB PUSH1 0x40 DUP4 ADD MSTORE PUSH2 0x1F5 DUP2 DUP5 PUSH2 0x17D JUMP JUMPDEST SWAP1 POP SWAP5 SWAP4 POP POP POP POP JUMP INVALID PUSH1 0x80 PUSH1 0x40 MSTORE CALLVALUE DUP1 ISZERO PUSH1 0xE JUMPI PUSH0 DUP1 REVERT JUMPDEST POP PUSH1 0xD3 DUP1 PUSH1 0x1A PUSH0 CODECOPY PUSH0 RETURN INVALID PUSH1 0x80 PUSH1 0x40 MSTORE CALLVALUE DUP1 ISZERO PUSH1 0xE JUMPI PUSH0 DUP1 REVERT JUMPDEST POP PUSH1 0x4 CALLDATASIZE LT PUSH1 0x26 JUMPI PUSH0 CALLDATALOAD PUSH1 0xE0 SHR DUP1 PUSH4 0x38CC4831 EQ PUSH1 0x2A JUMPI JUMPDEST PUSH0 DUP1 REVERT JUMPDEST PUSH1 0x30 PUSH1 0x44 JUMP JUMPDEST PUSH1 0x40 MLOAD PUSH1 0x3B SWAP2 SWAP1 PUSH1 0x86 JUMP JUMPDEST PUSH1 0x40 MLOAD DUP1 SWAP2 SUB SWAP1 RETURN JUMPDEST PUSH0 ADDRESS SWAP1 POP SWAP1 JUMP JUMPDEST PUSH0 PUSH20 0xFFFFFFFFFFFFFFFFFFFFFFFFFFFFFFFFFFFFFFFF DUP3 AND SWAP1 POP SWAP2 SWAP1 POP JUMP JUMPDEST PUSH0 PUSH1 0x72 DUP3 PUSH1 0x4B JUMP JUMPDEST SWAP1 POP SWAP2 SWAP1 POP JUMP JUMPDEST PUSH1 0x80 DUP2 PUSH1 0x6A JUMP JUMPDEST DUP3 MSTORE POP POP JUMP JUMPDEST PUSH0 PUSH1 0x20 DUP3 ADD SWAP1 POP PUSH1 0x97 PUSH0 DUP4 ADD DUP5 PUSH1 0x79 JUMP JUMPDEST SWAP3 SWAP2 POP POP JUMP INVALID LOG2 PUSH5 0x6970667358 0x22 SLT KECCAK256 0xDB 0xE9 0xE9 0xCA PUSH21 0xBE7D1E63AE5D42ED25BF2423A93DC47FA605BF0A48 MSTORE 0xF8 PUSH6 0xCDBA9864736F PUSH13 0x634300081A0033608060405234 DUP1 ISZERO PUSH1 0xE JUMPI PUSH0 DUP1 REVERT JUMPDEST POP PUSH1 0x4 CALLDATASIZE LT PUSH1 0x26 JUMPI PUSH0 CALLDATALOAD PUSH1 0xE0 SHR DUP1 PUSH4 0x38CC4831 EQ PUSH1 0x2A JUMPI JUMPDEST PUSH0 DUP1 REVERT JUMPDEST PUSH1 0x30 PUSH1 0x44 JUMP JUMPDEST PUSH1 0x40 MLOAD PUSH1 0x3B SWAP2 SWAP1 PUSH1 0x86 JUMP JUMPDEST PUSH1 0x40 MLOAD DUP1 SWAP2 SUB SWAP1 RETURN JUMPDEST PUSH0 ADDRESS SWAP1 POP SWAP1 JUMP JUMPDEST PUSH0 PUSH20 0xFFFFFFFFFFFFFFFFFFFFFFFFFFFFFFFFFFFFFFFF DUP3 AND SWAP1 POP SWAP2 SWAP1 POP JUMP JUMPDEST PUSH0 PUSH1 0x72 DUP3 PUSH1 0x4B JUMP JUMPDEST SWAP1 POP SWAP2 SWAP1 POP JUMP JUMPDEST PUSH1 0x80 DUP2 PUSH1 0x6A JUMP JUMPDEST DUP3 MSTORE POP POP JUMP JUMPDEST PUSH0 PUSH1 0x20 DUP3 ADD SWAP1 POP PUSH1 0x97 PUSH0 DUP4 ADD DUP5 PUSH1 0x79 JUMP JUMPDEST SWAP3 SWAP2 POP POP JUMP INVALID LOG2 PUSH5 0x6970667358 0x22 SLT KECCAK256 0xDB 0xE9 0xE9 0xCA PUSH21 0xBE7D1E63AE5D42ED25BF2423A93DC47FA605BF0A48 MSTORE 0xF8 PUSH6 0xCDBA9864736F PUSH13 0x634300081A0033A26469706673 PC 0x22 SLT KECCAK256 0xC5 DUP7 CALLDATACOPY JUMP 0xC4 PUSH0 SWAP5 0xBB EQ PUSH23 0xC808A460B23FCAAAD428B75C2D09E8D3B4A64631639664 PUSH20 0x6F6C634300081A00330000000000000000000000 "
		},
		"gasEstimates": {
			"creation": {
				"codeDepositCost": "202600",
				"executionCost": "243",
				"totalCost": "202843"
			},
			"external": {
				"getContractInfo()": "infinite"
			}
		},
		"methodIdentifiers": {
			"getContractInfo()": "7cc1f867"
		}
	},
	"abi": [
		{
			"inputs": [],
			"name": "getContractInfo",
			"outputs": [
				{
					"internalType": "string",
					"name": "",
					"type": "string"
				},
				{
					"internalType": "bytes",
					"name": "",
					"type": "bytes"
				},
				{
					"internalType": "bytes",
					"name": "",
					"type": "bytes"
				}
			],
			"stateMutability": "pure",
			"type": "function"
		}
	]
}