{
	"Level0/Task02了解如何使用Solidity/数据类型/mapping.sol": {
		"UserBalanceAndLeaderboard": {
			"abi": [
				{
					"anonymous": false,
					"inputs": [
						{
							"indexed": true,
							"internalType": "address",
							"name": "user",
							"type": "address"
						},
						{
							"indexed": false,
							"internalType": "uint256",
							"name": "amount",
							"type": "uint256"
						}
					],
					"name": "Deposited",
					"type": "event"
				},
				{
					"anonymous": false,
					"inputs": [
						{
							"indexed": true,
							"internalType": "address",
							"name": "user",
							"type": "address"
						},
						{
							"indexed": false,
							"internalType": "uint256",
							"name": "newScore",
							"type": "uint256"
						}
					],
					"name": "ScoreUpdated",
					"type": "event"
				},
				{
					"inputs": [
						{
							"internalType": "address",
							"name": "",
							"type": "address"
						}
					],
					"name": "balances",
					"outputs": [
						{
							"internalType": "uint256",
							"name": "",
							"type": "uint256"
						}
					],
					"stateMutability": "view",
					"type": "function"
				},
				{
					"inputs": [],
					"name": "deposit",
					"outputs": [],
					"stateMutability": "payable",
					"type": "function"
				},
				{
					"inputs": [
						{
							"internalType": "address",
							"name": "user",
							"type": "address"
						}
					],
					"name": "getBalance",
					"outputs": [
						{
							"internalType": "uint256",
							"name": "",
							"type": "uint256"
						}
					],
					"stateMutability": "view",
					"type": "function"
				},
				{
					"inputs": [],
					"name": "getLeaderboard",
					"outputs": [
						{
							"internalType": "address[]",
							"name": "",
							"type": "address[]"
						},
						{
							"internalType": "uint256[]",
							"name": "",
							"type": "uint256[]"
						}
					],
					"stateMutability": "view",
					"type": "function"
				},
				{
					"inputs": [
						{
							"internalType": "address",
							"name": "user",
							"type": "address"
						}
					],
					"name": "getTransactionHistory",
					"outputs": [
						{
							"internalType": "uint256[]",
							"name": "",
							"type": "uint256[]"
						}
					],
					"stateMutability": "view",
					"type": "function"
				},
				{
					"inputs": [
						{
							"internalType": "address",
							"name": "",
							"type": "address"
						}
					],
					"name": "scores",
					"outputs": [
						{
							"internalType": "uint256",
							"name": "",
							"type": "uint256"
						}
					],
					"stateMutability": "view",
					"type": "function"
				},
				{
					"inputs": [
						{
							"internalType": "address",
							"name": "",
							"type": "address"
						},
						{
							"internalType": "uint256",
							"name": "",
							"type": "uint256"
						}
					],
					"name": "transactions",
					"outputs": [
						{
							"internalType": "uint256",
							"name": "",
							"type": "uint256"
						}
					],
					"stateMutability": "view",
					"type": "function"
				},
				{
					"inputs": [
						{
							"internalType": "address",
							"name": "user",
							"type": "address"
						},
						{
							"internalType": "uint256",
							"name": "points",
							"type": "uint256"
						}
					],
					"name": "updateScore",
					"outputs": [],
					"stateMutability": "nonpayable",
					"type": "function"
				},
				{
					"inputs": [
						{
							"internalType": "uint256",
							"name": "",
							"type": "uint256"
						}
					],
					"name": "users",
					"outputs": [
						{
							"internalType": "address",
							"name": "",
							"type": "address"
						}
					],
					"stateMutability": "view",
					"type": "function"
				}
			],
			"devdoc": {
				"kind": "dev",
				"methods": {},
				"version": 1
			},
			"evm": {
				"assembly": "    /* \"Level0/Task02\\xe4\\xba\\x86\\xe8\\xa7\\xa3\\xe5\\xa6\\x82\\xe4\\xbd\\x95\\xe4\\xbd\\xbf\\xe7\\x94\\xa8Solidity/\\xe6\\x95\\xb0\\xe6\\x8d\\xae\\xe7\\xb1\\xbb\\xe5\\x9e\\x8b/mapping.sol\":60:2363  contract UserBalanceAndLeaderboard {... */\n  mstore(0x40, 0x80)\n  callvalue\n  dup1\n  iszero\n  tag_1\n  jumpi\n  0x00\n  dup1\n  revert\ntag_1:\n  pop\n  dataSize(sub_0)\n  dup1\n  dataOffset(sub_0)\n  0x00\n  codecopy\n  0x00\n  return\nstop\n\nsub_0: assembly {\n        /* \"Level0/Task02\\xe4\\xba\\x86\\xe8\\xa7\\xa3\\xe5\\xa6\\x82\\xe4\\xbd\\x95\\xe4\\xbd\\xbf\\xe7\\x94\\xa8Solidity/\\xe6\\x95\\xb0\\xe6\\x8d\\xae\\xe7\\xb1\\xbb\\xe5\\x9e\\x8b/mapping.sol\":60:2363  contract UserBalanceAndLeaderboard {... */\n      mstore(0x40, 0x80)\n      jumpi(tag_1, lt(calldatasize, 0x04))\n      shr(0xe0, calldataload(0x00))\n      dup1\n      0x6d763a6e\n      gt\n      tag_11\n      jumpi\n      dup1\n      0x6d763a6e\n      eq\n      tag_6\n      jumpi\n      dup1\n      0x76dd110f\n      eq\n      tag_7\n      jumpi\n      dup1\n      0xd0e30db0\n      eq\n      tag_8\n      jumpi\n      dup1\n      0xd20cf0e8\n      eq\n      tag_9\n      jumpi\n      dup1\n      0xf8b2cb4f\n      eq\n      tag_10\n      jumpi\n      jump(tag_1)\n    tag_11:\n      dup1\n      0x14538128\n      eq\n      tag_2\n      jumpi\n      dup1\n      0x27e235e3\n      eq\n      tag_3\n      jumpi\n      dup1\n      0x365b98b2\n      eq\n      tag_4\n      jumpi\n      dup1\n      0x65d97724\n      eq\n      tag_5\n      jumpi\n    tag_1:\n      0x00\n      dup1\n      revert\n        /* \"Level0/Task02\\xe4\\xba\\x86\\xe8\\xa7\\xa3\\xe5\\xa6\\x82\\xe4\\xbd\\x95\\xe4\\xbd\\xbf\\xe7\\x94\\xa8Solidity/\\xe6\\x95\\xb0\\xe6\\x8d\\xae\\xe7\\xb1\\xbb\\xe5\\x9e\\x8b/mapping.sol\":209:255  mapping(address => uint[]) public transactions */\n    tag_2:\n      callvalue\n      dup1\n      iszero\n      tag_12\n      jumpi\n      0x00\n      dup1\n      revert\n    tag_12:\n      pop\n      tag_13\n      0x04\n      dup1\n      calldatasize\n      sub\n      dup2\n      add\n      swap1\n      tag_14\n      swap2\n      swap1\n      tag_15\n      jump\t// in\n    tag_14:\n      tag_16\n      jump\t// in\n    tag_13:\n      mload(0x40)\n      tag_17\n      swap2\n      swap1\n      tag_18\n      jump\t// in\n    tag_17:\n      mload(0x40)\n      dup1\n      swap2\n      sub\n      swap1\n      return\n        /* \"Level0/Task02\\xe4\\xba\\x86\\xe8\\xa7\\xa3\\xe5\\xa6\\x82\\xe4\\xbd\\x95\\xe4\\xbd\\xbf\\xe7\\x94\\xa8Solidity/\\xe6\\x95\\xb0\\xe6\\x8d\\xae\\xe7\\xb1\\xbb\\xe5\\x9e\\x8b/mapping.sol\":129:169  mapping(address => uint) public balances */\n    tag_3:\n      callvalue\n      dup1\n      iszero\n      tag_19\n      jumpi\n      0x00\n      dup1\n      revert\n    tag_19:\n      pop\n      tag_20\n      0x04\n      dup1\n      calldatasize\n      sub\n      dup2\n      add\n      swap1\n      tag_21\n      swap2\n      swap1\n      tag_22\n      jump\t// in\n    tag_21:\n      tag_23\n      jump\t// in\n    tag_20:\n      mload(0x40)\n      tag_24\n      swap2\n      swap1\n      tag_18\n      jump\t// in\n    tag_24:\n      mload(0x40)\n      dup1\n      swap2\n      sub\n      swap1\n      return\n        /* \"Level0/Task02\\xe4\\xba\\x86\\xe8\\xa7\\xa3\\xe5\\xa6\\x82\\xe4\\xbd\\x95\\xe4\\xbd\\xbf\\xe7\\x94\\xa8Solidity/\\xe6\\x95\\xb0\\xe6\\x8d\\xae\\xe7\\xb1\\xbb\\xe5\\x9e\\x8b/mapping.sol\":367:389  address[] public users */\n    tag_4:\n      callvalue\n      dup1\n      iszero\n      tag_25\n      jumpi\n      0x00\n      dup1\n      revert\n    tag_25:\n      pop\n      tag_26\n      0x04\n      dup1\n      calldatasize\n      sub\n      dup2\n      add\n      swap1\n      tag_27\n      swap2\n      swap1\n      tag_28\n      jump\t// in\n    tag_27:\n      tag_29\n      jump\t// in\n    tag_26:\n      mload(0x40)\n      tag_30\n      swap2\n      swap1\n      tag_31\n      jump\t// in\n    tag_30:\n      mload(0x40)\n      dup1\n      swap2\n      sub\n      swap1\n      return\n        /* \"Level0/Task02\\xe4\\xba\\x86\\xe8\\xa7\\xa3\\xe5\\xa6\\x82\\xe4\\xbd\\x95\\xe4\\xbd\\xbf\\xe7\\x94\\xa8Solidity/\\xe6\\x95\\xb0\\xe6\\x8d\\xae\\xe7\\xb1\\xbb\\xe5\\x9e\\x8b/mapping.sol\":1190:1410  function updateScore(address user, uint points) public {... */\n    tag_5:\n      callvalue\n      dup1\n      iszero\n      tag_32\n      jumpi\n      0x00\n      dup1\n      revert\n    tag_32:\n      pop\n      tag_33\n      0x04\n      dup1\n      calldatasize\n      sub\n      dup2\n      add\n      swap1\n      tag_34\n      swap2\n      swap1\n      tag_15\n      jump\t// in\n    tag_34:\n      tag_35\n      jump\t// in\n    tag_33:\n      stop\n        /* \"Level0/Task02\\xe4\\xba\\x86\\xe8\\xa7\\xa3\\xe5\\xa6\\x82\\xe4\\xbd\\x95\\xe4\\xbd\\xbf\\xe7\\x94\\xa8Solidity/\\xe6\\x95\\xb0\\xe6\\x8d\\xae\\xe7\\xb1\\xbb\\xe5\\x9e\\x8b/mapping.sol\":1487:2360  function getLeaderboard() public view returns (address[] memory, uint[] memory) {... */\n    tag_6:\n      callvalue\n      dup1\n      iszero\n      tag_36\n      jumpi\n      0x00\n      dup1\n      revert\n    tag_36:\n      pop\n      tag_37\n      tag_38\n      jump\t// in\n    tag_37:\n      mload(0x40)\n      tag_39\n      swap3\n      swap2\n      swap1\n      tag_40\n      jump\t// in\n    tag_39:\n      mload(0x40)\n      dup1\n      swap2\n      sub\n      swap1\n      return\n        /* \"Level0/Task02\\xe4\\xba\\x86\\xe8\\xa7\\xa3\\xe5\\xa6\\x82\\xe4\\xbd\\x95\\xe4\\xbd\\xbf\\xe7\\x94\\xa8Solidity/\\xe6\\x95\\xb0\\xe6\\x8d\\xae\\xe7\\xb1\\xbb\\xe5\\x9e\\x8b/mapping.sol\":283:321  mapping(address => uint) public scores */\n    tag_7:\n      callvalue\n      dup1\n      iszero\n      tag_41\n      jumpi\n      0x00\n      dup1\n      revert\n    tag_41:\n      pop\n      tag_42\n      0x04\n      dup1\n      calldatasize\n      sub\n      dup2\n      add\n      swap1\n      tag_43\n      swap2\n      swap1\n      tag_22\n      jump\t// in\n    tag_43:\n      tag_44\n      jump\t// in\n    tag_42:\n      mload(0x40)\n      tag_45\n      swap2\n      swap1\n      tag_18\n      jump\t// in\n    tag_45:\n      mload(0x40)\n      dup1\n      swap2\n      sub\n      swap1\n      return\n        /* \"Level0/Task02\\xe4\\xba\\x86\\xe8\\xa7\\xa3\\xe5\\xa6\\x82\\xe4\\xbd\\x95\\xe4\\xbd\\xbf\\xe7\\x94\\xa8Solidity/\\xe6\\x95\\xb0\\xe6\\x8d\\xae\\xe7\\xb1\\xbb\\xe5\\x9e\\x8b/mapping.sol\":573:832  function deposit() public payable {... */\n    tag_8:\n      tag_46\n      tag_47\n      jump\t// in\n    tag_46:\n      stop\n        /* \"Level0/Task02\\xe4\\xba\\x86\\xe8\\xa7\\xa3\\xe5\\xa6\\x82\\xe4\\xbd\\x95\\xe4\\xbd\\xbf\\xe7\\x94\\xa8Solidity/\\xe6\\x95\\xb0\\xe6\\x8d\\xae\\xe7\\xb1\\xbb\\xe5\\x9e\\x8b/mapping.sol\":1009:1134  function getTransactionHistory(address user) public view returns (uint[] memory) {... */\n    tag_9:\n      callvalue\n      dup1\n      iszero\n      tag_48\n      jumpi\n      0x00\n      dup1\n      revert\n    tag_48:\n      pop\n      tag_49\n      0x04\n      dup1\n      calldatasize\n      sub\n      dup2\n      add\n      swap1\n      tag_50\n      swap2\n      swap1\n      tag_22\n      jump\t// in\n    tag_50:\n      tag_51\n      jump\t// in\n    tag_49:\n      mload(0x40)\n      tag_52\n      swap2\n      swap1\n      tag_53\n      jump\t// in\n    tag_52:\n      mload(0x40)\n      dup1\n      swap2\n      sub\n      swap1\n      return\n        /* \"Level0/Task02\\xe4\\xba\\x86\\xe8\\xa7\\xa3\\xe5\\xa6\\x82\\xe4\\xbd\\x95\\xe4\\xbd\\xbf\\xe7\\x94\\xa8Solidity/\\xe6\\x95\\xb0\\xe6\\x8d\\xae\\xe7\\xb1\\xbb\\xe5\\x9e\\x8b/mapping.sol\":867:968  function getBalance(address user) public view returns (uint) {... */\n    tag_10:\n      callvalue\n      dup1\n      iszero\n      tag_54\n      jumpi\n      0x00\n      dup1\n      revert\n    tag_54:\n      pop\n      tag_55\n      0x04\n      dup1\n      calldatasize\n      sub\n      dup2\n      add\n      swap1\n      tag_56\n      swap2\n      swap1\n      tag_22\n      jump\t// in\n    tag_56:\n      tag_57\n      jump\t// in\n    tag_55:\n      mload(0x40)\n      tag_58\n      swap2\n      swap1\n      tag_18\n      jump\t// in\n    tag_58:\n      mload(0x40)\n      dup1\n      swap2\n      sub\n      swap1\n      return\n        /* \"Level0/Task02\\xe4\\xba\\x86\\xe8\\xa7\\xa3\\xe5\\xa6\\x82\\xe4\\xbd\\x95\\xe4\\xbd\\xbf\\xe7\\x94\\xa8Solidity/\\xe6\\x95\\xb0\\xe6\\x8d\\xae\\xe7\\xb1\\xbb\\xe5\\x9e\\x8b/mapping.sol\":209:255  mapping(address => uint[]) public transactions */\n    tag_16:\n      mstore(0x20, 0x01)\n      dup2\n      0x00\n      mstore\n      keccak256(0x00, 0x40)\n      dup2\n      dup2\n      sload\n      dup2\n      lt\n      tag_59\n      jumpi\n      0x00\n      dup1\n      revert\n    tag_59:\n      swap1\n      0x00\n      mstore\n      keccak256(0x00, 0x20)\n      add\n      0x00\n      swap2\n      pop\n      swap2\n      pop\n      pop\n      sload\n      dup2\n      jump\t// out\n        /* \"Level0/Task02\\xe4\\xba\\x86\\xe8\\xa7\\xa3\\xe5\\xa6\\x82\\xe4\\xbd\\x95\\xe4\\xbd\\xbf\\xe7\\x94\\xa8Solidity/\\xe6\\x95\\xb0\\xe6\\x8d\\xae\\xe7\\xb1\\xbb\\xe5\\x9e\\x8b/mapping.sol\":129:169  mapping(address => uint) public balances */\n    tag_23:\n      mstore(0x20, 0x00)\n      dup1\n      0x00\n      mstore\n      keccak256(0x00, 0x40)\n      0x00\n      swap2\n      pop\n      swap1\n      pop\n      sload\n      dup2\n      jump\t// out\n        /* \"Level0/Task02\\xe4\\xba\\x86\\xe8\\xa7\\xa3\\xe5\\xa6\\x82\\xe4\\xbd\\x95\\xe4\\xbd\\xbf\\xe7\\x94\\xa8Solidity/\\xe6\\x95\\xb0\\xe6\\x8d\\xae\\xe7\\xb1\\xbb\\xe5\\x9e\\x8b/mapping.sol\":367:389  address[] public users */\n    tag_29:\n      0x03\n      dup2\n      dup2\n      sload\n      dup2\n      lt\n      tag_61\n      jumpi\n      0x00\n      dup1\n      revert\n    tag_61:\n      swap1\n      0x00\n      mstore\n      keccak256(0x00, 0x20)\n      add\n      0x00\n      swap2\n      pop\n      sload\n      swap1\n      0x0100\n      exp\n      swap1\n      div\n      0xffffffffffffffffffffffffffffffffffffffff\n      and\n      dup2\n      jump\t// out\n        /* \"Level0/Task02\\xe4\\xba\\x86\\xe8\\xa7\\xa3\\xe5\\xa6\\x82\\xe4\\xbd\\x95\\xe4\\xbd\\xbf\\xe7\\x94\\xa8Solidity/\\xe6\\x95\\xb0\\xe6\\x8d\\xae\\xe7\\xb1\\xbb\\xe5\\x9e\\x8b/mapping.sol\":1190:1410  function updateScore(address user, uint points) public {... */\n    tag_35:\n        /* \"Level0/Task02\\xe4\\xba\\x86\\xe8\\xa7\\xa3\\xe5\\xa6\\x82\\xe4\\xbd\\x95\\xe4\\xbd\\xbf\\xe7\\x94\\xa8Solidity/\\xe6\\x95\\xb0\\xe6\\x8d\\xae\\xe7\\xb1\\xbb\\xe5\\x9e\\x8b/mapping.sol\":1276:1277  0 */\n      0x00\n        /* \"Level0/Task02\\xe4\\xba\\x86\\xe8\\xa7\\xa3\\xe5\\xa6\\x82\\xe4\\xbd\\x95\\xe4\\xbd\\xbf\\xe7\\x94\\xa8Solidity/\\xe6\\x95\\xb0\\xe6\\x8d\\xae\\xe7\\xb1\\xbb\\xe5\\x9e\\x8b/mapping.sol\":1260:1266  scores */\n      0x02\n        /* \"Level0/Task02\\xe4\\xba\\x86\\xe8\\xa7\\xa3\\xe5\\xa6\\x82\\xe4\\xbd\\x95\\xe4\\xbd\\xbf\\xe7\\x94\\xa8Solidity/\\xe6\\x95\\xb0\\xe6\\x8d\\xae\\xe7\\xb1\\xbb\\xe5\\x9e\\x8b/mapping.sol\":1260:1272  scores[user] */\n      0x00\n        /* \"Level0/Task02\\xe4\\xba\\x86\\xe8\\xa7\\xa3\\xe5\\xa6\\x82\\xe4\\xbd\\x95\\xe4\\xbd\\xbf\\xe7\\x94\\xa8Solidity/\\xe6\\x95\\xb0\\xe6\\x8d\\xae\\xe7\\xb1\\xbb\\xe5\\x9e\\x8b/mapping.sol\":1267:1271  user */\n      dup5\n        /* \"Level0/Task02\\xe4\\xba\\x86\\xe8\\xa7\\xa3\\xe5\\xa6\\x82\\xe4\\xbd\\x95\\xe4\\xbd\\xbf\\xe7\\x94\\xa8Solidity/\\xe6\\x95\\xb0\\xe6\\x8d\\xae\\xe7\\xb1\\xbb\\xe5\\x9e\\x8b/mapping.sol\":1260:1272  scores[user] */\n      0xffffffffffffffffffffffffffffffffffffffff\n      and\n      0xffffffffffffffffffffffffffffffffffffffff\n      and\n      dup2\n      mstore\n      0x20\n      add\n      swap1\n      dup2\n      mstore\n      0x20\n      add\n      0x00\n      keccak256\n      sload\n        /* \"Level0/Task02\\xe4\\xba\\x86\\xe8\\xa7\\xa3\\xe5\\xa6\\x82\\xe4\\xbd\\x95\\xe4\\xbd\\xbf\\xe7\\x94\\xa8Solidity/\\xe6\\x95\\xb0\\xe6\\x8d\\xae\\xe7\\xb1\\xbb\\xe5\\x9e\\x8b/mapping.sol\":1260:1277  scores[user] == 0 */\n      sub\n        /* \"Level0/Task02\\xe4\\xba\\x86\\xe8\\xa7\\xa3\\xe5\\xa6\\x82\\xe4\\xbd\\x95\\xe4\\xbd\\xbf\\xe7\\x94\\xa8Solidity/\\xe6\\x95\\xb0\\xe6\\x8d\\xae\\xe7\\xb1\\xbb\\xe5\\x9e\\x8b/mapping.sol\":1256:1322  if (scores[user] == 0) {... */\n      tag_64\n      jumpi\n        /* \"Level0/Task02\\xe4\\xba\\x86\\xe8\\xa7\\xa3\\xe5\\xa6\\x82\\xe4\\xbd\\x95\\xe4\\xbd\\xbf\\xe7\\x94\\xa8Solidity/\\xe6\\x95\\xb0\\xe6\\x8d\\xae\\xe7\\xb1\\xbb\\xe5\\x9e\\x8b/mapping.sol\":1294:1299  users */\n      0x03\n        /* \"Level0/Task02\\xe4\\xba\\x86\\xe8\\xa7\\xa3\\xe5\\xa6\\x82\\xe4\\xbd\\x95\\xe4\\xbd\\xbf\\xe7\\x94\\xa8Solidity/\\xe6\\x95\\xb0\\xe6\\x8d\\xae\\xe7\\xb1\\xbb\\xe5\\x9e\\x8b/mapping.sol\":1305:1309  user */\n      dup3\n        /* \"Level0/Task02\\xe4\\xba\\x86\\xe8\\xa7\\xa3\\xe5\\xa6\\x82\\xe4\\xbd\\x95\\xe4\\xbd\\xbf\\xe7\\x94\\xa8Solidity/\\xe6\\x95\\xb0\\xe6\\x8d\\xae\\xe7\\xb1\\xbb\\xe5\\x9e\\x8b/mapping.sol\":1294:1310  users.push(user) */\n      swap1\n      dup1\n      0x01\n      dup2\n      sload\n      add\n      dup1\n      dup3\n      sstore\n      dup1\n      swap2\n      pop\n      pop\n      0x01\n      swap1\n      sub\n      swap1\n      0x00\n      mstore\n      keccak256(0x00, 0x20)\n      add\n      0x00\n      swap1\n      swap2\n      swap1\n      swap2\n      swap1\n      swap2\n      0x0100\n      exp\n      dup2\n      sload\n      dup2\n      0xffffffffffffffffffffffffffffffffffffffff\n      mul\n      not\n      and\n      swap1\n      dup4\n      0xffffffffffffffffffffffffffffffffffffffff\n      and\n      mul\n      or\n      swap1\n      sstore\n      pop\n        /* \"Level0/Task02\\xe4\\xba\\x86\\xe8\\xa7\\xa3\\xe5\\xa6\\x82\\xe4\\xbd\\x95\\xe4\\xbd\\xbf\\xe7\\x94\\xa8Solidity/\\xe6\\x95\\xb0\\xe6\\x8d\\xae\\xe7\\xb1\\xbb\\xe5\\x9e\\x8b/mapping.sol\":1256:1322  if (scores[user] == 0) {... */\n    tag_64:\n        /* \"Level0/Task02\\xe4\\xba\\x86\\xe8\\xa7\\xa3\\xe5\\xa6\\x82\\xe4\\xbd\\x95\\xe4\\xbd\\xbf\\xe7\\x94\\xa8Solidity/\\xe6\\x95\\xb0\\xe6\\x8d\\xae\\xe7\\xb1\\xbb\\xe5\\x9e\\x8b/mapping.sol\":1348:1354  points */\n      dup1\n        /* \"Level0/Task02\\xe4\\xba\\x86\\xe8\\xa7\\xa3\\xe5\\xa6\\x82\\xe4\\xbd\\x95\\xe4\\xbd\\xbf\\xe7\\x94\\xa8Solidity/\\xe6\\x95\\xb0\\xe6\\x8d\\xae\\xe7\\xb1\\xbb\\xe5\\x9e\\x8b/mapping.sol\":1332:1338  scores */\n      0x02\n        /* \"Level0/Task02\\xe4\\xba\\x86\\xe8\\xa7\\xa3\\xe5\\xa6\\x82\\xe4\\xbd\\x95\\xe4\\xbd\\xbf\\xe7\\x94\\xa8Solidity/\\xe6\\x95\\xb0\\xe6\\x8d\\xae\\xe7\\xb1\\xbb\\xe5\\x9e\\x8b/mapping.sol\":1332:1344  scores[user] */\n      0x00\n        /* \"Level0/Task02\\xe4\\xba\\x86\\xe8\\xa7\\xa3\\xe5\\xa6\\x82\\xe4\\xbd\\x95\\xe4\\xbd\\xbf\\xe7\\x94\\xa8Solidity/\\xe6\\x95\\xb0\\xe6\\x8d\\xae\\xe7\\xb1\\xbb\\xe5\\x9e\\x8b/mapping.sol\":1339:1343  user */\n      dup5\n        /* \"Level0/Task02\\xe4\\xba\\x86\\xe8\\xa7\\xa3\\xe5\\xa6\\x82\\xe4\\xbd\\x95\\xe4\\xbd\\xbf\\xe7\\x94\\xa8Solidity/\\xe6\\x95\\xb0\\xe6\\x8d\\xae\\xe7\\xb1\\xbb\\xe5\\x9e\\x8b/mapping.sol\":1332:1344  scores[user] */\n      0xffffffffffffffffffffffffffffffffffffffff\n      and\n      0xffffffffffffffffffffffffffffffffffffffff\n      and\n      dup2\n      mstore\n      0x20\n      add\n      swap1\n      dup2\n      mstore\n      0x20\n      add\n      0x00\n      keccak256\n      0x00\n        /* \"Level0/Task02\\xe4\\xba\\x86\\xe8\\xa7\\xa3\\xe5\\xa6\\x82\\xe4\\xbd\\x95\\xe4\\xbd\\xbf\\xe7\\x94\\xa8Solidity/\\xe6\\x95\\xb0\\xe6\\x8d\\xae\\xe7\\xb1\\xbb\\xe5\\x9e\\x8b/mapping.sol\":1332:1354  scores[user] += points */\n      dup3\n      dup3\n      sload\n      tag_66\n      swap2\n      swap1\n      tag_67\n      jump\t// in\n    tag_66:\n      swap3\n      pop\n      pop\n      dup2\n      swap1\n      sstore\n      pop\n        /* \"Level0/Task02\\xe4\\xba\\x86\\xe8\\xa7\\xa3\\xe5\\xa6\\x82\\xe4\\xbd\\x95\\xe4\\xbd\\xbf\\xe7\\x94\\xa8Solidity/\\xe6\\x95\\xb0\\xe6\\x8d\\xae\\xe7\\xb1\\xbb\\xe5\\x9e\\x8b/mapping.sol\":1383:1387  user */\n      dup2\n        /* \"Level0/Task02\\xe4\\xba\\x86\\xe8\\xa7\\xa3\\xe5\\xa6\\x82\\xe4\\xbd\\x95\\xe4\\xbd\\xbf\\xe7\\x94\\xa8Solidity/\\xe6\\x95\\xb0\\xe6\\x8d\\xae\\xe7\\xb1\\xbb\\xe5\\x9e\\x8b/mapping.sol\":1370:1402  ScoreUpdated(user, scores[user]) */\n      0xffffffffffffffffffffffffffffffffffffffff\n      and\n      0x66ead48cfe0e1d1aa8bad492e906c348dfcfeecbf3b7b2cdf9b1f3cfa42a2945\n        /* \"Level0/Task02\\xe4\\xba\\x86\\xe8\\xa7\\xa3\\xe5\\xa6\\x82\\xe4\\xbd\\x95\\xe4\\xbd\\xbf\\xe7\\x94\\xa8Solidity/\\xe6\\x95\\xb0\\xe6\\x8d\\xae\\xe7\\xb1\\xbb\\xe5\\x9e\\x8b/mapping.sol\":1389:1395  scores */\n      0x02\n        /* \"Level0/Task02\\xe4\\xba\\x86\\xe8\\xa7\\xa3\\xe5\\xa6\\x82\\xe4\\xbd\\x95\\xe4\\xbd\\xbf\\xe7\\x94\\xa8Solidity/\\xe6\\x95\\xb0\\xe6\\x8d\\xae\\xe7\\xb1\\xbb\\xe5\\x9e\\x8b/mapping.sol\":1389:1401  scores[user] */\n      0x00\n        /* \"Level0/Task02\\xe4\\xba\\x86\\xe8\\xa7\\xa3\\xe5\\xa6\\x82\\xe4\\xbd\\x95\\xe4\\xbd\\xbf\\xe7\\x94\\xa8Solidity/\\xe6\\x95\\xb0\\xe6\\x8d\\xae\\xe7\\xb1\\xbb\\xe5\\x9e\\x8b/mapping.sol\":1396:1400  user */\n      dup6\n        /* \"Level0/Task02\\xe4\\xba\\x86\\xe8\\xa7\\xa3\\xe5\\xa6\\x82\\xe4\\xbd\\x95\\xe4\\xbd\\xbf\\xe7\\x94\\xa8Solidity/\\xe6\\x95\\xb0\\xe6\\x8d\\xae\\xe7\\xb1\\xbb\\xe5\\x9e\\x8b/mapping.sol\":1389:1401  scores[user] */\n      0xffffffffffffffffffffffffffffffffffffffff\n      and\n      0xffffffffffffffffffffffffffffffffffffffff\n      and\n      dup2\n      mstore\n      0x20\n      add\n      swap1\n      dup2\n      mstore\n      0x20\n      add\n      0x00\n      keccak256\n      sload\n        /* \"Level0/Task02\\xe4\\xba\\x86\\xe8\\xa7\\xa3\\xe5\\xa6\\x82\\xe4\\xbd\\x95\\xe4\\xbd\\xbf\\xe7\\x94\\xa8Solidity/\\xe6\\x95\\xb0\\xe6\\x8d\\xae\\xe7\\xb1\\xbb\\xe5\\x9e\\x8b/mapping.sol\":1370:1402  ScoreUpdated(user, scores[user]) */\n      mload(0x40)\n      tag_68\n      swap2\n      swap1\n      tag_18\n      jump\t// in\n    tag_68:\n      mload(0x40)\n      dup1\n      swap2\n      sub\n      swap1\n      log2\n        /* \"Level0/Task02\\xe4\\xba\\x86\\xe8\\xa7\\xa3\\xe5\\xa6\\x82\\xe4\\xbd\\x95\\xe4\\xbd\\xbf\\xe7\\x94\\xa8Solidity/\\xe6\\x95\\xb0\\xe6\\x8d\\xae\\xe7\\xb1\\xbb\\xe5\\x9e\\x8b/mapping.sol\":1190:1410  function updateScore(address user, uint points) public {... */\n      pop\n      pop\n      jump\t// out\n        /* \"Level0/Task02\\xe4\\xba\\x86\\xe8\\xa7\\xa3\\xe5\\xa6\\x82\\xe4\\xbd\\x95\\xe4\\xbd\\xbf\\xe7\\x94\\xa8Solidity/\\xe6\\x95\\xb0\\xe6\\x8d\\xae\\xe7\\xb1\\xbb\\xe5\\x9e\\x8b/mapping.sol\":1487:2360  function getLeaderboard() public view returns (address[] memory, uint[] memory) {... */\n    tag_38:\n        /* \"Level0/Task02\\xe4\\xba\\x86\\xe8\\xa7\\xa3\\xe5\\xa6\\x82\\xe4\\xbd\\x95\\xe4\\xbd\\xbf\\xe7\\x94\\xa8Solidity/\\xe6\\x95\\xb0\\xe6\\x8d\\xae\\xe7\\xb1\\xbb\\xe5\\x9e\\x8b/mapping.sol\":1534:1550  address[] memory */\n      0x60\n        /* \"Level0/Task02\\xe4\\xba\\x86\\xe8\\xa7\\xa3\\xe5\\xa6\\x82\\xe4\\xbd\\x95\\xe4\\xbd\\xbf\\xe7\\x94\\xa8Solidity/\\xe6\\x95\\xb0\\xe6\\x8d\\xae\\xe7\\xb1\\xbb\\xe5\\x9e\\x8b/mapping.sol\":1552:1565  uint[] memory */\n      dup1\n        /* \"Level0/Task02\\xe4\\xba\\x86\\xe8\\xa7\\xa3\\xe5\\xa6\\x82\\xe4\\xbd\\x95\\xe4\\xbd\\xbf\\xe7\\x94\\xa8Solidity/\\xe6\\x95\\xb0\\xe6\\x8d\\xae\\xe7\\xb1\\xbb\\xe5\\x9e\\x8b/mapping.sol\":1578:1589  uint length */\n      0x00\n        /* \"Level0/Task02\\xe4\\xba\\x86\\xe8\\xa7\\xa3\\xe5\\xa6\\x82\\xe4\\xbd\\x95\\xe4\\xbd\\xbf\\xe7\\x94\\xa8Solidity/\\xe6\\x95\\xb0\\xe6\\x8d\\xae\\xe7\\xb1\\xbb\\xe5\\x9e\\x8b/mapping.sol\":1592:1597  users */\n      0x03\n        /* \"Level0/Task02\\xe4\\xba\\x86\\xe8\\xa7\\xa3\\xe5\\xa6\\x82\\xe4\\xbd\\x95\\xe4\\xbd\\xbf\\xe7\\x94\\xa8Solidity/\\xe6\\x95\\xb0\\xe6\\x8d\\xae\\xe7\\xb1\\xbb\\xe5\\x9e\\x8b/mapping.sol\":1592:1604  users.length */\n      dup1\n      sload\n      swap1\n      pop\n        /* \"Level0/Task02\\xe4\\xba\\x86\\xe8\\xa7\\xa3\\xe5\\xa6\\x82\\xe4\\xbd\\x95\\xe4\\xbd\\xbf\\xe7\\x94\\xa8Solidity/\\xe6\\x95\\xb0\\xe6\\x8d\\xae\\xe7\\xb1\\xbb\\xe5\\x9e\\x8b/mapping.sol\":1578:1604  uint length = users.length */\n      swap1\n      pop\n        /* \"Level0/Task02\\xe4\\xba\\x86\\xe8\\xa7\\xa3\\xe5\\xa6\\x82\\xe4\\xbd\\x95\\xe4\\xbd\\xbf\\xe7\\x94\\xa8Solidity/\\xe6\\x95\\xb0\\xe6\\x8d\\xae\\xe7\\xb1\\xbb\\xe5\\x9e\\x8b/mapping.sol\":1615:1641  uint[] memory sortedScores */\n      0x00\n        /* \"Level0/Task02\\xe4\\xba\\x86\\xe8\\xa7\\xa3\\xe5\\xa6\\x82\\xe4\\xbd\\x95\\xe4\\xbd\\xbf\\xe7\\x94\\xa8Solidity/\\xe6\\x95\\xb0\\xe6\\x8d\\xae\\xe7\\xb1\\xbb\\xe5\\x9e\\x8b/mapping.sol\":1655:1661  length */\n      dup2\n        /* \"Level0/Task02\\xe4\\xba\\x86\\xe8\\xa7\\xa3\\xe5\\xa6\\x82\\xe4\\xbd\\x95\\xe4\\xbd\\xbf\\xe7\\x94\\xa8Solidity/\\xe6\\x95\\xb0\\xe6\\x8d\\xae\\xe7\\xb1\\xbb\\xe5\\x9e\\x8b/mapping.sol\":1644:1662  new uint[](length) */\n      0xffffffffffffffff\n      dup2\n      gt\n      iszero\n      tag_70\n      jumpi\n      tag_71\n      tag_72\n      jump\t// in\n    tag_71:\n    tag_70:\n      mload(0x40)\n      swap1\n      dup1\n      dup3\n      mstore\n      dup1\n      0x20\n      mul\n      0x20\n      add\n      dup3\n      add\n      0x40\n      mstore\n      dup1\n      iszero\n      tag_73\n      jumpi\n      dup2\n      0x20\n      add\n      0x20\n      dup3\n      mul\n      dup1\n      calldatasize\n      dup4\n      calldatacopy\n      dup1\n      dup3\n      add\n      swap2\n      pop\n      pop\n      swap1\n      pop\n    tag_73:\n      pop\n        /* \"Level0/Task02\\xe4\\xba\\x86\\xe8\\xa7\\xa3\\xe5\\xa6\\x82\\xe4\\xbd\\x95\\xe4\\xbd\\xbf\\xe7\\x94\\xa8Solidity/\\xe6\\x95\\xb0\\xe6\\x8d\\xae\\xe7\\xb1\\xbb\\xe5\\x9e\\x8b/mapping.sol\":1615:1662  uint[] memory sortedScores = new uint[](length) */\n      swap1\n      pop\n        /* \"Level0/Task02\\xe4\\xba\\x86\\xe8\\xa7\\xa3\\xe5\\xa6\\x82\\xe4\\xbd\\x95\\xe4\\xbd\\xbf\\xe7\\x94\\xa8Solidity/\\xe6\\x95\\xb0\\xe6\\x8d\\xae\\xe7\\xb1\\xbb\\xe5\\x9e\\x8b/mapping.sol\":1673:1701  address[] memory sortedUsers */\n      0x00\n        /* \"Level0/Task02\\xe4\\xba\\x86\\xe8\\xa7\\xa3\\xe5\\xa6\\x82\\xe4\\xbd\\x95\\xe4\\xbd\\xbf\\xe7\\x94\\xa8Solidity/\\xe6\\x95\\xb0\\xe6\\x8d\\xae\\xe7\\xb1\\xbb\\xe5\\x9e\\x8b/mapping.sol\":1718:1724  length */\n      dup3\n        /* \"Level0/Task02\\xe4\\xba\\x86\\xe8\\xa7\\xa3\\xe5\\xa6\\x82\\xe4\\xbd\\x95\\xe4\\xbd\\xbf\\xe7\\x94\\xa8Solidity/\\xe6\\x95\\xb0\\xe6\\x8d\\xae\\xe7\\xb1\\xbb\\xe5\\x9e\\x8b/mapping.sol\":1704:1725  new address[](length) */\n      0xffffffffffffffff\n      dup2\n      gt\n      iszero\n      tag_74\n      jumpi\n      tag_75\n      tag_72\n      jump\t// in\n    tag_75:\n    tag_74:\n      mload(0x40)\n      swap1\n      dup1\n      dup3\n      mstore\n      dup1\n      0x20\n      mul\n      0x20\n      add\n      dup3\n      add\n      0x40\n      mstore\n      dup1\n      iszero\n      tag_76\n      jumpi\n      dup2\n      0x20\n      add\n      0x20\n      dup3\n      mul\n      dup1\n      calldatasize\n      dup4\n      calldatacopy\n      dup1\n      dup3\n      add\n      swap2\n      pop\n      pop\n      swap1\n      pop\n    tag_76:\n      pop\n        /* \"Level0/Task02\\xe4\\xba\\x86\\xe8\\xa7\\xa3\\xe5\\xa6\\x82\\xe4\\xbd\\x95\\xe4\\xbd\\xbf\\xe7\\x94\\xa8Solidity/\\xe6\\x95\\xb0\\xe6\\x8d\\xae\\xe7\\xb1\\xbb\\xe5\\x9e\\x8b/mapping.sol\":1673:1725  address[] memory sortedUsers = new address[](length) */\n      swap1\n      pop\n        /* \"Level0/Task02\\xe4\\xba\\x86\\xe8\\xa7\\xa3\\xe5\\xa6\\x82\\xe4\\xbd\\x95\\xe4\\xbd\\xbf\\xe7\\x94\\xa8Solidity/\\xe6\\x95\\xb0\\xe6\\x8d\\xae\\xe7\\xb1\\xbb\\xe5\\x9e\\x8b/mapping.sol\":1743:1749  uint i */\n      0x00\n        /* \"Level0/Task02\\xe4\\xba\\x86\\xe8\\xa7\\xa3\\xe5\\xa6\\x82\\xe4\\xbd\\x95\\xe4\\xbd\\xbf\\xe7\\x94\\xa8Solidity/\\xe6\\x95\\xb0\\xe6\\x8d\\xae\\xe7\\xb1\\xbb\\xe5\\x9e\\x8b/mapping.sol\":1738:1873  for (uint i = 0; i < length; i++) {... */\n    tag_77:\n        /* \"Level0/Task02\\xe4\\xba\\x86\\xe8\\xa7\\xa3\\xe5\\xa6\\x82\\xe4\\xbd\\x95\\xe4\\xbd\\xbf\\xe7\\x94\\xa8Solidity/\\xe6\\x95\\xb0\\xe6\\x8d\\xae\\xe7\\xb1\\xbb\\xe5\\x9e\\x8b/mapping.sol\":1759:1765  length */\n      dup4\n        /* \"Level0/Task02\\xe4\\xba\\x86\\xe8\\xa7\\xa3\\xe5\\xa6\\x82\\xe4\\xbd\\x95\\xe4\\xbd\\xbf\\xe7\\x94\\xa8Solidity/\\xe6\\x95\\xb0\\xe6\\x8d\\xae\\xe7\\xb1\\xbb\\xe5\\x9e\\x8b/mapping.sol\":1755:1756  i */\n      dup2\n        /* \"Level0/Task02\\xe4\\xba\\x86\\xe8\\xa7\\xa3\\xe5\\xa6\\x82\\xe4\\xbd\\x95\\xe4\\xbd\\xbf\\xe7\\x94\\xa8Solidity/\\xe6\\x95\\xb0\\xe6\\x8d\\xae\\xe7\\xb1\\xbb\\xe5\\x9e\\x8b/mapping.sol\":1755:1765  i < length */\n      lt\n        /* \"Level0/Task02\\xe4\\xba\\x86\\xe8\\xa7\\xa3\\xe5\\xa6\\x82\\xe4\\xbd\\x95\\xe4\\xbd\\xbf\\xe7\\x94\\xa8Solidity/\\xe6\\x95\\xb0\\xe6\\x8d\\xae\\xe7\\xb1\\xbb\\xe5\\x9e\\x8b/mapping.sol\":1738:1873  for (uint i = 0; i < length; i++) {... */\n      iszero\n      tag_78\n      jumpi\n        /* \"Level0/Task02\\xe4\\xba\\x86\\xe8\\xa7\\xa3\\xe5\\xa6\\x82\\xe4\\xbd\\x95\\xe4\\xbd\\xbf\\xe7\\x94\\xa8Solidity/\\xe6\\x95\\xb0\\xe6\\x8d\\xae\\xe7\\xb1\\xbb\\xe5\\x9e\\x8b/mapping.sol\":1805:1811  scores */\n      0x02\n        /* \"Level0/Task02\\xe4\\xba\\x86\\xe8\\xa7\\xa3\\xe5\\xa6\\x82\\xe4\\xbd\\x95\\xe4\\xbd\\xbf\\xe7\\x94\\xa8Solidity/\\xe6\\x95\\xb0\\xe6\\x8d\\xae\\xe7\\xb1\\xbb\\xe5\\x9e\\x8b/mapping.sol\":1805:1821  scores[users[i]] */\n      0x00\n        /* \"Level0/Task02\\xe4\\xba\\x86\\xe8\\xa7\\xa3\\xe5\\xa6\\x82\\xe4\\xbd\\x95\\xe4\\xbd\\xbf\\xe7\\x94\\xa8Solidity/\\xe6\\x95\\xb0\\xe6\\x8d\\xae\\xe7\\xb1\\xbb\\xe5\\x9e\\x8b/mapping.sol\":1812:1817  users */\n      0x03\n        /* \"Level0/Task02\\xe4\\xba\\x86\\xe8\\xa7\\xa3\\xe5\\xa6\\x82\\xe4\\xbd\\x95\\xe4\\xbd\\xbf\\xe7\\x94\\xa8Solidity/\\xe6\\x95\\xb0\\xe6\\x8d\\xae\\xe7\\xb1\\xbb\\xe5\\x9e\\x8b/mapping.sol\":1818:1819  i */\n      dup4\n        /* \"Level0/Task02\\xe4\\xba\\x86\\xe8\\xa7\\xa3\\xe5\\xa6\\x82\\xe4\\xbd\\x95\\xe4\\xbd\\xbf\\xe7\\x94\\xa8Solidity/\\xe6\\x95\\xb0\\xe6\\x8d\\xae\\xe7\\xb1\\xbb\\xe5\\x9e\\x8b/mapping.sol\":1812:1820  users[i] */\n      dup2\n      sload\n      dup2\n      lt\n      tag_80\n      jumpi\n      tag_81\n      tag_82\n      jump\t// in\n    tag_81:\n    tag_80:\n      swap1\n      0x00\n      mstore\n      keccak256(0x00, 0x20)\n      add\n      0x00\n      swap1\n      sload\n      swap1\n      0x0100\n      exp\n      swap1\n      div\n      0xffffffffffffffffffffffffffffffffffffffff\n      and\n        /* \"Level0/Task02\\xe4\\xba\\x86\\xe8\\xa7\\xa3\\xe5\\xa6\\x82\\xe4\\xbd\\x95\\xe4\\xbd\\xbf\\xe7\\x94\\xa8Solidity/\\xe6\\x95\\xb0\\xe6\\x8d\\xae\\xe7\\xb1\\xbb\\xe5\\x9e\\x8b/mapping.sol\":1805:1821  scores[users[i]] */\n      0xffffffffffffffffffffffffffffffffffffffff\n      and\n      0xffffffffffffffffffffffffffffffffffffffff\n      and\n      dup2\n      mstore\n      0x20\n      add\n      swap1\n      dup2\n      mstore\n      0x20\n      add\n      0x00\n      keccak256\n      sload\n        /* \"Level0/Task02\\xe4\\xba\\x86\\xe8\\xa7\\xa3\\xe5\\xa6\\x82\\xe4\\xbd\\x95\\xe4\\xbd\\xbf\\xe7\\x94\\xa8Solidity/\\xe6\\x95\\xb0\\xe6\\x8d\\xae\\xe7\\xb1\\xbb\\xe5\\x9e\\x8b/mapping.sol\":1787:1799  sortedScores */\n      dup4\n        /* \"Level0/Task02\\xe4\\xba\\x86\\xe8\\xa7\\xa3\\xe5\\xa6\\x82\\xe4\\xbd\\x95\\xe4\\xbd\\xbf\\xe7\\x94\\xa8Solidity/\\xe6\\x95\\xb0\\xe6\\x8d\\xae\\xe7\\xb1\\xbb\\xe5\\x9e\\x8b/mapping.sol\":1800:1801  i */\n      dup3\n        /* \"Level0/Task02\\xe4\\xba\\x86\\xe8\\xa7\\xa3\\xe5\\xa6\\x82\\xe4\\xbd\\x95\\xe4\\xbd\\xbf\\xe7\\x94\\xa8Solidity/\\xe6\\x95\\xb0\\xe6\\x8d\\xae\\xe7\\xb1\\xbb\\xe5\\x9e\\x8b/mapping.sol\":1787:1802  sortedScores[i] */\n      dup2\n      mload\n      dup2\n      lt\n      tag_84\n      jumpi\n      tag_85\n      tag_82\n      jump\t// in\n    tag_85:\n    tag_84:\n      0x20\n      mul\n      0x20\n      add\n      add\n        /* \"Level0/Task02\\xe4\\xba\\x86\\xe8\\xa7\\xa3\\xe5\\xa6\\x82\\xe4\\xbd\\x95\\xe4\\xbd\\xbf\\xe7\\x94\\xa8Solidity/\\xe6\\x95\\xb0\\xe6\\x8d\\xae\\xe7\\xb1\\xbb\\xe5\\x9e\\x8b/mapping.sol\":1787:1821  sortedScores[i] = scores[users[i]] */\n      dup2\n      dup2\n      mstore\n      pop\n      pop\n        /* \"Level0/Task02\\xe4\\xba\\x86\\xe8\\xa7\\xa3\\xe5\\xa6\\x82\\xe4\\xbd\\x95\\xe4\\xbd\\xbf\\xe7\\x94\\xa8Solidity/\\xe6\\x95\\xb0\\xe6\\x8d\\xae\\xe7\\xb1\\xbb\\xe5\\x9e\\x8b/mapping.sol\":1853:1858  users */\n      0x03\n        /* \"Level0/Task02\\xe4\\xba\\x86\\xe8\\xa7\\xa3\\xe5\\xa6\\x82\\xe4\\xbd\\x95\\xe4\\xbd\\xbf\\xe7\\x94\\xa8Solidity/\\xe6\\x95\\xb0\\xe6\\x8d\\xae\\xe7\\xb1\\xbb\\xe5\\x9e\\x8b/mapping.sol\":1859:1860  i */\n      dup2\n        /* \"Level0/Task02\\xe4\\xba\\x86\\xe8\\xa7\\xa3\\xe5\\xa6\\x82\\xe4\\xbd\\x95\\xe4\\xbd\\xbf\\xe7\\x94\\xa8Solidity/\\xe6\\x95\\xb0\\xe6\\x8d\\xae\\xe7\\xb1\\xbb\\xe5\\x9e\\x8b/mapping.sol\":1853:1861  users[i] */\n      dup2\n      sload\n      dup2\n      lt\n      tag_86\n      jumpi\n      tag_87\n      tag_82\n      jump\t// in\n    tag_87:\n    tag_86:\n      swap1\n      0x00\n      mstore\n      keccak256(0x00, 0x20)\n      add\n      0x00\n      swap1\n      sload\n      swap1\n      0x0100\n      exp\n      swap1\n      div\n      0xffffffffffffffffffffffffffffffffffffffff\n      and\n        /* \"Level0/Task02\\xe4\\xba\\x86\\xe8\\xa7\\xa3\\xe5\\xa6\\x82\\xe4\\xbd\\x95\\xe4\\xbd\\xbf\\xe7\\x94\\xa8Solidity/\\xe6\\x95\\xb0\\xe6\\x8d\\xae\\xe7\\xb1\\xbb\\xe5\\x9e\\x8b/mapping.sol\":1836:1847  sortedUsers */\n      dup3\n        /* \"Level0/Task02\\xe4\\xba\\x86\\xe8\\xa7\\xa3\\xe5\\xa6\\x82\\xe4\\xbd\\x95\\xe4\\xbd\\xbf\\xe7\\x94\\xa8Solidity/\\xe6\\x95\\xb0\\xe6\\x8d\\xae\\xe7\\xb1\\xbb\\xe5\\x9e\\x8b/mapping.sol\":1848:1849  i */\n      dup3\n        /* \"Level0/Task02\\xe4\\xba\\x86\\xe8\\xa7\\xa3\\xe5\\xa6\\x82\\xe4\\xbd\\x95\\xe4\\xbd\\xbf\\xe7\\x94\\xa8Solidity/\\xe6\\x95\\xb0\\xe6\\x8d\\xae\\xe7\\xb1\\xbb\\xe5\\x9e\\x8b/mapping.sol\":1836:1850  sortedUsers[i] */\n      dup2\n      mload\n      dup2\n      lt\n      tag_89\n      jumpi\n      tag_90\n      tag_82\n      jump\t// in\n    tag_90:\n    tag_89:\n      0x20\n      mul\n      0x20\n      add\n      add\n        /* \"Level0/Task02\\xe4\\xba\\x86\\xe8\\xa7\\xa3\\xe5\\xa6\\x82\\xe4\\xbd\\x95\\xe4\\xbd\\xbf\\xe7\\x94\\xa8Solidity/\\xe6\\x95\\xb0\\xe6\\x8d\\xae\\xe7\\xb1\\xbb\\xe5\\x9e\\x8b/mapping.sol\":1836:1861  sortedUsers[i] = users[i] */\n      swap1\n      0xffffffffffffffffffffffffffffffffffffffff\n      and\n      swap1\n      dup2\n      0xffffffffffffffffffffffffffffffffffffffff\n      and\n      dup2\n      mstore\n      pop\n      pop\n        /* \"Level0/Task02\\xe4\\xba\\x86\\xe8\\xa7\\xa3\\xe5\\xa6\\x82\\xe4\\xbd\\x95\\xe4\\xbd\\xbf\\xe7\\x94\\xa8Solidity/\\xe6\\x95\\xb0\\xe6\\x8d\\xae\\xe7\\xb1\\xbb\\xe5\\x9e\\x8b/mapping.sol\":1767:1770  i++ */\n      dup1\n      dup1\n      0x01\n      add\n      swap2\n      pop\n      pop\n        /* \"Level0/Task02\\xe4\\xba\\x86\\xe8\\xa7\\xa3\\xe5\\xa6\\x82\\xe4\\xbd\\x95\\xe4\\xbd\\xbf\\xe7\\x94\\xa8Solidity/\\xe6\\x95\\xb0\\xe6\\x8d\\xae\\xe7\\xb1\\xbb\\xe5\\x9e\\x8b/mapping.sol\":1738:1873  for (uint i = 0; i < length; i++) {... */\n      jump(tag_77)\n    tag_78:\n      pop\n        /* \"Level0/Task02\\xe4\\xba\\x86\\xe8\\xa7\\xa3\\xe5\\xa6\\x82\\xe4\\xbd\\x95\\xe4\\xbd\\xbf\\xe7\\x94\\xa8Solidity/\\xe6\\x95\\xb0\\xe6\\x8d\\xae\\xe7\\xb1\\xbb\\xe5\\x9e\\x8b/mapping.sol\":1936:1942  uint i */\n      0x00\n        /* \"Level0/Task02\\xe4\\xba\\x86\\xe8\\xa7\\xa3\\xe5\\xa6\\x82\\xe4\\xbd\\x95\\xe4\\xbd\\xbf\\xe7\\x94\\xa8Solidity/\\xe6\\x95\\xb0\\xe6\\x8d\\xae\\xe7\\xb1\\xbb\\xe5\\x9e\\x8b/mapping.sol\":1931:2306  for (uint i = 0; i < length; i++) {... */\n    tag_91:\n        /* \"Level0/Task02\\xe4\\xba\\x86\\xe8\\xa7\\xa3\\xe5\\xa6\\x82\\xe4\\xbd\\x95\\xe4\\xbd\\xbf\\xe7\\x94\\xa8Solidity/\\xe6\\x95\\xb0\\xe6\\x8d\\xae\\xe7\\xb1\\xbb\\xe5\\x9e\\x8b/mapping.sol\":1952:1958  length */\n      dup4\n        /* \"Level0/Task02\\xe4\\xba\\x86\\xe8\\xa7\\xa3\\xe5\\xa6\\x82\\xe4\\xbd\\x95\\xe4\\xbd\\xbf\\xe7\\x94\\xa8Solidity/\\xe6\\x95\\xb0\\xe6\\x8d\\xae\\xe7\\xb1\\xbb\\xe5\\x9e\\x8b/mapping.sol\":1948:1949  i */\n      dup2\n        /* \"Level0/Task02\\xe4\\xba\\x86\\xe8\\xa7\\xa3\\xe5\\xa6\\x82\\xe4\\xbd\\x95\\xe4\\xbd\\xbf\\xe7\\x94\\xa8Solidity/\\xe6\\x95\\xb0\\xe6\\x8d\\xae\\xe7\\xb1\\xbb\\xe5\\x9e\\x8b/mapping.sol\":1948:1958  i < length */\n      lt\n        /* \"Level0/Task02\\xe4\\xba\\x86\\xe8\\xa7\\xa3\\xe5\\xa6\\x82\\xe4\\xbd\\x95\\xe4\\xbd\\xbf\\xe7\\x94\\xa8Solidity/\\xe6\\x95\\xb0\\xe6\\x8d\\xae\\xe7\\xb1\\xbb\\xe5\\x9e\\x8b/mapping.sol\":1931:2306  for (uint i = 0; i < length; i++) {... */\n      iszero\n      tag_92\n      jumpi\n        /* \"Level0/Task02\\xe4\\xba\\x86\\xe8\\xa7\\xa3\\xe5\\xa6\\x82\\xe4\\xbd\\x95\\xe4\\xbd\\xbf\\xe7\\x94\\xa8Solidity/\\xe6\\x95\\xb0\\xe6\\x8d\\xae\\xe7\\xb1\\xbb\\xe5\\x9e\\x8b/mapping.sol\":1985:1991  uint j */\n      0x00\n        /* \"Level0/Task02\\xe4\\xba\\x86\\xe8\\xa7\\xa3\\xe5\\xa6\\x82\\xe4\\xbd\\x95\\xe4\\xbd\\xbf\\xe7\\x94\\xa8Solidity/\\xe6\\x95\\xb0\\xe6\\x8d\\xae\\xe7\\xb1\\xbb\\xe5\\x9e\\x8b/mapping.sol\":1998:1999  1 */\n      0x01\n        /* \"Level0/Task02\\xe4\\xba\\x86\\xe8\\xa7\\xa3\\xe5\\xa6\\x82\\xe4\\xbd\\x95\\xe4\\xbd\\xbf\\xe7\\x94\\xa8Solidity/\\xe6\\x95\\xb0\\xe6\\x8d\\xae\\xe7\\xb1\\xbb\\xe5\\x9e\\x8b/mapping.sol\":1994:1995  i */\n      dup3\n        /* \"Level0/Task02\\xe4\\xba\\x86\\xe8\\xa7\\xa3\\xe5\\xa6\\x82\\xe4\\xbd\\x95\\xe4\\xbd\\xbf\\xe7\\x94\\xa8Solidity/\\xe6\\x95\\xb0\\xe6\\x8d\\xae\\xe7\\xb1\\xbb\\xe5\\x9e\\x8b/mapping.sol\":1994:1999  i + 1 */\n      tag_97\n      swap2\n      swap1\n      tag_67\n      jump\t// in\n    tag_97:\n        /* \"Level0/Task02\\xe4\\xba\\x86\\xe8\\xa7\\xa3\\xe5\\xa6\\x82\\xe4\\xbd\\x95\\xe4\\xbd\\xbf\\xe7\\x94\\xa8Solidity/\\xe6\\x95\\xb0\\xe6\\x8d\\xae\\xe7\\xb1\\xbb\\xe5\\x9e\\x8b/mapping.sol\":1985:1999  uint j = i + 1 */\n      swap1\n      pop\n        /* \"Level0/Task02\\xe4\\xba\\x86\\xe8\\xa7\\xa3\\xe5\\xa6\\x82\\xe4\\xbd\\x95\\xe4\\xbd\\xbf\\xe7\\x94\\xa8Solidity/\\xe6\\x95\\xb0\\xe6\\x8d\\xae\\xe7\\xb1\\xbb\\xe5\\x9e\\x8b/mapping.sol\":1980:2295  for (uint j = i + 1; j < length; j++) {... */\n    tag_94:\n        /* \"Level0/Task02\\xe4\\xba\\x86\\xe8\\xa7\\xa3\\xe5\\xa6\\x82\\xe4\\xbd\\x95\\xe4\\xbd\\xbf\\xe7\\x94\\xa8Solidity/\\xe6\\x95\\xb0\\xe6\\x8d\\xae\\xe7\\xb1\\xbb\\xe5\\x9e\\x8b/mapping.sol\":2005:2011  length */\n      dup5\n        /* \"Level0/Task02\\xe4\\xba\\x86\\xe8\\xa7\\xa3\\xe5\\xa6\\x82\\xe4\\xbd\\x95\\xe4\\xbd\\xbf\\xe7\\x94\\xa8Solidity/\\xe6\\x95\\xb0\\xe6\\x8d\\xae\\xe7\\xb1\\xbb\\xe5\\x9e\\x8b/mapping.sol\":2001:2002  j */\n      dup2\n        /* \"Level0/Task02\\xe4\\xba\\x86\\xe8\\xa7\\xa3\\xe5\\xa6\\x82\\xe4\\xbd\\x95\\xe4\\xbd\\xbf\\xe7\\x94\\xa8Solidity/\\xe6\\x95\\xb0\\xe6\\x8d\\xae\\xe7\\xb1\\xbb\\xe5\\x9e\\x8b/mapping.sol\":2001:2011  j < length */\n      lt\n        /* \"Level0/Task02\\xe4\\xba\\x86\\xe8\\xa7\\xa3\\xe5\\xa6\\x82\\xe4\\xbd\\x95\\xe4\\xbd\\xbf\\xe7\\x94\\xa8Solidity/\\xe6\\x95\\xb0\\xe6\\x8d\\xae\\xe7\\xb1\\xbb\\xe5\\x9e\\x8b/mapping.sol\":1980:2295  for (uint j = i + 1; j < length; j++) {... */\n      iszero\n      tag_95\n      jumpi\n        /* \"Level0/Task02\\xe4\\xba\\x86\\xe8\\xa7\\xa3\\xe5\\xa6\\x82\\xe4\\xbd\\x95\\xe4\\xbd\\xbf\\xe7\\x94\\xa8Solidity/\\xe6\\x95\\xb0\\xe6\\x8d\\xae\\xe7\\xb1\\xbb\\xe5\\x9e\\x8b/mapping.sol\":2059:2071  sortedScores */\n      dup4\n        /* \"Level0/Task02\\xe4\\xba\\x86\\xe8\\xa7\\xa3\\xe5\\xa6\\x82\\xe4\\xbd\\x95\\xe4\\xbd\\xbf\\xe7\\x94\\xa8Solidity/\\xe6\\x95\\xb0\\xe6\\x8d\\xae\\xe7\\xb1\\xbb\\xe5\\x9e\\x8b/mapping.sol\":2072:2073  j */\n      dup2\n        /* \"Level0/Task02\\xe4\\xba\\x86\\xe8\\xa7\\xa3\\xe5\\xa6\\x82\\xe4\\xbd\\x95\\xe4\\xbd\\xbf\\xe7\\x94\\xa8Solidity/\\xe6\\x95\\xb0\\xe6\\x8d\\xae\\xe7\\xb1\\xbb\\xe5\\x9e\\x8b/mapping.sol\":2059:2074  sortedScores[j] */\n      dup2\n      mload\n      dup2\n      lt\n      tag_98\n      jumpi\n      tag_99\n      tag_82\n      jump\t// in\n    tag_99:\n    tag_98:\n      0x20\n      mul\n      0x20\n      add\n      add\n      mload\n        /* \"Level0/Task02\\xe4\\xba\\x86\\xe8\\xa7\\xa3\\xe5\\xa6\\x82\\xe4\\xbd\\x95\\xe4\\xbd\\xbf\\xe7\\x94\\xa8Solidity/\\xe6\\x95\\xb0\\xe6\\x8d\\xae\\xe7\\xb1\\xbb\\xe5\\x9e\\x8b/mapping.sol\":2041:2053  sortedScores */\n      dup5\n        /* \"Level0/Task02\\xe4\\xba\\x86\\xe8\\xa7\\xa3\\xe5\\xa6\\x82\\xe4\\xbd\\x95\\xe4\\xbd\\xbf\\xe7\\x94\\xa8Solidity/\\xe6\\x95\\xb0\\xe6\\x8d\\xae\\xe7\\xb1\\xbb\\xe5\\x9e\\x8b/mapping.sol\":2054:2055  i */\n      dup4\n        /* \"Level0/Task02\\xe4\\xba\\x86\\xe8\\xa7\\xa3\\xe5\\xa6\\x82\\xe4\\xbd\\x95\\xe4\\xbd\\xbf\\xe7\\x94\\xa8Solidity/\\xe6\\x95\\xb0\\xe6\\x8d\\xae\\xe7\\xb1\\xbb\\xe5\\x9e\\x8b/mapping.sol\":2041:2056  sortedScores[i] */\n      dup2\n      mload\n      dup2\n      lt\n      tag_100\n      jumpi\n      tag_101\n      tag_82\n      jump\t// in\n    tag_101:\n    tag_100:\n      0x20\n      mul\n      0x20\n      add\n      add\n      mload\n        /* \"Level0/Task02\\xe4\\xba\\x86\\xe8\\xa7\\xa3\\xe5\\xa6\\x82\\xe4\\xbd\\x95\\xe4\\xbd\\xbf\\xe7\\x94\\xa8Solidity/\\xe6\\x95\\xb0\\xe6\\x8d\\xae\\xe7\\xb1\\xbb\\xe5\\x9e\\x8b/mapping.sol\":2041:2074  sortedScores[i] < sortedScores[j] */\n      lt\n        /* \"Level0/Task02\\xe4\\xba\\x86\\xe8\\xa7\\xa3\\xe5\\xa6\\x82\\xe4\\xbd\\x95\\xe4\\xbd\\xbf\\xe7\\x94\\xa8Solidity/\\xe6\\x95\\xb0\\xe6\\x8d\\xae\\xe7\\xb1\\xbb\\xe5\\x9e\\x8b/mapping.sol\":2037:2280  if (sortedScores[i] < sortedScores[j]) {... */\n      iszero\n      tag_102\n      jumpi\n        /* \"Level0/Task02\\xe4\\xba\\x86\\xe8\\xa7\\xa3\\xe5\\xa6\\x82\\xe4\\xbd\\x95\\xe4\\xbd\\xbf\\xe7\\x94\\xa8Solidity/\\xe6\\x95\\xb0\\xe6\\x8d\\xae\\xe7\\xb1\\xbb\\xe5\\x9e\\x8b/mapping.sol\":2137:2149  sortedScores */\n      dup4\n        /* \"Level0/Task02\\xe4\\xba\\x86\\xe8\\xa7\\xa3\\xe5\\xa6\\x82\\xe4\\xbd\\x95\\xe4\\xbd\\xbf\\xe7\\x94\\xa8Solidity/\\xe6\\x95\\xb0\\xe6\\x8d\\xae\\xe7\\xb1\\xbb\\xe5\\x9e\\x8b/mapping.sol\":2150:2151  j */\n      dup2\n        /* \"Level0/Task02\\xe4\\xba\\x86\\xe8\\xa7\\xa3\\xe5\\xa6\\x82\\xe4\\xbd\\x95\\xe4\\xbd\\xbf\\xe7\\x94\\xa8Solidity/\\xe6\\x95\\xb0\\xe6\\x8d\\xae\\xe7\\xb1\\xbb\\xe5\\x9e\\x8b/mapping.sol\":2137:2152  sortedScores[j] */\n      dup2\n      mload\n      dup2\n      lt\n      tag_103\n      jumpi\n      tag_104\n      tag_82\n      jump\t// in\n    tag_104:\n    tag_103:\n      0x20\n      mul\n      0x20\n      add\n      add\n      mload\n        /* \"Level0/Task02\\xe4\\xba\\x86\\xe8\\xa7\\xa3\\xe5\\xa6\\x82\\xe4\\xbd\\x95\\xe4\\xbd\\xbf\\xe7\\x94\\xa8Solidity/\\xe6\\x95\\xb0\\xe6\\x8d\\xae\\xe7\\xb1\\xbb\\xe5\\x9e\\x8b/mapping.sol\":2154:2166  sortedScores */\n      dup5\n        /* \"Level0/Task02\\xe4\\xba\\x86\\xe8\\xa7\\xa3\\xe5\\xa6\\x82\\xe4\\xbd\\x95\\xe4\\xbd\\xbf\\xe7\\x94\\xa8Solidity/\\xe6\\x95\\xb0\\xe6\\x8d\\xae\\xe7\\xb1\\xbb\\xe5\\x9e\\x8b/mapping.sol\":2167:2168  i */\n      dup4\n        /* \"Level0/Task02\\xe4\\xba\\x86\\xe8\\xa7\\xa3\\xe5\\xa6\\x82\\xe4\\xbd\\x95\\xe4\\xbd\\xbf\\xe7\\x94\\xa8Solidity/\\xe6\\x95\\xb0\\xe6\\x8d\\xae\\xe7\\xb1\\xbb\\xe5\\x9e\\x8b/mapping.sol\":2154:2169  sortedScores[i] */\n      dup2\n      mload\n      dup2\n      lt\n      tag_105\n      jumpi\n      tag_106\n      tag_82\n      jump\t// in\n    tag_106:\n    tag_105:\n      0x20\n      mul\n      0x20\n      add\n      add\n      mload\n        /* \"Level0/Task02\\xe4\\xba\\x86\\xe8\\xa7\\xa3\\xe5\\xa6\\x82\\xe4\\xbd\\x95\\xe4\\xbd\\xbf\\xe7\\x94\\xa8Solidity/\\xe6\\x95\\xb0\\xe6\\x8d\\xae\\xe7\\xb1\\xbb\\xe5\\x9e\\x8b/mapping.sol\":2100:2112  sortedScores */\n      dup6\n        /* \"Level0/Task02\\xe4\\xba\\x86\\xe8\\xa7\\xa3\\xe5\\xa6\\x82\\xe4\\xbd\\x95\\xe4\\xbd\\xbf\\xe7\\x94\\xa8Solidity/\\xe6\\x95\\xb0\\xe6\\x8d\\xae\\xe7\\xb1\\xbb\\xe5\\x9e\\x8b/mapping.sol\":2113:2114  i */\n      dup5\n        /* \"Level0/Task02\\xe4\\xba\\x86\\xe8\\xa7\\xa3\\xe5\\xa6\\x82\\xe4\\xbd\\x95\\xe4\\xbd\\xbf\\xe7\\x94\\xa8Solidity/\\xe6\\x95\\xb0\\xe6\\x8d\\xae\\xe7\\xb1\\xbb\\xe5\\x9e\\x8b/mapping.sol\":2100:2115  sortedScores[i] */\n      dup2\n      mload\n      dup2\n      lt\n      tag_107\n      jumpi\n      tag_108\n      tag_82\n      jump\t// in\n    tag_108:\n    tag_107:\n      0x20\n      mul\n      0x20\n      add\n      add\n        /* \"Level0/Task02\\xe4\\xba\\x86\\xe8\\xa7\\xa3\\xe5\\xa6\\x82\\xe4\\xbd\\x95\\xe4\\xbd\\xbf\\xe7\\x94\\xa8Solidity/\\xe6\\x95\\xb0\\xe6\\x8d\\xae\\xe7\\xb1\\xbb\\xe5\\x9e\\x8b/mapping.sol\":2117:2129  sortedScores */\n      dup7\n        /* \"Level0/Task02\\xe4\\xba\\x86\\xe8\\xa7\\xa3\\xe5\\xa6\\x82\\xe4\\xbd\\x95\\xe4\\xbd\\xbf\\xe7\\x94\\xa8Solidity/\\xe6\\x95\\xb0\\xe6\\x8d\\xae\\xe7\\xb1\\xbb\\xe5\\x9e\\x8b/mapping.sol\":2130:2131  j */\n      dup5\n        /* \"Level0/Task02\\xe4\\xba\\x86\\xe8\\xa7\\xa3\\xe5\\xa6\\x82\\xe4\\xbd\\x95\\xe4\\xbd\\xbf\\xe7\\x94\\xa8Solidity/\\xe6\\x95\\xb0\\xe6\\x8d\\xae\\xe7\\xb1\\xbb\\xe5\\x9e\\x8b/mapping.sol\":2117:2132  sortedScores[j] */\n      dup2\n      mload\n      dup2\n      lt\n      tag_109\n      jumpi\n      tag_110\n      tag_82\n      jump\t// in\n    tag_110:\n    tag_109:\n      0x20\n      mul\n      0x20\n      add\n      add\n        /* \"Level0/Task02\\xe4\\xba\\x86\\xe8\\xa7\\xa3\\xe5\\xa6\\x82\\xe4\\xbd\\x95\\xe4\\xbd\\xbf\\xe7\\x94\\xa8Solidity/\\xe6\\x95\\xb0\\xe6\\x8d\\xae\\xe7\\xb1\\xbb\\xe5\\x9e\\x8b/mapping.sol\":2099:2170  (sortedScores[i], sortedScores[j]) = (sortedScores[j], sortedScores[i]) */\n      dup3\n      dup2\n      mstore\n      pop\n      dup3\n      dup2\n      mstore\n      pop\n      pop\n      pop\n        /* \"Level0/Task02\\xe4\\xba\\x86\\xe8\\xa7\\xa3\\xe5\\xa6\\x82\\xe4\\xbd\\x95\\xe4\\xbd\\xbf\\xe7\\x94\\xa8Solidity/\\xe6\\x95\\xb0\\xe6\\x8d\\xae\\xe7\\xb1\\xbb\\xe5\\x9e\\x8b/mapping.sol\":2229:2240  sortedUsers */\n      dup3\n        /* \"Level0/Task02\\xe4\\xba\\x86\\xe8\\xa7\\xa3\\xe5\\xa6\\x82\\xe4\\xbd\\x95\\xe4\\xbd\\xbf\\xe7\\x94\\xa8Solidity/\\xe6\\x95\\xb0\\xe6\\x8d\\xae\\xe7\\xb1\\xbb\\xe5\\x9e\\x8b/mapping.sol\":2241:2242  j */\n      dup2\n        /* \"Level0/Task02\\xe4\\xba\\x86\\xe8\\xa7\\xa3\\xe5\\xa6\\x82\\xe4\\xbd\\x95\\xe4\\xbd\\xbf\\xe7\\x94\\xa8Solidity/\\xe6\\x95\\xb0\\xe6\\x8d\\xae\\xe7\\xb1\\xbb\\xe5\\x9e\\x8b/mapping.sol\":2229:2243  sortedUsers[j] */\n      dup2\n      mload\n      dup2\n      lt\n      tag_111\n      jumpi\n      tag_112\n      tag_82\n      jump\t// in\n    tag_112:\n    tag_111:\n      0x20\n      mul\n      0x20\n      add\n      add\n      mload\n        /* \"Level0/Task02\\xe4\\xba\\x86\\xe8\\xa7\\xa3\\xe5\\xa6\\x82\\xe4\\xbd\\x95\\xe4\\xbd\\xbf\\xe7\\x94\\xa8Solidity/\\xe6\\x95\\xb0\\xe6\\x8d\\xae\\xe7\\xb1\\xbb\\xe5\\x9e\\x8b/mapping.sol\":2245:2256  sortedUsers */\n      dup4\n        /* \"Level0/Task02\\xe4\\xba\\x86\\xe8\\xa7\\xa3\\xe5\\xa6\\x82\\xe4\\xbd\\x95\\xe4\\xbd\\xbf\\xe7\\x94\\xa8Solidity/\\xe6\\x95\\xb0\\xe6\\x8d\\xae\\xe7\\xb1\\xbb\\xe5\\x9e\\x8b/mapping.sol\":2257:2258  i */\n      dup4\n        /* \"Level0/Task02\\xe4\\xba\\x86\\xe8\\xa7\\xa3\\xe5\\xa6\\x82\\xe4\\xbd\\x95\\xe4\\xbd\\xbf\\xe7\\x94\\xa8Solidity/\\xe6\\x95\\xb0\\xe6\\x8d\\xae\\xe7\\xb1\\xbb\\xe5\\x9e\\x8b/mapping.sol\":2245:2259  sortedUsers[i] */\n      dup2\n      mload\n      dup2\n      lt\n      tag_113\n      jumpi\n      tag_114\n      tag_82\n      jump\t// in\n    tag_114:\n    tag_113:\n      0x20\n      mul\n      0x20\n      add\n      add\n      mload\n        /* \"Level0/Task02\\xe4\\xba\\x86\\xe8\\xa7\\xa3\\xe5\\xa6\\x82\\xe4\\xbd\\x95\\xe4\\xbd\\xbf\\xe7\\x94\\xa8Solidity/\\xe6\\x95\\xb0\\xe6\\x8d\\xae\\xe7\\xb1\\xbb\\xe5\\x9e\\x8b/mapping.sol\":2194:2205  sortedUsers */\n      dup5\n        /* \"Level0/Task02\\xe4\\xba\\x86\\xe8\\xa7\\xa3\\xe5\\xa6\\x82\\xe4\\xbd\\x95\\xe4\\xbd\\xbf\\xe7\\x94\\xa8Solidity/\\xe6\\x95\\xb0\\xe6\\x8d\\xae\\xe7\\xb1\\xbb\\xe5\\x9e\\x8b/mapping.sol\":2206:2207  i */\n      dup5\n        /* \"Level0/Task02\\xe4\\xba\\x86\\xe8\\xa7\\xa3\\xe5\\xa6\\x82\\xe4\\xbd\\x95\\xe4\\xbd\\xbf\\xe7\\x94\\xa8Solidity/\\xe6\\x95\\xb0\\xe6\\x8d\\xae\\xe7\\xb1\\xbb\\xe5\\x9e\\x8b/mapping.sol\":2194:2208  sortedUsers[i] */\n      dup2\n      mload\n      dup2\n      lt\n      tag_115\n      jumpi\n      tag_116\n      tag_82\n      jump\t// in\n    tag_116:\n    tag_115:\n      0x20\n      mul\n      0x20\n      add\n      add\n        /* \"Level0/Task02\\xe4\\xba\\x86\\xe8\\xa7\\xa3\\xe5\\xa6\\x82\\xe4\\xbd\\x95\\xe4\\xbd\\xbf\\xe7\\x94\\xa8Solidity/\\xe6\\x95\\xb0\\xe6\\x8d\\xae\\xe7\\xb1\\xbb\\xe5\\x9e\\x8b/mapping.sol\":2210:2221  sortedUsers */\n      dup6\n        /* \"Level0/Task02\\xe4\\xba\\x86\\xe8\\xa7\\xa3\\xe5\\xa6\\x82\\xe4\\xbd\\x95\\xe4\\xbd\\xbf\\xe7\\x94\\xa8Solidity/\\xe6\\x95\\xb0\\xe6\\x8d\\xae\\xe7\\xb1\\xbb\\xe5\\x9e\\x8b/mapping.sol\":2222:2223  j */\n      dup5\n        /* \"Level0/Task02\\xe4\\xba\\x86\\xe8\\xa7\\xa3\\xe5\\xa6\\x82\\xe4\\xbd\\x95\\xe4\\xbd\\xbf\\xe7\\x94\\xa8Solidity/\\xe6\\x95\\xb0\\xe6\\x8d\\xae\\xe7\\xb1\\xbb\\xe5\\x9e\\x8b/mapping.sol\":2210:2224  sortedUsers[j] */\n      dup2\n      mload\n      dup2\n      lt\n      tag_117\n      jumpi\n      tag_118\n      tag_82\n      jump\t// in\n    tag_118:\n    tag_117:\n      0x20\n      mul\n      0x20\n      add\n      add\n        /* \"Level0/Task02\\xe4\\xba\\x86\\xe8\\xa7\\xa3\\xe5\\xa6\\x82\\xe4\\xbd\\x95\\xe4\\xbd\\xbf\\xe7\\x94\\xa8Solidity/\\xe6\\x95\\xb0\\xe6\\x8d\\xae\\xe7\\xb1\\xbb\\xe5\\x9e\\x8b/mapping.sol\":2193:2260  (sortedUsers[i], sortedUsers[j]) = (sortedUsers[j], sortedUsers[i]) */\n      dup3\n      0xffffffffffffffffffffffffffffffffffffffff\n      and\n      0xffffffffffffffffffffffffffffffffffffffff\n      and\n      dup2\n      mstore\n      pop\n      dup3\n      0xffffffffffffffffffffffffffffffffffffffff\n      and\n      0xffffffffffffffffffffffffffffffffffffffff\n      and\n      dup2\n      mstore\n      pop\n      pop\n      pop\n        /* \"Level0/Task02\\xe4\\xba\\x86\\xe8\\xa7\\xa3\\xe5\\xa6\\x82\\xe4\\xbd\\x95\\xe4\\xbd\\xbf\\xe7\\x94\\xa8Solidity/\\xe6\\x95\\xb0\\xe6\\x8d\\xae\\xe7\\xb1\\xbb\\xe5\\x9e\\x8b/mapping.sol\":2037:2280  if (sortedScores[i] < sortedScores[j]) {... */\n    tag_102:\n        /* \"Level0/Task02\\xe4\\xba\\x86\\xe8\\xa7\\xa3\\xe5\\xa6\\x82\\xe4\\xbd\\x95\\xe4\\xbd\\xbf\\xe7\\x94\\xa8Solidity/\\xe6\\x95\\xb0\\xe6\\x8d\\xae\\xe7\\xb1\\xbb\\xe5\\x9e\\x8b/mapping.sol\":2013:2016  j++ */\n      dup1\n      dup1\n      0x01\n      add\n      swap2\n      pop\n      pop\n        /* \"Level0/Task02\\xe4\\xba\\x86\\xe8\\xa7\\xa3\\xe5\\xa6\\x82\\xe4\\xbd\\x95\\xe4\\xbd\\xbf\\xe7\\x94\\xa8Solidity/\\xe6\\x95\\xb0\\xe6\\x8d\\xae\\xe7\\xb1\\xbb\\xe5\\x9e\\x8b/mapping.sol\":1980:2295  for (uint j = i + 1; j < length; j++) {... */\n      jump(tag_94)\n    tag_95:\n      pop\n        /* \"Level0/Task02\\xe4\\xba\\x86\\xe8\\xa7\\xa3\\xe5\\xa6\\x82\\xe4\\xbd\\x95\\xe4\\xbd\\xbf\\xe7\\x94\\xa8Solidity/\\xe6\\x95\\xb0\\xe6\\x8d\\xae\\xe7\\xb1\\xbb\\xe5\\x9e\\x8b/mapping.sol\":1960:1963  i++ */\n      dup1\n      dup1\n      0x01\n      add\n      swap2\n      pop\n      pop\n        /* \"Level0/Task02\\xe4\\xba\\x86\\xe8\\xa7\\xa3\\xe5\\xa6\\x82\\xe4\\xbd\\x95\\xe4\\xbd\\xbf\\xe7\\x94\\xa8Solidity/\\xe6\\x95\\xb0\\xe6\\x8d\\xae\\xe7\\xb1\\xbb\\xe5\\x9e\\x8b/mapping.sol\":1931:2306  for (uint i = 0; i < length; i++) {... */\n      jump(tag_91)\n    tag_92:\n      pop\n        /* \"Level0/Task02\\xe4\\xba\\x86\\xe8\\xa7\\xa3\\xe5\\xa6\\x82\\xe4\\xbd\\x95\\xe4\\xbd\\xbf\\xe7\\x94\\xa8Solidity/\\xe6\\x95\\xb0\\xe6\\x8d\\xae\\xe7\\xb1\\xbb\\xe5\\x9e\\x8b/mapping.sol\":2326:2337  sortedUsers */\n      dup1\n        /* \"Level0/Task02\\xe4\\xba\\x86\\xe8\\xa7\\xa3\\xe5\\xa6\\x82\\xe4\\xbd\\x95\\xe4\\xbd\\xbf\\xe7\\x94\\xa8Solidity/\\xe6\\x95\\xb0\\xe6\\x8d\\xae\\xe7\\xb1\\xbb\\xe5\\x9e\\x8b/mapping.sol\":2339:2351  sortedScores */\n      dup3\n        /* \"Level0/Task02\\xe4\\xba\\x86\\xe8\\xa7\\xa3\\xe5\\xa6\\x82\\xe4\\xbd\\x95\\xe4\\xbd\\xbf\\xe7\\x94\\xa8Solidity/\\xe6\\x95\\xb0\\xe6\\x8d\\xae\\xe7\\xb1\\xbb\\xe5\\x9e\\x8b/mapping.sol\":2318:2352  return (sortedUsers, sortedScores) */\n      swap5\n      pop\n      swap5\n      pop\n      pop\n      pop\n      pop\n        /* \"Level0/Task02\\xe4\\xba\\x86\\xe8\\xa7\\xa3\\xe5\\xa6\\x82\\xe4\\xbd\\x95\\xe4\\xbd\\xbf\\xe7\\x94\\xa8Solidity/\\xe6\\x95\\xb0\\xe6\\x8d\\xae\\xe7\\xb1\\xbb\\xe5\\x9e\\x8b/mapping.sol\":1487:2360  function getLeaderboard() public view returns (address[] memory, uint[] memory) {... */\n      swap1\n      swap2\n      jump\t// out\n        /* \"Level0/Task02\\xe4\\xba\\x86\\xe8\\xa7\\xa3\\xe5\\xa6\\x82\\xe4\\xbd\\x95\\xe4\\xbd\\xbf\\xe7\\x94\\xa8Solidity/\\xe6\\x95\\xb0\\xe6\\x8d\\xae\\xe7\\xb1\\xbb\\xe5\\x9e\\x8b/mapping.sol\":283:321  mapping(address => uint) public scores */\n    tag_44:\n      mstore(0x20, 0x02)\n      dup1\n      0x00\n      mstore\n      keccak256(0x00, 0x40)\n      0x00\n      swap2\n      pop\n      swap1\n      pop\n      sload\n      dup2\n      jump\t// out\n        /* \"Level0/Task02\\xe4\\xba\\x86\\xe8\\xa7\\xa3\\xe5\\xa6\\x82\\xe4\\xbd\\x95\\xe4\\xbd\\xbf\\xe7\\x94\\xa8Solidity/\\xe6\\x95\\xb0\\xe6\\x8d\\xae\\xe7\\xb1\\xbb\\xe5\\x9e\\x8b/mapping.sol\":573:832  function deposit() public payable {... */\n    tag_47:\n        /* \"Level0/Task02\\xe4\\xba\\x86\\xe8\\xa7\\xa3\\xe5\\xa6\\x82\\xe4\\xbd\\x95\\xe4\\xbd\\xbf\\xe7\\x94\\xa8Solidity/\\xe6\\x95\\xb0\\xe6\\x8d\\xae\\xe7\\xb1\\xbb\\xe5\\x9e\\x8b/mapping.sol\":638:639  0 */\n      0x00\n        /* \"Level0/Task02\\xe4\\xba\\x86\\xe8\\xa7\\xa3\\xe5\\xa6\\x82\\xe4\\xbd\\x95\\xe4\\xbd\\xbf\\xe7\\x94\\xa8Solidity/\\xe6\\x95\\xb0\\xe6\\x8d\\xae\\xe7\\xb1\\xbb\\xe5\\x9e\\x8b/mapping.sol\":626:635  msg.value */\n      callvalue\n        /* \"Level0/Task02\\xe4\\xba\\x86\\xe8\\xa7\\xa3\\xe5\\xa6\\x82\\xe4\\xbd\\x95\\xe4\\xbd\\xbf\\xe7\\x94\\xa8Solidity/\\xe6\\x95\\xb0\\xe6\\x8d\\xae\\xe7\\xb1\\xbb\\xe5\\x9e\\x8b/mapping.sol\":626:639  msg.value > 0 */\n      gt\n        /* \"Level0/Task02\\xe4\\xba\\x86\\xe8\\xa7\\xa3\\xe5\\xa6\\x82\\xe4\\xbd\\x95\\xe4\\xbd\\xbf\\xe7\\x94\\xa8Solidity/\\xe6\\x95\\xb0\\xe6\\x8d\\xae\\xe7\\xb1\\xbb\\xe5\\x9e\\x8b/mapping.sol\":618:681  require(msg.value > 0, \"Deposit amount must be greater than 0\") */\n      tag_120\n      jumpi\n      mload(0x40)\n      0x08c379a000000000000000000000000000000000000000000000000000000000\n      dup2\n      mstore\n      0x04\n      add\n      tag_121\n      swap1\n      tag_122\n      jump\t// in\n    tag_121:\n      mload(0x40)\n      dup1\n      swap2\n      sub\n      swap1\n      revert\n    tag_120:\n        /* \"Level0/Task02\\xe4\\xba\\x86\\xe8\\xa7\\xa3\\xe5\\xa6\\x82\\xe4\\xbd\\x95\\xe4\\xbd\\xbf\\xe7\\x94\\xa8Solidity/\\xe6\\x95\\xb0\\xe6\\x8d\\xae\\xe7\\xb1\\xbb\\xe5\\x9e\\x8b/mapping.sol\":716:725  msg.value */\n      callvalue\n        /* \"Level0/Task02\\xe4\\xba\\x86\\xe8\\xa7\\xa3\\xe5\\xa6\\x82\\xe4\\xbd\\x95\\xe4\\xbd\\xbf\\xe7\\x94\\xa8Solidity/\\xe6\\x95\\xb0\\xe6\\x8d\\xae\\xe7\\xb1\\xbb\\xe5\\x9e\\x8b/mapping.sol\":692:700  balances */\n      0x00\n        /* \"Level0/Task02\\xe4\\xba\\x86\\xe8\\xa7\\xa3\\xe5\\xa6\\x82\\xe4\\xbd\\x95\\xe4\\xbd\\xbf\\xe7\\x94\\xa8Solidity/\\xe6\\x95\\xb0\\xe6\\x8d\\xae\\xe7\\xb1\\xbb\\xe5\\x9e\\x8b/mapping.sol\":692:712  balances[msg.sender] */\n      dup1\n        /* \"Level0/Task02\\xe4\\xba\\x86\\xe8\\xa7\\xa3\\xe5\\xa6\\x82\\xe4\\xbd\\x95\\xe4\\xbd\\xbf\\xe7\\x94\\xa8Solidity/\\xe6\\x95\\xb0\\xe6\\x8d\\xae\\xe7\\xb1\\xbb\\xe5\\x9e\\x8b/mapping.sol\":701:711  msg.sender */\n      caller\n        /* \"Level0/Task02\\xe4\\xba\\x86\\xe8\\xa7\\xa3\\xe5\\xa6\\x82\\xe4\\xbd\\x95\\xe4\\xbd\\xbf\\xe7\\x94\\xa8Solidity/\\xe6\\x95\\xb0\\xe6\\x8d\\xae\\xe7\\xb1\\xbb\\xe5\\x9e\\x8b/mapping.sol\":692:712  balances[msg.sender] */\n      0xffffffffffffffffffffffffffffffffffffffff\n      and\n      0xffffffffffffffffffffffffffffffffffffffff\n      and\n      dup2\n      mstore\n      0x20\n      add\n      swap1\n      dup2\n      mstore\n      0x20\n      add\n      0x00\n      keccak256\n      0x00\n        /* \"Level0/Task02\\xe4\\xba\\x86\\xe8\\xa7\\xa3\\xe5\\xa6\\x82\\xe4\\xbd\\x95\\xe4\\xbd\\xbf\\xe7\\x94\\xa8Solidity/\\xe6\\x95\\xb0\\xe6\\x8d\\xae\\xe7\\xb1\\xbb\\xe5\\x9e\\x8b/mapping.sol\":692:725  balances[msg.sender] += msg.value */\n      dup3\n      dup3\n      sload\n      tag_123\n      swap2\n      swap1\n      tag_67\n      jump\t// in\n    tag_123:\n      swap3\n      pop\n      pop\n      dup2\n      swap1\n      sstore\n      pop\n        /* \"Level0/Task02\\xe4\\xba\\x86\\xe8\\xa7\\xa3\\xe5\\xa6\\x82\\xe4\\xbd\\x95\\xe4\\xbd\\xbf\\xe7\\x94\\xa8Solidity/\\xe6\\x95\\xb0\\xe6\\x8d\\xae\\xe7\\xb1\\xbb\\xe5\\x9e\\x8b/mapping.sol\":736:748  transactions */\n      0x01\n        /* \"Level0/Task02\\xe4\\xba\\x86\\xe8\\xa7\\xa3\\xe5\\xa6\\x82\\xe4\\xbd\\x95\\xe4\\xbd\\xbf\\xe7\\x94\\xa8Solidity/\\xe6\\x95\\xb0\\xe6\\x8d\\xae\\xe7\\xb1\\xbb\\xe5\\x9e\\x8b/mapping.sol\":736:760  transactions[msg.sender] */\n      0x00\n        /* \"Level0/Task02\\xe4\\xba\\x86\\xe8\\xa7\\xa3\\xe5\\xa6\\x82\\xe4\\xbd\\x95\\xe4\\xbd\\xbf\\xe7\\x94\\xa8Solidity/\\xe6\\x95\\xb0\\xe6\\x8d\\xae\\xe7\\xb1\\xbb\\xe5\\x9e\\x8b/mapping.sol\":749:759  msg.sender */\n      caller\n        /* \"Level0/Task02\\xe4\\xba\\x86\\xe8\\xa7\\xa3\\xe5\\xa6\\x82\\xe4\\xbd\\x95\\xe4\\xbd\\xbf\\xe7\\x94\\xa8Solidity/\\xe6\\x95\\xb0\\xe6\\x8d\\xae\\xe7\\xb1\\xbb\\xe5\\x9e\\x8b/mapping.sol\":736:760  transactions[msg.sender] */\n      0xffffffffffffffffffffffffffffffffffffffff\n      and\n      0xffffffffffffffffffffffffffffffffffffffff\n      and\n      dup2\n      mstore\n      0x20\n      add\n      swap1\n      dup2\n      mstore\n      0x20\n      add\n      0x00\n      keccak256\n        /* \"Level0/Task02\\xe4\\xba\\x86\\xe8\\xa7\\xa3\\xe5\\xa6\\x82\\xe4\\xbd\\x95\\xe4\\xbd\\xbf\\xe7\\x94\\xa8Solidity/\\xe6\\x95\\xb0\\xe6\\x8d\\xae\\xe7\\xb1\\xbb\\xe5\\x9e\\x8b/mapping.sol\":766:775  msg.value */\n      callvalue\n        /* \"Level0/Task02\\xe4\\xba\\x86\\xe8\\xa7\\xa3\\xe5\\xa6\\x82\\xe4\\xbd\\x95\\xe4\\xbd\\xbf\\xe7\\x94\\xa8Solidity/\\xe6\\x95\\xb0\\xe6\\x8d\\xae\\xe7\\xb1\\xbb\\xe5\\x9e\\x8b/mapping.sol\":736:776  transactions[msg.sender].push(msg.value) */\n      swap1\n      dup1\n      0x01\n      dup2\n      sload\n      add\n      dup1\n      dup3\n      sstore\n      dup1\n      swap2\n      pop\n      pop\n      0x01\n      swap1\n      sub\n      swap1\n      0x00\n      mstore\n      keccak256(0x00, 0x20)\n      add\n      0x00\n      swap1\n      swap2\n      swap1\n      swap2\n      swap1\n      swap2\n      pop\n      sstore\n        /* \"Level0/Task02\\xe4\\xba\\x86\\xe8\\xa7\\xa3\\xe5\\xa6\\x82\\xe4\\xbd\\x95\\xe4\\xbd\\xbf\\xe7\\x94\\xa8Solidity/\\xe6\\x95\\xb0\\xe6\\x8d\\xae\\xe7\\xb1\\xbb\\xe5\\x9e\\x8b/mapping.sol\":802:812  msg.sender */\n      caller\n        /* \"Level0/Task02\\xe4\\xba\\x86\\xe8\\xa7\\xa3\\xe5\\xa6\\x82\\xe4\\xbd\\x95\\xe4\\xbd\\xbf\\xe7\\x94\\xa8Solidity/\\xe6\\x95\\xb0\\xe6\\x8d\\xae\\xe7\\xb1\\xbb\\xe5\\x9e\\x8b/mapping.sol\":792:824  Deposited(msg.sender, msg.value) */\n      0xffffffffffffffffffffffffffffffffffffffff\n      and\n      0x2da466a7b24304f47e87fa2e1e5a81b9831ce54fec19055ce277ca2f39ba42c4\n        /* \"Level0/Task02\\xe4\\xba\\x86\\xe8\\xa7\\xa3\\xe5\\xa6\\x82\\xe4\\xbd\\x95\\xe4\\xbd\\xbf\\xe7\\x94\\xa8Solidity/\\xe6\\x95\\xb0\\xe6\\x8d\\xae\\xe7\\xb1\\xbb\\xe5\\x9e\\x8b/mapping.sol\":814:823  msg.value */\n      callvalue\n        /* \"Level0/Task02\\xe4\\xba\\x86\\xe8\\xa7\\xa3\\xe5\\xa6\\x82\\xe4\\xbd\\x95\\xe4\\xbd\\xbf\\xe7\\x94\\xa8Solidity/\\xe6\\x95\\xb0\\xe6\\x8d\\xae\\xe7\\xb1\\xbb\\xe5\\x9e\\x8b/mapping.sol\":792:824  Deposited(msg.sender, msg.value) */\n      mload(0x40)\n      tag_125\n      swap2\n      swap1\n      tag_18\n      jump\t// in\n    tag_125:\n      mload(0x40)\n      dup1\n      swap2\n      sub\n      swap1\n      log2\n        /* \"Level0/Task02\\xe4\\xba\\x86\\xe8\\xa7\\xa3\\xe5\\xa6\\x82\\xe4\\xbd\\x95\\xe4\\xbd\\xbf\\xe7\\x94\\xa8Solidity/\\xe6\\x95\\xb0\\xe6\\x8d\\xae\\xe7\\xb1\\xbb\\xe5\\x9e\\x8b/mapping.sol\":573:832  function deposit() public payable {... */\n      jump\t// out\n        /* \"Level0/Task02\\xe4\\xba\\x86\\xe8\\xa7\\xa3\\xe5\\xa6\\x82\\xe4\\xbd\\x95\\xe4\\xbd\\xbf\\xe7\\x94\\xa8Solidity/\\xe6\\x95\\xb0\\xe6\\x8d\\xae\\xe7\\xb1\\xbb\\xe5\\x9e\\x8b/mapping.sol\":1009:1134  function getTransactionHistory(address user) public view returns (uint[] memory) {... */\n    tag_51:\n        /* \"Level0/Task02\\xe4\\xba\\x86\\xe8\\xa7\\xa3\\xe5\\xa6\\x82\\xe4\\xbd\\x95\\xe4\\xbd\\xbf\\xe7\\x94\\xa8Solidity/\\xe6\\x95\\xb0\\xe6\\x8d\\xae\\xe7\\xb1\\xbb\\xe5\\x9e\\x8b/mapping.sol\":1075:1088  uint[] memory */\n      0x60\n        /* \"Level0/Task02\\xe4\\xba\\x86\\xe8\\xa7\\xa3\\xe5\\xa6\\x82\\xe4\\xbd\\x95\\xe4\\xbd\\xbf\\xe7\\x94\\xa8Solidity/\\xe6\\x95\\xb0\\xe6\\x8d\\xae\\xe7\\xb1\\xbb\\xe5\\x9e\\x8b/mapping.sol\":1108:1120  transactions */\n      0x01\n        /* \"Level0/Task02\\xe4\\xba\\x86\\xe8\\xa7\\xa3\\xe5\\xa6\\x82\\xe4\\xbd\\x95\\xe4\\xbd\\xbf\\xe7\\x94\\xa8Solidity/\\xe6\\x95\\xb0\\xe6\\x8d\\xae\\xe7\\xb1\\xbb\\xe5\\x9e\\x8b/mapping.sol\":1108:1126  transactions[user] */\n      0x00\n        /* \"Level0/Task02\\xe4\\xba\\x86\\xe8\\xa7\\xa3\\xe5\\xa6\\x82\\xe4\\xbd\\x95\\xe4\\xbd\\xbf\\xe7\\x94\\xa8Solidity/\\xe6\\x95\\xb0\\xe6\\x8d\\xae\\xe7\\xb1\\xbb\\xe5\\x9e\\x8b/mapping.sol\":1121:1125  user */\n      dup4\n        /* \"Level0/Task02\\xe4\\xba\\x86\\xe8\\xa7\\xa3\\xe5\\xa6\\x82\\xe4\\xbd\\x95\\xe4\\xbd\\xbf\\xe7\\x94\\xa8Solidity/\\xe6\\x95\\xb0\\xe6\\x8d\\xae\\xe7\\xb1\\xbb\\xe5\\x9e\\x8b/mapping.sol\":1108:1126  transactions[user] */\n      0xffffffffffffffffffffffffffffffffffffffff\n      and\n      0xffffffffffffffffffffffffffffffffffffffff\n      and\n      dup2\n      mstore\n      0x20\n      add\n      swap1\n      dup2\n      mstore\n      0x20\n      add\n      0x00\n      keccak256\n        /* \"Level0/Task02\\xe4\\xba\\x86\\xe8\\xa7\\xa3\\xe5\\xa6\\x82\\xe4\\xbd\\x95\\xe4\\xbd\\xbf\\xe7\\x94\\xa8Solidity/\\xe6\\x95\\xb0\\xe6\\x8d\\xae\\xe7\\xb1\\xbb\\xe5\\x9e\\x8b/mapping.sol\":1101:1126  return transactions[user] */\n      dup1\n      sload\n      dup1\n      0x20\n      mul\n      0x20\n      add\n      mload(0x40)\n      swap1\n      dup2\n      add\n      0x40\n      mstore\n      dup1\n      swap3\n      swap2\n      swap1\n      dup2\n      dup2\n      mstore\n      0x20\n      add\n      dup3\n      dup1\n      sload\n      dup1\n      iszero\n      tag_127\n      jumpi\n      0x20\n      mul\n      dup3\n      add\n      swap2\n      swap1\n      0x00\n      mstore\n      keccak256(0x00, 0x20)\n      swap1\n    tag_128:\n      dup2\n      sload\n      dup2\n      mstore\n      0x20\n      add\n      swap1\n      0x01\n      add\n      swap1\n      dup1\n      dup4\n      gt\n      tag_128\n      jumpi\n    tag_127:\n      pop\n      pop\n      pop\n      pop\n      pop\n      swap1\n      pop\n        /* \"Level0/Task02\\xe4\\xba\\x86\\xe8\\xa7\\xa3\\xe5\\xa6\\x82\\xe4\\xbd\\x95\\xe4\\xbd\\xbf\\xe7\\x94\\xa8Solidity/\\xe6\\x95\\xb0\\xe6\\x8d\\xae\\xe7\\xb1\\xbb\\xe5\\x9e\\x8b/mapping.sol\":1009:1134  function getTransactionHistory(address user) public view returns (uint[] memory) {... */\n      swap2\n      swap1\n      pop\n      jump\t// out\n        /* \"Level0/Task02\\xe4\\xba\\x86\\xe8\\xa7\\xa3\\xe5\\xa6\\x82\\xe4\\xbd\\x95\\xe4\\xbd\\xbf\\xe7\\x94\\xa8Solidity/\\xe6\\x95\\xb0\\xe6\\x8d\\xae\\xe7\\xb1\\xbb\\xe5\\x9e\\x8b/mapping.sol\":867:968  function getBalance(address user) public view returns (uint) {... */\n    tag_57:\n        /* \"Level0/Task02\\xe4\\xba\\x86\\xe8\\xa7\\xa3\\xe5\\xa6\\x82\\xe4\\xbd\\x95\\xe4\\xbd\\xbf\\xe7\\x94\\xa8Solidity/\\xe6\\x95\\xb0\\xe6\\x8d\\xae\\xe7\\xb1\\xbb\\xe5\\x9e\\x8b/mapping.sol\":922:926  uint */\n      0x00\n        /* \"Level0/Task02\\xe4\\xba\\x86\\xe8\\xa7\\xa3\\xe5\\xa6\\x82\\xe4\\xbd\\x95\\xe4\\xbd\\xbf\\xe7\\x94\\xa8Solidity/\\xe6\\x95\\xb0\\xe6\\x8d\\xae\\xe7\\xb1\\xbb\\xe5\\x9e\\x8b/mapping.sol\":946:954  balances */\n      dup1\n        /* \"Level0/Task02\\xe4\\xba\\x86\\xe8\\xa7\\xa3\\xe5\\xa6\\x82\\xe4\\xbd\\x95\\xe4\\xbd\\xbf\\xe7\\x94\\xa8Solidity/\\xe6\\x95\\xb0\\xe6\\x8d\\xae\\xe7\\xb1\\xbb\\xe5\\x9e\\x8b/mapping.sol\":946:960  balances[user] */\n      0x00\n        /* \"Level0/Task02\\xe4\\xba\\x86\\xe8\\xa7\\xa3\\xe5\\xa6\\x82\\xe4\\xbd\\x95\\xe4\\xbd\\xbf\\xe7\\x94\\xa8Solidity/\\xe6\\x95\\xb0\\xe6\\x8d\\xae\\xe7\\xb1\\xbb\\xe5\\x9e\\x8b/mapping.sol\":955:959  user */\n      dup4\n        /* \"Level0/Task02\\xe4\\xba\\x86\\xe8\\xa7\\xa3\\xe5\\xa6\\x82\\xe4\\xbd\\x95\\xe4\\xbd\\xbf\\xe7\\x94\\xa8Solidity/\\xe6\\x95\\xb0\\xe6\\x8d\\xae\\xe7\\xb1\\xbb\\xe5\\x9e\\x8b/mapping.sol\":946:960  balances[user] */\n      0xffffffffffffffffffffffffffffffffffffffff\n      and\n      0xffffffffffffffffffffffffffffffffffffffff\n      and\n      dup2\n      mstore\n      0x20\n      add\n      swap1\n      dup2\n      mstore\n      0x20\n      add\n      0x00\n      keccak256\n      sload\n        /* \"Level0/Task02\\xe4\\xba\\x86\\xe8\\xa7\\xa3\\xe5\\xa6\\x82\\xe4\\xbd\\x95\\xe4\\xbd\\xbf\\xe7\\x94\\xa8Solidity/\\xe6\\x95\\xb0\\xe6\\x8d\\xae\\xe7\\xb1\\xbb\\xe5\\x9e\\x8b/mapping.sol\":939:960  return balances[user] */\n      swap1\n      pop\n        /* \"Level0/Task02\\xe4\\xba\\x86\\xe8\\xa7\\xa3\\xe5\\xa6\\x82\\xe4\\xbd\\x95\\xe4\\xbd\\xbf\\xe7\\x94\\xa8Solidity/\\xe6\\x95\\xb0\\xe6\\x8d\\xae\\xe7\\xb1\\xbb\\xe5\\x9e\\x8b/mapping.sol\":867:968  function getBalance(address user) public view returns (uint) {... */\n      swap2\n      swap1\n      pop\n      jump\t// out\n        /* \"#utility.yul\":88:205   */\n    tag_131:\n        /* \"#utility.yul\":197:198   */\n      0x00\n        /* \"#utility.yul\":194:195   */\n      dup1\n        /* \"#utility.yul\":187:199   */\n      revert\n        /* \"#utility.yul\":334:460   */\n    tag_133:\n        /* \"#utility.yul\":371:378   */\n      0x00\n        /* \"#utility.yul\":411:453   */\n      0xffffffffffffffffffffffffffffffffffffffff\n        /* \"#utility.yul\":404:409   */\n      dup3\n        /* \"#utility.yul\":400:454   */\n      and\n        /* \"#utility.yul\":389:454   */\n      swap1\n      pop\n        /* \"#utility.yul\":334:460   */\n      swap2\n      swap1\n      pop\n      jump\t// out\n        /* \"#utility.yul\":466:562   */\n    tag_134:\n        /* \"#utility.yul\":503:510   */\n      0x00\n        /* \"#utility.yul\":532:556   */\n      tag_166\n        /* \"#utility.yul\":550:555   */\n      dup3\n        /* \"#utility.yul\":532:556   */\n      tag_133\n      jump\t// in\n    tag_166:\n        /* \"#utility.yul\":521:556   */\n      swap1\n      pop\n        /* \"#utility.yul\":466:562   */\n      swap2\n      swap1\n      pop\n      jump\t// out\n        /* \"#utility.yul\":568:690   */\n    tag_135:\n        /* \"#utility.yul\":641:665   */\n      tag_168\n        /* \"#utility.yul\":659:664   */\n      dup2\n        /* \"#utility.yul\":641:665   */\n      tag_134\n      jump\t// in\n    tag_168:\n        /* \"#utility.yul\":634:639   */\n      dup2\n        /* \"#utility.yul\":631:666   */\n      eq\n        /* \"#utility.yul\":621:684   */\n      tag_169\n      jumpi\n        /* \"#utility.yul\":680:681   */\n      0x00\n        /* \"#utility.yul\":677:678   */\n      dup1\n        /* \"#utility.yul\":670:682   */\n      revert\n        /* \"#utility.yul\":621:684   */\n    tag_169:\n        /* \"#utility.yul\":568:690   */\n      pop\n      jump\t// out\n        /* \"#utility.yul\":696:835   */\n    tag_136:\n        /* \"#utility.yul\":742:747   */\n      0x00\n        /* \"#utility.yul\":780:786   */\n      dup2\n        /* \"#utility.yul\":767:787   */\n      calldataload\n        /* \"#utility.yul\":758:787   */\n      swap1\n      pop\n        /* \"#utility.yul\":796:829   */\n      tag_171\n        /* \"#utility.yul\":823:828   */\n      dup2\n        /* \"#utility.yul\":796:829   */\n      tag_135\n      jump\t// in\n    tag_171:\n        /* \"#utility.yul\":696:835   */\n      swap3\n      swap2\n      pop\n      pop\n      jump\t// out\n        /* \"#utility.yul\":841:918   */\n    tag_137:\n        /* \"#utility.yul\":878:885   */\n      0x00\n        /* \"#utility.yul\":907:912   */\n      dup2\n        /* \"#utility.yul\":896:912   */\n      swap1\n      pop\n        /* \"#utility.yul\":841:918   */\n      swap2\n      swap1\n      pop\n      jump\t// out\n        /* \"#utility.yul\":924:1046   */\n    tag_138:\n        /* \"#utility.yul\":997:1021   */\n      tag_174\n        /* \"#utility.yul\":1015:1020   */\n      dup2\n        /* \"#utility.yul\":997:1021   */\n      tag_137\n      jump\t// in\n    tag_174:\n        /* \"#utility.yul\":990:995   */\n      dup2\n        /* \"#utility.yul\":987:1022   */\n      eq\n        /* \"#utility.yul\":977:1040   */\n      tag_175\n      jumpi\n        /* \"#utility.yul\":1036:1037   */\n      0x00\n        /* \"#utility.yul\":1033:1034   */\n      dup1\n        /* \"#utility.yul\":1026:1038   */\n      revert\n        /* \"#utility.yul\":977:1040   */\n    tag_175:\n        /* \"#utility.yul\":924:1046   */\n      pop\n      jump\t// out\n        /* \"#utility.yul\":1052:1191   */\n    tag_139:\n        /* \"#utility.yul\":1098:1103   */\n      0x00\n        /* \"#utility.yul\":1136:1142   */\n      dup2\n        /* \"#utility.yul\":1123:1143   */\n      calldataload\n        /* \"#utility.yul\":1114:1143   */\n      swap1\n      pop\n        /* \"#utility.yul\":1152:1185   */\n      tag_177\n        /* \"#utility.yul\":1179:1184   */\n      dup2\n        /* \"#utility.yul\":1152:1185   */\n      tag_138\n      jump\t// in\n    tag_177:\n        /* \"#utility.yul\":1052:1191   */\n      swap3\n      swap2\n      pop\n      pop\n      jump\t// out\n        /* \"#utility.yul\":1197:1671   */\n    tag_15:\n        /* \"#utility.yul\":1265:1271   */\n      0x00\n        /* \"#utility.yul\":1273:1279   */\n      dup1\n        /* \"#utility.yul\":1322:1324   */\n      0x40\n        /* \"#utility.yul\":1310:1319   */\n      dup4\n        /* \"#utility.yul\":1301:1308   */\n      dup6\n        /* \"#utility.yul\":1297:1320   */\n      sub\n        /* \"#utility.yul\":1293:1325   */\n      slt\n        /* \"#utility.yul\":1290:1409   */\n      iszero\n      tag_179\n      jumpi\n        /* \"#utility.yul\":1328:1407   */\n      tag_180\n      tag_131\n      jump\t// in\n    tag_180:\n        /* \"#utility.yul\":1290:1409   */\n    tag_179:\n        /* \"#utility.yul\":1448:1449   */\n      0x00\n        /* \"#utility.yul\":1473:1526   */\n      tag_181\n        /* \"#utility.yul\":1518:1525   */\n      dup6\n        /* \"#utility.yul\":1509:1515   */\n      dup3\n        /* \"#utility.yul\":1498:1507   */\n      dup7\n        /* \"#utility.yul\":1494:1516   */\n      add\n        /* \"#utility.yul\":1473:1526   */\n      tag_136\n      jump\t// in\n    tag_181:\n        /* \"#utility.yul\":1463:1526   */\n      swap3\n      pop\n        /* \"#utility.yul\":1419:1536   */\n      pop\n        /* \"#utility.yul\":1575:1577   */\n      0x20\n        /* \"#utility.yul\":1601:1654   */\n      tag_182\n        /* \"#utility.yul\":1646:1653   */\n      dup6\n        /* \"#utility.yul\":1637:1643   */\n      dup3\n        /* \"#utility.yul\":1626:1635   */\n      dup7\n        /* \"#utility.yul\":1622:1644   */\n      add\n        /* \"#utility.yul\":1601:1654   */\n      tag_139\n      jump\t// in\n    tag_182:\n        /* \"#utility.yul\":1591:1654   */\n      swap2\n      pop\n        /* \"#utility.yul\":1546:1664   */\n      pop\n        /* \"#utility.yul\":1197:1671   */\n      swap3\n      pop\n      swap3\n      swap1\n      pop\n      jump\t// out\n        /* \"#utility.yul\":1677:1795   */\n    tag_140:\n        /* \"#utility.yul\":1764:1788   */\n      tag_184\n        /* \"#utility.yul\":1782:1787   */\n      dup2\n        /* \"#utility.yul\":1764:1788   */\n      tag_137\n      jump\t// in\n    tag_184:\n        /* \"#utility.yul\":1759:1762   */\n      dup3\n        /* \"#utility.yul\":1752:1789   */\n      mstore\n        /* \"#utility.yul\":1677:1795   */\n      pop\n      pop\n      jump\t// out\n        /* \"#utility.yul\":1801:2023   */\n    tag_18:\n        /* \"#utility.yul\":1894:1898   */\n      0x00\n        /* \"#utility.yul\":1932:1934   */\n      0x20\n        /* \"#utility.yul\":1921:1930   */\n      dup3\n        /* \"#utility.yul\":1917:1935   */\n      add\n        /* \"#utility.yul\":1909:1935   */\n      swap1\n      pop\n        /* \"#utility.yul\":1945:2016   */\n      tag_186\n        /* \"#utility.yul\":2013:2014   */\n      0x00\n        /* \"#utility.yul\":2002:2011   */\n      dup4\n        /* \"#utility.yul\":1998:2015   */\n      add\n        /* \"#utility.yul\":1989:1995   */\n      dup5\n        /* \"#utility.yul\":1945:2016   */\n      tag_140\n      jump\t// in\n    tag_186:\n        /* \"#utility.yul\":1801:2023   */\n      swap3\n      swap2\n      pop\n      pop\n      jump\t// out\n        /* \"#utility.yul\":2029:2358   */\n    tag_22:\n        /* \"#utility.yul\":2088:2094   */\n      0x00\n        /* \"#utility.yul\":2137:2139   */\n      0x20\n        /* \"#utility.yul\":2125:2134   */\n      dup3\n        /* \"#utility.yul\":2116:2123   */\n      dup5\n        /* \"#utility.yul\":2112:2135   */\n      sub\n        /* \"#utility.yul\":2108:2140   */\n      slt\n        /* \"#utility.yul\":2105:2224   */\n      iszero\n      tag_188\n      jumpi\n        /* \"#utility.yul\":2143:2222   */\n      tag_189\n      tag_131\n      jump\t// in\n    tag_189:\n        /* \"#utility.yul\":2105:2224   */\n    tag_188:\n        /* \"#utility.yul\":2263:2264   */\n      0x00\n        /* \"#utility.yul\":2288:2341   */\n      tag_190\n        /* \"#utility.yul\":2333:2340   */\n      dup5\n        /* \"#utility.yul\":2324:2330   */\n      dup3\n        /* \"#utility.yul\":2313:2322   */\n      dup6\n        /* \"#utility.yul\":2309:2331   */\n      add\n        /* \"#utility.yul\":2288:2341   */\n      tag_136\n      jump\t// in\n    tag_190:\n        /* \"#utility.yul\":2278:2341   */\n      swap2\n      pop\n        /* \"#utility.yul\":2234:2351   */\n      pop\n        /* \"#utility.yul\":2029:2358   */\n      swap3\n      swap2\n      pop\n      pop\n      jump\t// out\n        /* \"#utility.yul\":2364:2693   */\n    tag_28:\n        /* \"#utility.yul\":2423:2429   */\n      0x00\n        /* \"#utility.yul\":2472:2474   */\n      0x20\n        /* \"#utility.yul\":2460:2469   */\n      dup3\n        /* \"#utility.yul\":2451:2458   */\n      dup5\n        /* \"#utility.yul\":2447:2470   */\n      sub\n        /* \"#utility.yul\":2443:2475   */\n      slt\n        /* \"#utility.yul\":2440:2559   */\n      iszero\n      tag_192\n      jumpi\n        /* \"#utility.yul\":2478:2557   */\n      tag_193\n      tag_131\n      jump\t// in\n    tag_193:\n        /* \"#utility.yul\":2440:2559   */\n    tag_192:\n        /* \"#utility.yul\":2598:2599   */\n      0x00\n        /* \"#utility.yul\":2623:2676   */\n      tag_194\n        /* \"#utility.yul\":2668:2675   */\n      dup5\n        /* \"#utility.yul\":2659:2665   */\n      dup3\n        /* \"#utility.yul\":2648:2657   */\n      dup6\n        /* \"#utility.yul\":2644:2666   */\n      add\n        /* \"#utility.yul\":2623:2676   */\n      tag_139\n      jump\t// in\n    tag_194:\n        /* \"#utility.yul\":2613:2676   */\n      swap2\n      pop\n        /* \"#utility.yul\":2569:2686   */\n      pop\n        /* \"#utility.yul\":2364:2693   */\n      swap3\n      swap2\n      pop\n      pop\n      jump\t// out\n        /* \"#utility.yul\":2699:2817   */\n    tag_141:\n        /* \"#utility.yul\":2786:2810   */\n      tag_196\n        /* \"#utility.yul\":2804:2809   */\n      dup2\n        /* \"#utility.yul\":2786:2810   */\n      tag_134\n      jump\t// in\n    tag_196:\n        /* \"#utility.yul\":2781:2784   */\n      dup3\n        /* \"#utility.yul\":2774:2811   */\n      mstore\n        /* \"#utility.yul\":2699:2817   */\n      pop\n      pop\n      jump\t// out\n        /* \"#utility.yul\":2823:3045   */\n    tag_31:\n        /* \"#utility.yul\":2916:2920   */\n      0x00\n        /* \"#utility.yul\":2954:2956   */\n      0x20\n        /* \"#utility.yul\":2943:2952   */\n      dup3\n        /* \"#utility.yul\":2939:2957   */\n      add\n        /* \"#utility.yul\":2931:2957   */\n      swap1\n      pop\n        /* \"#utility.yul\":2967:3038   */\n      tag_198\n        /* \"#utility.yul\":3035:3036   */\n      0x00\n        /* \"#utility.yul\":3024:3033   */\n      dup4\n        /* \"#utility.yul\":3020:3037   */\n      add\n        /* \"#utility.yul\":3011:3017   */\n      dup5\n        /* \"#utility.yul\":2967:3038   */\n      tag_141\n      jump\t// in\n    tag_198:\n        /* \"#utility.yul\":2823:3045   */\n      swap3\n      swap2\n      pop\n      pop\n      jump\t// out\n        /* \"#utility.yul\":3051:3165   */\n    tag_142:\n        /* \"#utility.yul\":3118:3124   */\n      0x00\n        /* \"#utility.yul\":3152:3157   */\n      dup2\n        /* \"#utility.yul\":3146:3158   */\n      mload\n        /* \"#utility.yul\":3136:3158   */\n      swap1\n      pop\n        /* \"#utility.yul\":3051:3165   */\n      swap2\n      swap1\n      pop\n      jump\t// out\n        /* \"#utility.yul\":3171:3355   */\n    tag_143:\n        /* \"#utility.yul\":3270:3281   */\n      0x00\n        /* \"#utility.yul\":3304:3310   */\n      dup3\n        /* \"#utility.yul\":3299:3302   */\n      dup3\n        /* \"#utility.yul\":3292:3311   */\n      mstore\n        /* \"#utility.yul\":3344:3348   */\n      0x20\n        /* \"#utility.yul\":3339:3342   */\n      dup3\n        /* \"#utility.yul\":3335:3349   */\n      add\n        /* \"#utility.yul\":3320:3349   */\n      swap1\n      pop\n        /* \"#utility.yul\":3171:3355   */\n      swap3\n      swap2\n      pop\n      pop\n      jump\t// out\n        /* \"#utility.yul\":3361:3493   */\n    tag_144:\n        /* \"#utility.yul\":3428:3432   */\n      0x00\n        /* \"#utility.yul\":3451:3454   */\n      dup2\n        /* \"#utility.yul\":3443:3454   */\n      swap1\n      pop\n        /* \"#utility.yul\":3481:3485   */\n      0x20\n        /* \"#utility.yul\":3476:3479   */\n      dup3\n        /* \"#utility.yul\":3472:3486   */\n      add\n        /* \"#utility.yul\":3464:3486   */\n      swap1\n      pop\n        /* \"#utility.yul\":3361:3493   */\n      swap2\n      swap1\n      pop\n      jump\t// out\n        /* \"#utility.yul\":3499:3607   */\n    tag_145:\n        /* \"#utility.yul\":3576:3600   */\n      tag_203\n        /* \"#utility.yul\":3594:3599   */\n      dup2\n        /* \"#utility.yul\":3576:3600   */\n      tag_134\n      jump\t// in\n    tag_203:\n        /* \"#utility.yul\":3571:3574   */\n      dup3\n        /* \"#utility.yul\":3564:3601   */\n      mstore\n        /* \"#utility.yul\":3499:3607   */\n      pop\n      pop\n      jump\t// out\n        /* \"#utility.yul\":3613:3792   */\n    tag_146:\n        /* \"#utility.yul\":3682:3692   */\n      0x00\n        /* \"#utility.yul\":3703:3749   */\n      tag_205\n        /* \"#utility.yul\":3745:3748   */\n      dup4\n        /* \"#utility.yul\":3737:3743   */\n      dup4\n        /* \"#utility.yul\":3703:3749   */\n      tag_145\n      jump\t// in\n    tag_205:\n        /* \"#utility.yul\":3781:3785   */\n      0x20\n        /* \"#utility.yul\":3776:3779   */\n      dup4\n        /* \"#utility.yul\":3772:3786   */\n      add\n        /* \"#utility.yul\":3758:3786   */\n      swap1\n      pop\n        /* \"#utility.yul\":3613:3792   */\n      swap3\n      swap2\n      pop\n      pop\n      jump\t// out\n        /* \"#utility.yul\":3798:3911   */\n    tag_147:\n        /* \"#utility.yul\":3868:3872   */\n      0x00\n        /* \"#utility.yul\":3900:3904   */\n      0x20\n        /* \"#utility.yul\":3895:3898   */\n      dup3\n        /* \"#utility.yul\":3891:3905   */\n      add\n        /* \"#utility.yul\":3883:3905   */\n      swap1\n      pop\n        /* \"#utility.yul\":3798:3911   */\n      swap2\n      swap1\n      pop\n      jump\t// out\n        /* \"#utility.yul\":3947:4679   */\n    tag_148:\n        /* \"#utility.yul\":4066:4069   */\n      0x00\n        /* \"#utility.yul\":4095:4149   */\n      tag_208\n        /* \"#utility.yul\":4143:4148   */\n      dup3\n        /* \"#utility.yul\":4095:4149   */\n      tag_142\n      jump\t// in\n    tag_208:\n        /* \"#utility.yul\":4165:4251   */\n      tag_209\n        /* \"#utility.yul\":4244:4250   */\n      dup2\n        /* \"#utility.yul\":4239:4242   */\n      dup6\n        /* \"#utility.yul\":4165:4251   */\n      tag_143\n      jump\t// in\n    tag_209:\n        /* \"#utility.yul\":4158:4251   */\n      swap4\n      pop\n        /* \"#utility.yul\":4275:4331   */\n      tag_210\n        /* \"#utility.yul\":4325:4330   */\n      dup4\n        /* \"#utility.yul\":4275:4331   */\n      tag_144\n      jump\t// in\n    tag_210:\n        /* \"#utility.yul\":4354:4361   */\n      dup1\n        /* \"#utility.yul\":4385:4386   */\n      0x00\n        /* \"#utility.yul\":4370:4654   */\n    tag_211:\n        /* \"#utility.yul\":4395:4401   */\n      dup4\n        /* \"#utility.yul\":4392:4393   */\n      dup2\n        /* \"#utility.yul\":4389:4402   */\n      lt\n        /* \"#utility.yul\":4370:4654   */\n      iszero\n      tag_213\n      jumpi\n        /* \"#utility.yul\":4471:4477   */\n      dup2\n        /* \"#utility.yul\":4465:4478   */\n      mload\n        /* \"#utility.yul\":4498:4561   */\n      tag_214\n        /* \"#utility.yul\":4557:4560   */\n      dup9\n        /* \"#utility.yul\":4542:4555   */\n      dup3\n        /* \"#utility.yul\":4498:4561   */\n      tag_146\n      jump\t// in\n    tag_214:\n        /* \"#utility.yul\":4491:4561   */\n      swap8\n      pop\n        /* \"#utility.yul\":4584:4644   */\n      tag_215\n        /* \"#utility.yul\":4637:4643   */\n      dup4\n        /* \"#utility.yul\":4584:4644   */\n      tag_147\n      jump\t// in\n    tag_215:\n        /* \"#utility.yul\":4574:4644   */\n      swap3\n      pop\n        /* \"#utility.yul\":4430:4654   */\n      pop\n        /* \"#utility.yul\":4417:4418   */\n      0x01\n        /* \"#utility.yul\":4414:4415   */\n      dup2\n        /* \"#utility.yul\":4410:4419   */\n      add\n        /* \"#utility.yul\":4405:4419   */\n      swap1\n      pop\n        /* \"#utility.yul\":4370:4654   */\n      jump(tag_211)\n    tag_213:\n        /* \"#utility.yul\":4374:4388   */\n      pop\n        /* \"#utility.yul\":4670:4673   */\n      dup6\n        /* \"#utility.yul\":4663:4673   */\n      swap4\n      pop\n        /* \"#utility.yul\":4071:4679   */\n      pop\n      pop\n      pop\n        /* \"#utility.yul\":3947:4679   */\n      swap3\n      swap2\n      pop\n      pop\n      jump\t// out\n        /* \"#utility.yul\":4685:4799   */\n    tag_149:\n        /* \"#utility.yul\":4752:4758   */\n      0x00\n        /* \"#utility.yul\":4786:4791   */\n      dup2\n        /* \"#utility.yul\":4780:4792   */\n      mload\n        /* \"#utility.yul\":4770:4792   */\n      swap1\n      pop\n        /* \"#utility.yul\":4685:4799   */\n      swap2\n      swap1\n      pop\n      jump\t// out\n        /* \"#utility.yul\":4805:4989   */\n    tag_150:\n        /* \"#utility.yul\":4904:4915   */\n      0x00\n        /* \"#utility.yul\":4938:4944   */\n      dup3\n        /* \"#utility.yul\":4933:4936   */\n      dup3\n        /* \"#utility.yul\":4926:4945   */\n      mstore\n        /* \"#utility.yul\":4978:4982   */\n      0x20\n        /* \"#utility.yul\":4973:4976   */\n      dup3\n        /* \"#utility.yul\":4969:4983   */\n      add\n        /* \"#utility.yul\":4954:4983   */\n      swap1\n      pop\n        /* \"#utility.yul\":4805:4989   */\n      swap3\n      swap2\n      pop\n      pop\n      jump\t// out\n        /* \"#utility.yul\":4995:5127   */\n    tag_151:\n        /* \"#utility.yul\":5062:5066   */\n      0x00\n        /* \"#utility.yul\":5085:5088   */\n      dup2\n        /* \"#utility.yul\":5077:5088   */\n      swap1\n      pop\n        /* \"#utility.yul\":5115:5119   */\n      0x20\n        /* \"#utility.yul\":5110:5113   */\n      dup3\n        /* \"#utility.yul\":5106:5120   */\n      add\n        /* \"#utility.yul\":5098:5120   */\n      swap1\n      pop\n        /* \"#utility.yul\":4995:5127   */\n      swap2\n      swap1\n      pop\n      jump\t// out\n        /* \"#utility.yul\":5133:5241   */\n    tag_152:\n        /* \"#utility.yul\":5210:5234   */\n      tag_220\n        /* \"#utility.yul\":5228:5233   */\n      dup2\n        /* \"#utility.yul\":5210:5234   */\n      tag_137\n      jump\t// in\n    tag_220:\n        /* \"#utility.yul\":5205:5208   */\n      dup3\n        /* \"#utility.yul\":5198:5235   */\n      mstore\n        /* \"#utility.yul\":5133:5241   */\n      pop\n      pop\n      jump\t// out\n        /* \"#utility.yul\":5247:5426   */\n    tag_153:\n        /* \"#utility.yul\":5316:5326   */\n      0x00\n        /* \"#utility.yul\":5337:5383   */\n      tag_222\n        /* \"#utility.yul\":5379:5382   */\n      dup4\n        /* \"#utility.yul\":5371:5377   */\n      dup4\n        /* \"#utility.yul\":5337:5383   */\n      tag_152\n      jump\t// in\n    tag_222:\n        /* \"#utility.yul\":5415:5419   */\n      0x20\n        /* \"#utility.yul\":5410:5413   */\n      dup4\n        /* \"#utility.yul\":5406:5420   */\n      add\n        /* \"#utility.yul\":5392:5420   */\n      swap1\n      pop\n        /* \"#utility.yul\":5247:5426   */\n      swap3\n      swap2\n      pop\n      pop\n      jump\t// out\n        /* \"#utility.yul\":5432:5545   */\n    tag_154:\n        /* \"#utility.yul\":5502:5506   */\n      0x00\n        /* \"#utility.yul\":5534:5538   */\n      0x20\n        /* \"#utility.yul\":5529:5532   */\n      dup3\n        /* \"#utility.yul\":5525:5539   */\n      add\n        /* \"#utility.yul\":5517:5539   */\n      swap1\n      pop\n        /* \"#utility.yul\":5432:5545   */\n      swap2\n      swap1\n      pop\n      jump\t// out\n        /* \"#utility.yul\":5581:6313   */\n    tag_155:\n        /* \"#utility.yul\":5700:5703   */\n      0x00\n        /* \"#utility.yul\":5729:5783   */\n      tag_225\n        /* \"#utility.yul\":5777:5782   */\n      dup3\n        /* \"#utility.yul\":5729:5783   */\n      tag_149\n      jump\t// in\n    tag_225:\n        /* \"#utility.yul\":5799:5885   */\n      tag_226\n        /* \"#utility.yul\":5878:5884   */\n      dup2\n        /* \"#utility.yul\":5873:5876   */\n      dup6\n        /* \"#utility.yul\":5799:5885   */\n      tag_150\n      jump\t// in\n    tag_226:\n        /* \"#utility.yul\":5792:5885   */\n      swap4\n      pop\n        /* \"#utility.yul\":5909:5965   */\n      tag_227\n        /* \"#utility.yul\":5959:5964   */\n      dup4\n        /* \"#utility.yul\":5909:5965   */\n      tag_151\n      jump\t// in\n    tag_227:\n        /* \"#utility.yul\":5988:5995   */\n      dup1\n        /* \"#utility.yul\":6019:6020   */\n      0x00\n        /* \"#utility.yul\":6004:6288   */\n    tag_228:\n        /* \"#utility.yul\":6029:6035   */\n      dup4\n        /* \"#utility.yul\":6026:6027   */\n      dup2\n        /* \"#utility.yul\":6023:6036   */\n      lt\n        /* \"#utility.yul\":6004:6288   */\n      iszero\n      tag_230\n      jumpi\n        /* \"#utility.yul\":6105:6111   */\n      dup2\n        /* \"#utility.yul\":6099:6112   */\n      mload\n        /* \"#utility.yul\":6132:6195   */\n      tag_231\n        /* \"#utility.yul\":6191:6194   */\n      dup9\n        /* \"#utility.yul\":6176:6189   */\n      dup3\n        /* \"#utility.yul\":6132:6195   */\n      tag_153\n      jump\t// in\n    tag_231:\n        /* \"#utility.yul\":6125:6195   */\n      swap8\n      pop\n        /* \"#utility.yul\":6218:6278   */\n      tag_232\n        /* \"#utility.yul\":6271:6277   */\n      dup4\n        /* \"#utility.yul\":6218:6278   */\n      tag_154\n      jump\t// in\n    tag_232:\n        /* \"#utility.yul\":6208:6278   */\n      swap3\n      pop\n        /* \"#utility.yul\":6064:6288   */\n      pop\n        /* \"#utility.yul\":6051:6052   */\n      0x01\n        /* \"#utility.yul\":6048:6049   */\n      dup2\n        /* \"#utility.yul\":6044:6053   */\n      add\n        /* \"#utility.yul\":6039:6053   */\n      swap1\n      pop\n        /* \"#utility.yul\":6004:6288   */\n      jump(tag_228)\n    tag_230:\n        /* \"#utility.yul\":6008:6022   */\n      pop\n        /* \"#utility.yul\":6304:6307   */\n      dup6\n        /* \"#utility.yul\":6297:6307   */\n      swap4\n      pop\n        /* \"#utility.yul\":5705:6313   */\n      pop\n      pop\n      pop\n        /* \"#utility.yul\":5581:6313   */\n      swap3\n      swap2\n      pop\n      pop\n      jump\t// out\n        /* \"#utility.yul\":6319:6953   */\n    tag_40:\n        /* \"#utility.yul\":6540:6544   */\n      0x00\n        /* \"#utility.yul\":6578:6580   */\n      0x40\n        /* \"#utility.yul\":6567:6576   */\n      dup3\n        /* \"#utility.yul\":6563:6581   */\n      add\n        /* \"#utility.yul\":6555:6581   */\n      swap1\n      pop\n        /* \"#utility.yul\":6627:6636   */\n      dup2\n        /* \"#utility.yul\":6621:6625   */\n      dup2\n        /* \"#utility.yul\":6617:6637   */\n      sub\n        /* \"#utility.yul\":6613:6614   */\n      0x00\n        /* \"#utility.yul\":6602:6611   */\n      dup4\n        /* \"#utility.yul\":6598:6615   */\n      add\n        /* \"#utility.yul\":6591:6638   */\n      mstore\n        /* \"#utility.yul\":6655:6763   */\n      tag_234\n        /* \"#utility.yul\":6758:6762   */\n      dup2\n        /* \"#utility.yul\":6749:6755   */\n      dup6\n        /* \"#utility.yul\":6655:6763   */\n      tag_148\n      jump\t// in\n    tag_234:\n        /* \"#utility.yul\":6647:6763   */\n      swap1\n      pop\n        /* \"#utility.yul\":6810:6819   */\n      dup2\n        /* \"#utility.yul\":6804:6808   */\n      dup2\n        /* \"#utility.yul\":6800:6820   */\n      sub\n        /* \"#utility.yul\":6795:6797   */\n      0x20\n        /* \"#utility.yul\":6784:6793   */\n      dup4\n        /* \"#utility.yul\":6780:6798   */\n      add\n        /* \"#utility.yul\":6773:6821   */\n      mstore\n        /* \"#utility.yul\":6838:6946   */\n      tag_235\n        /* \"#utility.yul\":6941:6945   */\n      dup2\n        /* \"#utility.yul\":6932:6938   */\n      dup5\n        /* \"#utility.yul\":6838:6946   */\n      tag_155\n      jump\t// in\n    tag_235:\n        /* \"#utility.yul\":6830:6946   */\n      swap1\n      pop\n        /* \"#utility.yul\":6319:6953   */\n      swap4\n      swap3\n      pop\n      pop\n      pop\n      jump\t// out\n        /* \"#utility.yul\":6959:7332   */\n    tag_53:\n        /* \"#utility.yul\":7102:7106   */\n      0x00\n        /* \"#utility.yul\":7140:7142   */\n      0x20\n        /* \"#utility.yul\":7129:7138   */\n      dup3\n        /* \"#utility.yul\":7125:7143   */\n      add\n        /* \"#utility.yul\":7117:7143   */\n      swap1\n      pop\n        /* \"#utility.yul\":7189:7198   */\n      dup2\n        /* \"#utility.yul\":7183:7187   */\n      dup2\n        /* \"#utility.yul\":7179:7199   */\n      sub\n        /* \"#utility.yul\":7175:7176   */\n      0x00\n        /* \"#utility.yul\":7164:7173   */\n      dup4\n        /* \"#utility.yul\":7160:7177   */\n      add\n        /* \"#utility.yul\":7153:7200   */\n      mstore\n        /* \"#utility.yul\":7217:7325   */\n      tag_237\n        /* \"#utility.yul\":7320:7324   */\n      dup2\n        /* \"#utility.yul\":7311:7317   */\n      dup5\n        /* \"#utility.yul\":7217:7325   */\n      tag_155\n      jump\t// in\n    tag_237:\n        /* \"#utility.yul\":7209:7325   */\n      swap1\n      pop\n        /* \"#utility.yul\":6959:7332   */\n      swap3\n      swap2\n      pop\n      pop\n      jump\t// out\n        /* \"#utility.yul\":7338:7518   */\n    tag_156:\n        /* \"#utility.yul\":7386:7463   */\n      0x4e487b7100000000000000000000000000000000000000000000000000000000\n        /* \"#utility.yul\":7383:7384   */\n      0x00\n        /* \"#utility.yul\":7376:7464   */\n      mstore\n        /* \"#utility.yul\":7483:7487   */\n      0x11\n        /* \"#utility.yul\":7480:7481   */\n      0x04\n        /* \"#utility.yul\":7473:7488   */\n      mstore\n        /* \"#utility.yul\":7507:7511   */\n      0x24\n        /* \"#utility.yul\":7504:7505   */\n      0x00\n        /* \"#utility.yul\":7497:7512   */\n      revert\n        /* \"#utility.yul\":7524:7715   */\n    tag_67:\n        /* \"#utility.yul\":7564:7567   */\n      0x00\n        /* \"#utility.yul\":7583:7603   */\n      tag_240\n        /* \"#utility.yul\":7601:7602   */\n      dup3\n        /* \"#utility.yul\":7583:7603   */\n      tag_137\n      jump\t// in\n    tag_240:\n        /* \"#utility.yul\":7578:7603   */\n      swap2\n      pop\n        /* \"#utility.yul\":7617:7637   */\n      tag_241\n        /* \"#utility.yul\":7635:7636   */\n      dup4\n        /* \"#utility.yul\":7617:7637   */\n      tag_137\n      jump\t// in\n    tag_241:\n        /* \"#utility.yul\":7612:7637   */\n      swap3\n      pop\n        /* \"#utility.yul\":7660:7661   */\n      dup3\n        /* \"#utility.yul\":7657:7658   */\n      dup3\n        /* \"#utility.yul\":7653:7662   */\n      add\n        /* \"#utility.yul\":7646:7662   */\n      swap1\n      pop\n        /* \"#utility.yul\":7681:7684   */\n      dup1\n        /* \"#utility.yul\":7678:7679   */\n      dup3\n        /* \"#utility.yul\":7675:7685   */\n      gt\n        /* \"#utility.yul\":7672:7708   */\n      iszero\n      tag_242\n      jumpi\n        /* \"#utility.yul\":7688:7706   */\n      tag_243\n      tag_156\n      jump\t// in\n    tag_243:\n        /* \"#utility.yul\":7672:7708   */\n    tag_242:\n        /* \"#utility.yul\":7524:7715   */\n      swap3\n      swap2\n      pop\n      pop\n      jump\t// out\n        /* \"#utility.yul\":7721:7901   */\n    tag_72:\n        /* \"#utility.yul\":7769:7846   */\n      0x4e487b7100000000000000000000000000000000000000000000000000000000\n        /* \"#utility.yul\":7766:7767   */\n      0x00\n        /* \"#utility.yul\":7759:7847   */\n      mstore\n        /* \"#utility.yul\":7866:7870   */\n      0x41\n        /* \"#utility.yul\":7863:7864   */\n      0x04\n        /* \"#utility.yul\":7856:7871   */\n      mstore\n        /* \"#utility.yul\":7890:7894   */\n      0x24\n        /* \"#utility.yul\":7887:7888   */\n      0x00\n        /* \"#utility.yul\":7880:7895   */\n      revert\n        /* \"#utility.yul\":7907:8087   */\n    tag_82:\n        /* \"#utility.yul\":7955:8032   */\n      0x4e487b7100000000000000000000000000000000000000000000000000000000\n        /* \"#utility.yul\":7952:7953   */\n      0x00\n        /* \"#utility.yul\":7945:8033   */\n      mstore\n        /* \"#utility.yul\":8052:8056   */\n      0x32\n        /* \"#utility.yul\":8049:8050   */\n      0x04\n        /* \"#utility.yul\":8042:8057   */\n      mstore\n        /* \"#utility.yul\":8076:8080   */\n      0x24\n        /* \"#utility.yul\":8073:8074   */\n      0x00\n        /* \"#utility.yul\":8066:8081   */\n      revert\n        /* \"#utility.yul\":8093:8262   */\n    tag_157:\n        /* \"#utility.yul\":8177:8188   */\n      0x00\n        /* \"#utility.yul\":8211:8217   */\n      dup3\n        /* \"#utility.yul\":8206:8209   */\n      dup3\n        /* \"#utility.yul\":8199:8218   */\n      mstore\n        /* \"#utility.yul\":8251:8255   */\n      0x20\n        /* \"#utility.yul\":8246:8249   */\n      dup3\n        /* \"#utility.yul\":8242:8256   */\n      add\n        /* \"#utility.yul\":8227:8256   */\n      swap1\n      pop\n        /* \"#utility.yul\":8093:8262   */\n      swap3\n      swap2\n      pop\n      pop\n      jump\t// out\n        /* \"#utility.yul\":8268:8492   */\n    tag_158:\n        /* \"#utility.yul\":8408:8442   */\n      0x4465706f73697420616d6f756e74206d75737420626520677265617465722074\n        /* \"#utility.yul\":8404:8405   */\n      0x00\n        /* \"#utility.yul\":8396:8402   */\n      dup3\n        /* \"#utility.yul\":8392:8406   */\n      add\n        /* \"#utility.yul\":8385:8443   */\n      mstore\n        /* \"#utility.yul\":8477:8484   */\n      0x68616e2030000000000000000000000000000000000000000000000000000000\n        /* \"#utility.yul\":8472:8474   */\n      0x20\n        /* \"#utility.yul\":8464:8470   */\n      dup3\n        /* \"#utility.yul\":8460:8475   */\n      add\n        /* \"#utility.yul\":8453:8485   */\n      mstore\n        /* \"#utility.yul\":8268:8492   */\n      pop\n      jump\t// out\n        /* \"#utility.yul\":8498:8864   */\n    tag_159:\n        /* \"#utility.yul\":8640:8643   */\n      0x00\n        /* \"#utility.yul\":8661:8728   */\n      tag_249\n        /* \"#utility.yul\":8725:8727   */\n      0x25\n        /* \"#utility.yul\":8720:8723   */\n      dup4\n        /* \"#utility.yul\":8661:8728   */\n      tag_157\n      jump\t// in\n    tag_249:\n        /* \"#utility.yul\":8654:8728   */\n      swap2\n      pop\n        /* \"#utility.yul\":8737:8830   */\n      tag_250\n        /* \"#utility.yul\":8826:8829   */\n      dup3\n        /* \"#utility.yul\":8737:8830   */\n      tag_158\n      jump\t// in\n    tag_250:\n        /* \"#utility.yul\":8855:8857   */\n      0x40\n        /* \"#utility.yul\":8850:8853   */\n      dup3\n        /* \"#utility.yul\":8846:8858   */\n      add\n        /* \"#utility.yul\":8839:8858   */\n      swap1\n      pop\n        /* \"#utility.yul\":8498:8864   */\n      swap2\n      swap1\n      pop\n      jump\t// out\n        /* \"#utility.yul\":8870:9289   */\n    tag_122:\n        /* \"#utility.yul\":9036:9040   */\n      0x00\n        /* \"#utility.yul\":9074:9076   */\n      0x20\n        /* \"#utility.yul\":9063:9072   */\n      dup3\n        /* \"#utility.yul\":9059:9077   */\n      add\n        /* \"#utility.yul\":9051:9077   */\n      swap1\n      pop\n        /* \"#utility.yul\":9123:9132   */\n      dup2\n        /* \"#utility.yul\":9117:9121   */\n      dup2\n        /* \"#utility.yul\":9113:9133   */\n      sub\n        /* \"#utility.yul\":9109:9110   */\n      0x00\n        /* \"#utility.yul\":9098:9107   */\n      dup4\n        /* \"#utility.yul\":9094:9111   */\n      add\n        /* \"#utility.yul\":9087:9134   */\n      mstore\n        /* \"#utility.yul\":9151:9282   */\n      tag_252\n        /* \"#utility.yul\":9277:9281   */\n      dup2\n        /* \"#utility.yul\":9151:9282   */\n      tag_159\n      jump\t// in\n    tag_252:\n        /* \"#utility.yul\":9143:9282   */\n      swap1\n      pop\n        /* \"#utility.yul\":8870:9289   */\n      swap2\n      swap1\n      pop\n      jump\t// out\n\n    auxdata: 0xa2646970667358221220f23441aa6ada72e76cf20a13101fad9266b032b75d8566991cc993b7491a4b8f64736f6c634300081a0033\n}\n",
				"bytecode": {
					"linkReferences": {},
					"object": "6080604052348015600e575f80fd5b50610eed8061001c5f395ff3fe608060405260043610610085575f3560e01c80636d763a6e116100585780636d763a6e1461016557806376dd110f14610190578063d0e30db0146101cc578063d20cf0e8146101d6578063f8b2cb4f1461021257610085565b8063145381281461008957806327e235e3146100c5578063365b98b21461010157806365d977241461013d575b5f80fd5b348015610094575f80fd5b506100af60048036038101906100aa9190610ab8565b61024e565b6040516100bc9190610b05565b60405180910390f35b3480156100d0575f80fd5b506100eb60048036038101906100e69190610b1e565b610279565b6040516100f89190610b05565b60405180910390f35b34801561010c575f80fd5b5061012760048036038101906101229190610b49565b61028d565b6040516101349190610b83565b60405180910390f35b348015610148575f80fd5b50610163600480360381019061015e9190610ab8565b6102c8565b005b348015610170575f80fd5b5061017961044f565b604051610187929190610d0a565b60405180910390f35b34801561019b575f80fd5b506101b660048036038101906101b19190610b1e565b6107f5565b6040516101c39190610b05565b60405180910390f35b6101d461080a565b005b3480156101e1575f80fd5b506101fc60048036038101906101f79190610b1e565b61094f565b6040516102099190610d3f565b60405180910390f35b34801561021d575f80fd5b5061023860048036038101906102339190610b1e565b6109e2565b6040516102459190610b05565b60405180910390f35b6001602052815f5260405f208181548110610267575f80fd5b905f5260205f20015f91509150505481565b5f602052805f5260405f205f915090505481565b6003818154811061029c575f80fd5b905f5260205f20015f915054906101000a900473ffffffffffffffffffffffffffffffffffffffff1681565b5f60025f8473ffffffffffffffffffffffffffffffffffffffff1673ffffffffffffffffffffffffffffffffffffffff1681526020019081526020015f20540361036d57600382908060018154018082558091505060019003905f5260205f20015f9091909190916101000a81548173ffffffffffffffffffffffffffffffffffffffff021916908373ffffffffffffffffffffffffffffffffffffffff1602179055505b8060025f8473ffffffffffffffffffffffffffffffffffffffff1673ffffffffffffffffffffffffffffffffffffffff1681526020019081526020015f205f8282546103b99190610d8c565b925050819055508173ffffffffffffffffffffffffffffffffffffffff167f66ead48cfe0e1d1aa8bad492e906c348dfcfeecbf3b7b2cdf9b1f3cfa42a294560025f8573ffffffffffffffffffffffffffffffffffffffff1673ffffffffffffffffffffffffffffffffffffffff1681526020019081526020015f20546040516104439190610b05565b60405180910390a25050565b6060805f60038054905090505f8167ffffffffffffffff81111561047657610475610dbf565b5b6040519080825280602002602001820160405280156104a45781602001602082028036833780820191505090505b5090505f8267ffffffffffffffff8111156104c2576104c1610dbf565b5b6040519080825280602002602001820160405280156104f05781602001602082028036833780820191505090505b5090505f5b8381101561062b5760025f6003838154811061051457610513610dec565b5b905f5260205f20015f9054906101000a900473ffffffffffffffffffffffffffffffffffffffff1673ffffffffffffffffffffffffffffffffffffffff1673ffffffffffffffffffffffffffffffffffffffff1681526020019081526020015f205483828151811061058957610588610dec565b5b602002602001018181525050600381815481106105a9576105a8610dec565b5b905f5260205f20015f9054906101000a900473ffffffffffffffffffffffffffffffffffffffff168282815181106105e4576105e3610dec565b5b602002602001019073ffffffffffffffffffffffffffffffffffffffff16908173ffffffffffffffffffffffffffffffffffffffff168152505080806001019150506104f5565b505f5b838110156107e7575f6001826106449190610d8c565b90505b848110156107d95783818151811061066257610661610dec565b5b602002602001015184838151811061067d5761067c610dec565b5b602002602001015110156107cc5783818151811061069e5761069d610dec565b5b60200260200101518483815181106106b9576106b8610dec565b5b60200260200101518584815181106106d4576106d3610dec565b5b602002602001018684815181106106ee576106ed610dec565b5b602002602001018281525082815250505082818151811061071257610711610dec565b5b602002602001015183838151811061072d5761072c610dec565b5b602002602001015184848151811061074857610747610dec565b5b6020026020010185848151811061076257610761610dec565b5b602002602001018273ffffffffffffffffffffffffffffffffffffffff1673ffffffffffffffffffffffffffffffffffffffff168152508273ffffffffffffffffffffffffffffffffffffffff1673ffffffffffffffffffffffffffffffffffffffff1681525050505b8080600101915050610647565b50808060010191505061062e565b508082945094505050509091565b6002602052805f5260405f205f915090505481565b5f341161084c576040517f08c379a000000000000000000000000000000000000000000000000000000000815260040161084390610e99565b60405180910390fd5b345f803373ffffffffffffffffffffffffffffffffffffffff1673ffffffffffffffffffffffffffffffffffffffff1681526020019081526020015f205f8282546108979190610d8c565b9250508190555060015f3373ffffffffffffffffffffffffffffffffffffffff1673ffffffffffffffffffffffffffffffffffffffff1681526020019081526020015f2034908060018154018082558091505060019003905f5260205f20015f90919091909150553373ffffffffffffffffffffffffffffffffffffffff167f2da466a7b24304f47e87fa2e1e5a81b9831ce54fec19055ce277ca2f39ba42c4346040516109459190610b05565b60405180910390a2565b606060015f8373ffffffffffffffffffffffffffffffffffffffff1673ffffffffffffffffffffffffffffffffffffffff1681526020019081526020015f208054806020026020016040519081016040528092919081815260200182805480156109d657602002820191905f5260205f20905b8154815260200190600101908083116109c2575b50505050509050919050565b5f805f8373ffffffffffffffffffffffffffffffffffffffff1673ffffffffffffffffffffffffffffffffffffffff1681526020019081526020015f20549050919050565b5f80fd5b5f73ffffffffffffffffffffffffffffffffffffffff82169050919050565b5f610a5482610a2b565b9050919050565b610a6481610a4a565b8114610a6e575f80fd5b50565b5f81359050610a7f81610a5b565b92915050565b5f819050919050565b610a9781610a85565b8114610aa1575f80fd5b50565b5f81359050610ab281610a8e565b92915050565b5f8060408385031215610ace57610acd610a27565b5b5f610adb85828601610a71565b9250506020610aec85828601610aa4565b9150509250929050565b610aff81610a85565b82525050565b5f602082019050610b185f830184610af6565b92915050565b5f60208284031215610b3357610b32610a27565b5b5f610b4084828501610a71565b91505092915050565b5f60208284031215610b5e57610b5d610a27565b5b5f610b6b84828501610aa4565b91505092915050565b610b7d81610a4a565b82525050565b5f602082019050610b965f830184610b74565b92915050565b5f81519050919050565b5f82825260208201905092915050565b5f819050602082019050919050565b610bce81610a4a565b82525050565b5f610bdf8383610bc5565b60208301905092915050565b5f602082019050919050565b5f610c0182610b9c565b610c0b8185610ba6565b9350610c1683610bb6565b805f5b83811015610c46578151610c2d8882610bd4565b9750610c3883610beb565b925050600181019050610c19565b5085935050505092915050565b5f81519050919050565b5f82825260208201905092915050565b5f819050602082019050919050565b610c8581610a85565b82525050565b5f610c968383610c7c565b60208301905092915050565b5f602082019050919050565b5f610cb882610c53565b610cc28185610c5d565b9350610ccd83610c6d565b805f5b83811015610cfd578151610ce48882610c8b565b9750610cef83610ca2565b925050600181019050610cd0565b5085935050505092915050565b5f6040820190508181035f830152610d228185610bf7565b90508181036020830152610d368184610cae565b90509392505050565b5f6020820190508181035f830152610d578184610cae565b905092915050565b7f4e487b71000000000000000000000000000000000000000000000000000000005f52601160045260245ffd5b5f610d9682610a85565b9150610da183610a85565b9250828201905080821115610db957610db8610d5f565b5b92915050565b7f4e487b71000000000000000000000000000000000000000000000000000000005f52604160045260245ffd5b7f4e487b71000000000000000000000000000000000000000000000000000000005f52603260045260245ffd5b5f82825260208201905092915050565b7f4465706f73697420616d6f756e74206d757374206265206772656174657220745f8201527f68616e2030000000000000000000000000000000000000000000000000000000602082015250565b5f610e83602583610e19565b9150610e8e82610e29565b604082019050919050565b5f6020820190508181035f830152610eb081610e77565b905091905056fea2646970667358221220f23441aa6ada72e76cf20a13101fad9266b032b75d8566991cc993b7491a4b8f64736f6c634300081a0033",
					"opcodes": "PUSH1 0x80 PUSH1 0x40 MSTORE CALLVALUE DUP1 ISZERO PUSH1 0xE JUMPI PUSH0 DUP1 REVERT JUMPDEST POP PUSH2 0xEED DUP1 PUSH2 0x1C PUSH0 CODECOPY PUSH0 RETURN INVALID PUSH1 0x80 PUSH1 0x40 MSTORE PUSH1 0x4 CALLDATASIZE LT PUSH2 0x85 JUMPI PUSH0 CALLDATALOAD PUSH1 0xE0 SHR DUP1 PUSH4 0x6D763A6E GT PUSH2 0x58 JUMPI DUP1 PUSH4 0x6D763A6E EQ PUSH2 0x165 JUMPI DUP1 PUSH4 0x76DD110F EQ PUSH2 0x190 JUMPI DUP1 PUSH4 0xD0E30DB0 EQ PUSH2 0x1CC JUMPI DUP1 PUSH4 0xD20CF0E8 EQ PUSH2 0x1D6 JUMPI DUP1 PUSH4 0xF8B2CB4F EQ PUSH2 0x212 JUMPI PUSH2 0x85 JUMP JUMPDEST DUP1 PUSH4 0x14538128 EQ PUSH2 0x89 JUMPI DUP1 PUSH4 0x27E235E3 EQ PUSH2 0xC5 JUMPI DUP1 PUSH4 0x365B98B2 EQ PUSH2 0x101 JUMPI DUP1 PUSH4 0x65D97724 EQ PUSH2 0x13D JUMPI JUMPDEST PUSH0 DUP1 REVERT JUMPDEST CALLVALUE DUP1 ISZERO PUSH2 0x94 JUMPI PUSH0 DUP1 REVERT JUMPDEST POP PUSH2 0xAF PUSH1 0x4 DUP1 CALLDATASIZE SUB DUP2 ADD SWAP1 PUSH2 0xAA SWAP2 SWAP1 PUSH2 0xAB8 JUMP JUMPDEST PUSH2 0x24E JUMP JUMPDEST PUSH1 0x40 MLOAD PUSH2 0xBC SWAP2 SWAP1 PUSH2 0xB05 JUMP JUMPDEST PUSH1 0x40 MLOAD DUP1 SWAP2 SUB SWAP1 RETURN JUMPDEST CALLVALUE DUP1 ISZERO PUSH2 0xD0 JUMPI PUSH0 DUP1 REVERT JUMPDEST POP PUSH2 0xEB PUSH1 0x4 DUP1 CALLDATASIZE SUB DUP2 ADD SWAP1 PUSH2 0xE6 SWAP2 SWAP1 PUSH2 0xB1E JUMP JUMPDEST PUSH2 0x279 JUMP JUMPDEST PUSH1 0x40 MLOAD PUSH2 0xF8 SWAP2 SWAP1 PUSH2 0xB05 JUMP JUMPDEST PUSH1 0x40 MLOAD DUP1 SWAP2 SUB SWAP1 RETURN JUMPDEST CALLVALUE DUP1 ISZERO PUSH2 0x10C JUMPI PUSH0 DUP1 REVERT JUMPDEST POP PUSH2 0x127 PUSH1 0x4 DUP1 CALLDATASIZE SUB DUP2 ADD SWAP1 PUSH2 0x122 SWAP2 SWAP1 PUSH2 0xB49 JUMP JUMPDEST PUSH2 0x28D JUMP JUMPDEST PUSH1 0x40 MLOAD PUSH2 0x134 SWAP2 SWAP1 PUSH2 0xB83 JUMP JUMPDEST PUSH1 0x40 MLOAD DUP1 SWAP2 SUB SWAP1 RETURN JUMPDEST CALLVALUE DUP1 ISZERO PUSH2 0x148 JUMPI PUSH0 DUP1 REVERT JUMPDEST POP PUSH2 0x163 PUSH1 0x4 DUP1 CALLDATASIZE SUB DUP2 ADD SWAP1 PUSH2 0x15E SWAP2 SWAP1 PUSH2 0xAB8 JUMP JUMPDEST PUSH2 0x2C8 JUMP JUMPDEST STOP JUMPDEST CALLVALUE DUP1 ISZERO PUSH2 0x170 JUMPI PUSH0 DUP1 REVERT JUMPDEST POP PUSH2 0x179 PUSH2 0x44F JUMP JUMPDEST PUSH1 0x40 MLOAD PUSH2 0x187 SWAP3 SWAP2 SWAP1 PUSH2 0xD0A JUMP JUMPDEST PUSH1 0x40 MLOAD DUP1 SWAP2 SUB SWAP1 RETURN JUMPDEST CALLVALUE DUP1 ISZERO PUSH2 0x19B JUMPI PUSH0 DUP1 REVERT JUMPDEST POP PUSH2 0x1B6 PUSH1 0x4 DUP1 CALLDATASIZE SUB DUP2 ADD SWAP1 PUSH2 0x1B1 SWAP2 SWAP1 PUSH2 0xB1E JUMP JUMPDEST PUSH2 0x7F5 JUMP JUMPDEST PUSH1 0x40 MLOAD PUSH2 0x1C3 SWAP2 SWAP1 PUSH2 0xB05 JUMP JUMPDEST PUSH1 0x40 MLOAD DUP1 SWAP2 SUB SWAP1 RETURN JUMPDEST PUSH2 0x1D4 PUSH2 0x80A JUMP JUMPDEST STOP JUMPDEST CALLVALUE DUP1 ISZERO PUSH2 0x1E1 JUMPI PUSH0 DUP1 REVERT JUMPDEST POP PUSH2 0x1FC PUSH1 0x4 DUP1 CALLDATASIZE SUB DUP2 ADD SWAP1 PUSH2 0x1F7 SWAP2 SWAP1 PUSH2 0xB1E JUMP JUMPDEST PUSH2 0x94F JUMP JUMPDEST PUSH1 0x40 MLOAD PUSH2 0x209 SWAP2 SWAP1 PUSH2 0xD3F JUMP JUMPDEST PUSH1 0x40 MLOAD DUP1 SWAP2 SUB SWAP1 RETURN JUMPDEST CALLVALUE DUP1 ISZERO PUSH2 0x21D JUMPI PUSH0 DUP1 REVERT JUMPDEST POP PUSH2 0x238 PUSH1 0x4 DUP1 CALLDATASIZE SUB DUP2 ADD SWAP1 PUSH2 0x233 SWAP2 SWAP1 PUSH2 0xB1E JUMP JUMPDEST PUSH2 0x9E2 JUMP JUMPDEST PUSH1 0x40 MLOAD PUSH2 0x245 SWAP2 SWAP1 PUSH2 0xB05 JUMP JUMPDEST PUSH1 0x40 MLOAD DUP1 SWAP2 SUB SWAP1 RETURN JUMPDEST PUSH1 0x1 PUSH1 0x20 MSTORE DUP2 PUSH0 MSTORE PUSH1 0x40 PUSH0 KECCAK256 DUP2 DUP2 SLOAD DUP2 LT PUSH2 0x267 JUMPI PUSH0 DUP1 REVERT JUMPDEST SWAP1 PUSH0 MSTORE PUSH1 0x20 PUSH0 KECCAK256 ADD PUSH0 SWAP2 POP SWAP2 POP POP SLOAD DUP2 JUMP JUMPDEST PUSH0 PUSH1 0x20 MSTORE DUP1 PUSH0 MSTORE PUSH1 0x40 PUSH0 KECCAK256 PUSH0 SWAP2 POP SWAP1 POP SLOAD DUP2 JUMP JUMPDEST PUSH1 0x3 DUP2 DUP2 SLOAD DUP2 LT PUSH2 0x29C JUMPI PUSH0 DUP1 REVERT JUMPDEST SWAP1 PUSH0 MSTORE PUSH1 0x20 PUSH0 KECCAK256 ADD PUSH0 SWAP2 POP SLOAD SWAP1 PUSH2 0x100 EXP SWAP1 DIV PUSH20 0xFFFFFFFFFFFFFFFFFFFFFFFFFFFFFFFFFFFFFFFF AND DUP2 JUMP JUMPDEST PUSH0 PUSH1 0x2 PUSH0 DUP5 PUSH20 0xFFFFFFFFFFFFFFFFFFFFFFFFFFFFFFFFFFFFFFFF AND PUSH20 0xFFFFFFFFFFFFFFFFFFFFFFFFFFFFFFFFFFFFFFFF AND DUP2 MSTORE PUSH1 0x20 ADD SWAP1 DUP2 MSTORE PUSH1 0x20 ADD PUSH0 KECCAK256 SLOAD SUB PUSH2 0x36D JUMPI PUSH1 0x3 DUP3 SWAP1 DUP1 PUSH1 0x1 DUP2 SLOAD ADD DUP1 DUP3 SSTORE DUP1 SWAP2 POP POP PUSH1 0x1 SWAP1 SUB SWAP1 PUSH0 MSTORE PUSH1 0x20 PUSH0 KECCAK256 ADD PUSH0 SWAP1 SWAP2 SWAP1 SWAP2 SWAP1 SWAP2 PUSH2 0x100 EXP DUP2 SLOAD DUP2 PUSH20 0xFFFFFFFFFFFFFFFFFFFFFFFFFFFFFFFFFFFFFFFF MUL NOT AND SWAP1 DUP4 PUSH20 0xFFFFFFFFFFFFFFFFFFFFFFFFFFFFFFFFFFFFFFFF AND MUL OR SWAP1 SSTORE POP JUMPDEST DUP1 PUSH1 0x2 PUSH0 DUP5 PUSH20 0xFFFFFFFFFFFFFFFFFFFFFFFFFFFFFFFFFFFFFFFF AND PUSH20 0xFFFFFFFFFFFFFFFFFFFFFFFFFFFFFFFFFFFFFFFF AND DUP2 MSTORE PUSH1 0x20 ADD SWAP1 DUP2 MSTORE PUSH1 0x20 ADD PUSH0 KECCAK256 PUSH0 DUP3 DUP3 SLOAD PUSH2 0x3B9 SWAP2 SWAP1 PUSH2 0xD8C JUMP JUMPDEST SWAP3 POP POP DUP2 SWAP1 SSTORE POP DUP2 PUSH20 0xFFFFFFFFFFFFFFFFFFFFFFFFFFFFFFFFFFFFFFFF AND PUSH32 0x66EAD48CFE0E1D1AA8BAD492E906C348DFCFEECBF3B7B2CDF9B1F3CFA42A2945 PUSH1 0x2 PUSH0 DUP6 PUSH20 0xFFFFFFFFFFFFFFFFFFFFFFFFFFFFFFFFFFFFFFFF AND PUSH20 0xFFFFFFFFFFFFFFFFFFFFFFFFFFFFFFFFFFFFFFFF AND DUP2 MSTORE PUSH1 0x20 ADD SWAP1 DUP2 MSTORE PUSH1 0x20 ADD PUSH0 KECCAK256 SLOAD PUSH1 0x40 MLOAD PUSH2 0x443 SWAP2 SWAP1 PUSH2 0xB05 JUMP JUMPDEST PUSH1 0x40 MLOAD DUP1 SWAP2 SUB SWAP1 LOG2 POP POP JUMP JUMPDEST PUSH1 0x60 DUP1 PUSH0 PUSH1 0x3 DUP1 SLOAD SWAP1 POP SWAP1 POP PUSH0 DUP2 PUSH8 0xFFFFFFFFFFFFFFFF DUP2 GT ISZERO PUSH2 0x476 JUMPI PUSH2 0x475 PUSH2 0xDBF JUMP JUMPDEST JUMPDEST PUSH1 0x40 MLOAD SWAP1 DUP1 DUP3 MSTORE DUP1 PUSH1 0x20 MUL PUSH1 0x20 ADD DUP3 ADD PUSH1 0x40 MSTORE DUP1 ISZERO PUSH2 0x4A4 JUMPI DUP2 PUSH1 0x20 ADD PUSH1 0x20 DUP3 MUL DUP1 CALLDATASIZE DUP4 CALLDATACOPY DUP1 DUP3 ADD SWAP2 POP POP SWAP1 POP JUMPDEST POP SWAP1 POP PUSH0 DUP3 PUSH8 0xFFFFFFFFFFFFFFFF DUP2 GT ISZERO PUSH2 0x4C2 JUMPI PUSH2 0x4C1 PUSH2 0xDBF JUMP JUMPDEST JUMPDEST PUSH1 0x40 MLOAD SWAP1 DUP1 DUP3 MSTORE DUP1 PUSH1 0x20 MUL PUSH1 0x20 ADD DUP3 ADD PUSH1 0x40 MSTORE DUP1 ISZERO PUSH2 0x4F0 JUMPI DUP2 PUSH1 0x20 ADD PUSH1 0x20 DUP3 MUL DUP1 CALLDATASIZE DUP4 CALLDATACOPY DUP1 DUP3 ADD SWAP2 POP POP SWAP1 POP JUMPDEST POP SWAP1 POP PUSH0 JUMPDEST DUP4 DUP2 LT ISZERO PUSH2 0x62B JUMPI PUSH1 0x2 PUSH0 PUSH1 0x3 DUP4 DUP2 SLOAD DUP2 LT PUSH2 0x514 JUMPI PUSH2 0x513 PUSH2 0xDEC JUMP JUMPDEST JUMPDEST SWAP1 PUSH0 MSTORE PUSH1 0x20 PUSH0 KECCAK256 ADD PUSH0 SWAP1 SLOAD SWAP1 PUSH2 0x100 EXP SWAP1 DIV PUSH20 0xFFFFFFFFFFFFFFFFFFFFFFFFFFFFFFFFFFFFFFFF AND PUSH20 0xFFFFFFFFFFFFFFFFFFFFFFFFFFFFFFFFFFFFFFFF AND PUSH20 0xFFFFFFFFFFFFFFFFFFFFFFFFFFFFFFFFFFFFFFFF AND DUP2 MSTORE PUSH1 0x20 ADD SWAP1 DUP2 MSTORE PUSH1 0x20 ADD PUSH0 KECCAK256 SLOAD DUP4 DUP3 DUP2 MLOAD DUP2 LT PUSH2 0x589 JUMPI PUSH2 0x588 PUSH2 0xDEC JUMP JUMPDEST JUMPDEST PUSH1 0x20 MUL PUSH1 0x20 ADD ADD DUP2 DUP2 MSTORE POP POP PUSH1 0x3 DUP2 DUP2 SLOAD DUP2 LT PUSH2 0x5A9 JUMPI PUSH2 0x5A8 PUSH2 0xDEC JUMP JUMPDEST JUMPDEST SWAP1 PUSH0 MSTORE PUSH1 0x20 PUSH0 KECCAK256 ADD PUSH0 SWAP1 SLOAD SWAP1 PUSH2 0x100 EXP SWAP1 DIV PUSH20 0xFFFFFFFFFFFFFFFFFFFFFFFFFFFFFFFFFFFFFFFF AND DUP3 DUP3 DUP2 MLOAD DUP2 LT PUSH2 0x5E4 JUMPI PUSH2 0x5E3 PUSH2 0xDEC JUMP JUMPDEST JUMPDEST PUSH1 0x20 MUL PUSH1 0x20 ADD ADD SWAP1 PUSH20 0xFFFFFFFFFFFFFFFFFFFFFFFFFFFFFFFFFFFFFFFF AND SWAP1 DUP2 PUSH20 0xFFFFFFFFFFFFFFFFFFFFFFFFFFFFFFFFFFFFFFFF AND DUP2 MSTORE POP POP DUP1 DUP1 PUSH1 0x1 ADD SWAP2 POP POP PUSH2 0x4F5 JUMP JUMPDEST POP PUSH0 JUMPDEST DUP4 DUP2 LT ISZERO PUSH2 0x7E7 JUMPI PUSH0 PUSH1 0x1 DUP3 PUSH2 0x644 SWAP2 SWAP1 PUSH2 0xD8C JUMP JUMPDEST SWAP1 POP JUMPDEST DUP5 DUP2 LT ISZERO PUSH2 0x7D9 JUMPI DUP4 DUP2 DUP2 MLOAD DUP2 LT PUSH2 0x662 JUMPI PUSH2 0x661 PUSH2 0xDEC JUMP JUMPDEST JUMPDEST PUSH1 0x20 MUL PUSH1 0x20 ADD ADD MLOAD DUP5 DUP4 DUP2 MLOAD DUP2 LT PUSH2 0x67D JUMPI PUSH2 0x67C PUSH2 0xDEC JUMP JUMPDEST JUMPDEST PUSH1 0x20 MUL PUSH1 0x20 ADD ADD MLOAD LT ISZERO PUSH2 0x7CC JUMPI DUP4 DUP2 DUP2 MLOAD DUP2 LT PUSH2 0x69E JUMPI PUSH2 0x69D PUSH2 0xDEC JUMP JUMPDEST JUMPDEST PUSH1 0x20 MUL PUSH1 0x20 ADD ADD MLOAD DUP5 DUP4 DUP2 MLOAD DUP2 LT PUSH2 0x6B9 JUMPI PUSH2 0x6B8 PUSH2 0xDEC JUMP JUMPDEST JUMPDEST PUSH1 0x20 MUL PUSH1 0x20 ADD ADD MLOAD DUP6 DUP5 DUP2 MLOAD DUP2 LT PUSH2 0x6D4 JUMPI PUSH2 0x6D3 PUSH2 0xDEC JUMP JUMPDEST JUMPDEST PUSH1 0x20 MUL PUSH1 0x20 ADD ADD DUP7 DUP5 DUP2 MLOAD DUP2 LT PUSH2 0x6EE JUMPI PUSH2 0x6ED PUSH2 0xDEC JUMP JUMPDEST JUMPDEST PUSH1 0x20 MUL PUSH1 0x20 ADD ADD DUP3 DUP2 MSTORE POP DUP3 DUP2 MSTORE POP POP POP DUP3 DUP2 DUP2 MLOAD DUP2 LT PUSH2 0x712 JUMPI PUSH2 0x711 PUSH2 0xDEC JUMP JUMPDEST JUMPDEST PUSH1 0x20 MUL PUSH1 0x20 ADD ADD MLOAD DUP4 DUP4 DUP2 MLOAD DUP2 LT PUSH2 0x72D JUMPI PUSH2 0x72C PUSH2 0xDEC JUMP JUMPDEST JUMPDEST PUSH1 0x20 MUL PUSH1 0x20 ADD ADD MLOAD DUP5 DUP5 DUP2 MLOAD DUP2 LT PUSH2 0x748 JUMPI PUSH2 0x747 PUSH2 0xDEC JUMP JUMPDEST JUMPDEST PUSH1 0x20 MUL PUSH1 0x20 ADD ADD DUP6 DUP5 DUP2 MLOAD DUP2 LT PUSH2 0x762 JUMPI PUSH2 0x761 PUSH2 0xDEC JUMP JUMPDEST JUMPDEST PUSH1 0x20 MUL PUSH1 0x20 ADD ADD DUP3 PUSH20 0xFFFFFFFFFFFFFFFFFFFFFFFFFFFFFFFFFFFFFFFF AND PUSH20 0xFFFFFFFFFFFFFFFFFFFFFFFFFFFFFFFFFFFFFFFF AND DUP2 MSTORE POP DUP3 PUSH20 0xFFFFFFFFFFFFFFFFFFFFFFFFFFFFFFFFFFFFFFFF AND PUSH20 0xFFFFFFFFFFFFFFFFFFFFFFFFFFFFFFFFFFFFFFFF AND DUP2 MSTORE POP POP POP JUMPDEST DUP1 DUP1 PUSH1 0x1 ADD SWAP2 POP POP PUSH2 0x647 JUMP JUMPDEST POP DUP1 DUP1 PUSH1 0x1 ADD SWAP2 POP POP PUSH2 0x62E JUMP JUMPDEST POP DUP1 DUP3 SWAP5 POP SWAP5 POP POP POP POP SWAP1 SWAP2 JUMP JUMPDEST PUSH1 0x2 PUSH1 0x20 MSTORE DUP1 PUSH0 MSTORE PUSH1 0x40 PUSH0 KECCAK256 PUSH0 SWAP2 POP SWAP1 POP SLOAD DUP2 JUMP JUMPDEST PUSH0 CALLVALUE GT PUSH2 0x84C JUMPI PUSH1 0x40 MLOAD PUSH32 0x8C379A000000000000000000000000000000000000000000000000000000000 DUP2 MSTORE PUSH1 0x4 ADD PUSH2 0x843 SWAP1 PUSH2 0xE99 JUMP JUMPDEST PUSH1 0x40 MLOAD DUP1 SWAP2 SUB SWAP1 REVERT JUMPDEST CALLVALUE PUSH0 DUP1 CALLER PUSH20 0xFFFFFFFFFFFFFFFFFFFFFFFFFFFFFFFFFFFFFFFF AND PUSH20 0xFFFFFFFFFFFFFFFFFFFFFFFFFFFFFFFFFFFFFFFF AND DUP2 MSTORE PUSH1 0x20 ADD SWAP1 DUP2 MSTORE PUSH1 0x20 ADD PUSH0 KECCAK256 PUSH0 DUP3 DUP3 SLOAD PUSH2 0x897 SWAP2 SWAP1 PUSH2 0xD8C JUMP JUMPDEST SWAP3 POP POP DUP2 SWAP1 SSTORE POP PUSH1 0x1 PUSH0 CALLER PUSH20 0xFFFFFFFFFFFFFFFFFFFFFFFFFFFFFFFFFFFFFFFF AND PUSH20 0xFFFFFFFFFFFFFFFFFFFFFFFFFFFFFFFFFFFFFFFF AND DUP2 MSTORE PUSH1 0x20 ADD SWAP1 DUP2 MSTORE PUSH1 0x20 ADD PUSH0 KECCAK256 CALLVALUE SWAP1 DUP1 PUSH1 0x1 DUP2 SLOAD ADD DUP1 DUP3 SSTORE DUP1 SWAP2 POP POP PUSH1 0x1 SWAP1 SUB SWAP1 PUSH0 MSTORE PUSH1 0x20 PUSH0 KECCAK256 ADD PUSH0 SWAP1 SWAP2 SWAP1 SWAP2 SWAP1 SWAP2 POP SSTORE CALLER PUSH20 0xFFFFFFFFFFFFFFFFFFFFFFFFFFFFFFFFFFFFFFFF AND PUSH32 0x2DA466A7B24304F47E87FA2E1E5A81B9831CE54FEC19055CE277CA2F39BA42C4 CALLVALUE PUSH1 0x40 MLOAD PUSH2 0x945 SWAP2 SWAP1 PUSH2 0xB05 JUMP JUMPDEST PUSH1 0x40 MLOAD DUP1 SWAP2 SUB SWAP1 LOG2 JUMP JUMPDEST PUSH1 0x60 PUSH1 0x1 PUSH0 DUP4 PUSH20 0xFFFFFFFFFFFFFFFFFFFFFFFFFFFFFFFFFFFFFFFF AND PUSH20 0xFFFFFFFFFFFFFFFFFFFFFFFFFFFFFFFFFFFFFFFF AND DUP2 MSTORE PUSH1 0x20 ADD SWAP1 DUP2 MSTORE PUSH1 0x20 ADD PUSH0 KECCAK256 DUP1 SLOAD DUP1 PUSH1 0x20 MUL PUSH1 0x20 ADD PUSH1 0x40 MLOAD SWAP1 DUP2 ADD PUSH1 0x40 MSTORE DUP1 SWAP3 SWAP2 SWAP1 DUP2 DUP2 MSTORE PUSH1 0x20 ADD DUP3 DUP1 SLOAD DUP1 ISZERO PUSH2 0x9D6 JUMPI PUSH1 0x20 MUL DUP3 ADD SWAP2 SWAP1 PUSH0 MSTORE PUSH1 0x20 PUSH0 KECCAK256 SWAP1 JUMPDEST DUP2 SLOAD DUP2 MSTORE PUSH1 0x20 ADD SWAP1 PUSH1 0x1 ADD SWAP1 DUP1 DUP4 GT PUSH2 0x9C2 JUMPI JUMPDEST POP POP POP POP POP SWAP1 POP SWAP2 SWAP1 POP JUMP JUMPDEST PUSH0 DUP1 PUSH0 DUP4 PUSH20 0xFFFFFFFFFFFFFFFFFFFFFFFFFFFFFFFFFFFFFFFF AND PUSH20 0xFFFFFFFFFFFFFFFFFFFFFFFFFFFFFFFFFFFFFFFF AND DUP2 MSTORE PUSH1 0x20 ADD SWAP1 DUP2 MSTORE PUSH1 0x20 ADD PUSH0 KECCAK256 SLOAD SWAP1 POP SWAP2 SWAP1 POP JUMP JUMPDEST PUSH0 DUP1 REVERT JUMPDEST PUSH0 PUSH20 0xFFFFFFFFFFFFFFFFFFFFFFFFFFFFFFFFFFFFFFFF DUP3 AND SWAP1 POP SWAP2 SWAP1 POP JUMP JUMPDEST PUSH0 PUSH2 0xA54 DUP3 PUSH2 0xA2B JUMP JUMPDEST SWAP1 POP SWAP2 SWAP1 POP JUMP JUMPDEST PUSH2 0xA64 DUP2 PUSH2 0xA4A JUMP JUMPDEST DUP2 EQ PUSH2 0xA6E JUMPI PUSH0 DUP1 REVERT JUMPDEST POP JUMP JUMPDEST PUSH0 DUP2 CALLDATALOAD SWAP1 POP PUSH2 0xA7F DUP2 PUSH2 0xA5B JUMP JUMPDEST SWAP3 SWAP2 POP POP JUMP JUMPDEST PUSH0 DUP2 SWAP1 POP SWAP2 SWAP1 POP JUMP JUMPDEST PUSH2 0xA97 DUP2 PUSH2 0xA85 JUMP JUMPDEST DUP2 EQ PUSH2 0xAA1 JUMPI PUSH0 DUP1 REVERT JUMPDEST POP JUMP JUMPDEST PUSH0 DUP2 CALLDATALOAD SWAP1 POP PUSH2 0xAB2 DUP2 PUSH2 0xA8E JUMP JUMPDEST SWAP3 SWAP2 POP POP JUMP JUMPDEST PUSH0 DUP1 PUSH1 0x40 DUP4 DUP6 SUB SLT ISZERO PUSH2 0xACE JUMPI PUSH2 0xACD PUSH2 0xA27 JUMP JUMPDEST JUMPDEST PUSH0 PUSH2 0xADB DUP6 DUP3 DUP7 ADD PUSH2 0xA71 JUMP JUMPDEST SWAP3 POP POP PUSH1 0x20 PUSH2 0xAEC DUP6 DUP3 DUP7 ADD PUSH2 0xAA4 JUMP JUMPDEST SWAP2 POP POP SWAP3 POP SWAP3 SWAP1 POP JUMP JUMPDEST PUSH2 0xAFF DUP2 PUSH2 0xA85 JUMP JUMPDEST DUP3 MSTORE POP POP JUMP JUMPDEST PUSH0 PUSH1 0x20 DUP3 ADD SWAP1 POP PUSH2 0xB18 PUSH0 DUP4 ADD DUP5 PUSH2 0xAF6 JUMP JUMPDEST SWAP3 SWAP2 POP POP JUMP JUMPDEST PUSH0 PUSH1 0x20 DUP3 DUP5 SUB SLT ISZERO PUSH2 0xB33 JUMPI PUSH2 0xB32 PUSH2 0xA27 JUMP JUMPDEST JUMPDEST PUSH0 PUSH2 0xB40 DUP5 DUP3 DUP6 ADD PUSH2 0xA71 JUMP JUMPDEST SWAP2 POP POP SWAP3 SWAP2 POP POP JUMP JUMPDEST PUSH0 PUSH1 0x20 DUP3 DUP5 SUB SLT ISZERO PUSH2 0xB5E JUMPI PUSH2 0xB5D PUSH2 0xA27 JUMP JUMPDEST JUMPDEST PUSH0 PUSH2 0xB6B DUP5 DUP3 DUP6 ADD PUSH2 0xAA4 JUMP JUMPDEST SWAP2 POP POP SWAP3 SWAP2 POP POP JUMP JUMPDEST PUSH2 0xB7D DUP2 PUSH2 0xA4A JUMP JUMPDEST DUP3 MSTORE POP POP JUMP JUMPDEST PUSH0 PUSH1 0x20 DUP3 ADD SWAP1 POP PUSH2 0xB96 PUSH0 DUP4 ADD DUP5 PUSH2 0xB74 JUMP JUMPDEST SWAP3 SWAP2 POP POP JUMP JUMPDEST PUSH0 DUP2 MLOAD SWAP1 POP SWAP2 SWAP1 POP JUMP JUMPDEST PUSH0 DUP3 DUP3 MSTORE PUSH1 0x20 DUP3 ADD SWAP1 POP SWAP3 SWAP2 POP POP JUMP JUMPDEST PUSH0 DUP2 SWAP1 POP PUSH1 0x20 DUP3 ADD SWAP1 POP SWAP2 SWAP1 POP JUMP JUMPDEST PUSH2 0xBCE DUP2 PUSH2 0xA4A JUMP JUMPDEST DUP3 MSTORE POP POP JUMP JUMPDEST PUSH0 PUSH2 0xBDF DUP4 DUP4 PUSH2 0xBC5 JUMP JUMPDEST PUSH1 0x20 DUP4 ADD SWAP1 POP SWAP3 SWAP2 POP POP JUMP JUMPDEST PUSH0 PUSH1 0x20 DUP3 ADD SWAP1 POP SWAP2 SWAP1 POP JUMP JUMPDEST PUSH0 PUSH2 0xC01 DUP3 PUSH2 0xB9C JUMP JUMPDEST PUSH2 0xC0B DUP2 DUP6 PUSH2 0xBA6 JUMP JUMPDEST SWAP4 POP PUSH2 0xC16 DUP4 PUSH2 0xBB6 JUMP JUMPDEST DUP1 PUSH0 JUMPDEST DUP4 DUP2 LT ISZERO PUSH2 0xC46 JUMPI DUP2 MLOAD PUSH2 0xC2D DUP9 DUP3 PUSH2 0xBD4 JUMP JUMPDEST SWAP8 POP PUSH2 0xC38 DUP4 PUSH2 0xBEB JUMP JUMPDEST SWAP3 POP POP PUSH1 0x1 DUP2 ADD SWAP1 POP PUSH2 0xC19 JUMP JUMPDEST POP DUP6 SWAP4 POP POP POP POP SWAP3 SWAP2 POP POP JUMP JUMPDEST PUSH0 DUP2 MLOAD SWAP1 POP SWAP2 SWAP1 POP JUMP JUMPDEST PUSH0 DUP3 DUP3 MSTORE PUSH1 0x20 DUP3 ADD SWAP1 POP SWAP3 SWAP2 POP POP JUMP JUMPDEST PUSH0 DUP2 SWAP1 POP PUSH1 0x20 DUP3 ADD SWAP1 POP SWAP2 SWAP1 POP JUMP JUMPDEST PUSH2 0xC85 DUP2 PUSH2 0xA85 JUMP JUMPDEST DUP3 MSTORE POP POP JUMP JUMPDEST PUSH0 PUSH2 0xC96 DUP4 DUP4 PUSH2 0xC7C JUMP JUMPDEST PUSH1 0x20 DUP4 ADD SWAP1 POP SWAP3 SWAP2 POP POP JUMP JUMPDEST PUSH0 PUSH1 0x20 DUP3 ADD SWAP1 POP SWAP2 SWAP1 POP JUMP JUMPDEST PUSH0 PUSH2 0xCB8 DUP3 PUSH2 0xC53 JUMP JUMPDEST PUSH2 0xCC2 DUP2 DUP6 PUSH2 0xC5D JUMP JUMPDEST SWAP4 POP PUSH2 0xCCD DUP4 PUSH2 0xC6D JUMP JUMPDEST DUP1 PUSH0 JUMPDEST DUP4 DUP2 LT ISZERO PUSH2 0xCFD JUMPI DUP2 MLOAD PUSH2 0xCE4 DUP9 DUP3 PUSH2 0xC8B JUMP JUMPDEST SWAP8 POP PUSH2 0xCEF DUP4 PUSH2 0xCA2 JUMP JUMPDEST SWAP3 POP POP PUSH1 0x1 DUP2 ADD SWAP1 POP PUSH2 0xCD0 JUMP JUMPDEST POP DUP6 SWAP4 POP POP POP POP SWAP3 SWAP2 POP POP JUMP JUMPDEST PUSH0 PUSH1 0x40 DUP3 ADD SWAP1 POP DUP2 DUP2 SUB PUSH0 DUP4 ADD MSTORE PUSH2 0xD22 DUP2 DUP6 PUSH2 0xBF7 JUMP JUMPDEST SWAP1 POP DUP2 DUP2 SUB PUSH1 0x20 DUP4 ADD MSTORE PUSH2 0xD36 DUP2 DUP5 PUSH2 0xCAE JUMP JUMPDEST SWAP1 POP SWAP4 SWAP3 POP POP POP JUMP JUMPDEST PUSH0 PUSH1 0x20 DUP3 ADD SWAP1 POP DUP2 DUP2 SUB PUSH0 DUP4 ADD MSTORE PUSH2 0xD57 DUP2 DUP5 PUSH2 0xCAE JUMP JUMPDEST SWAP1 POP SWAP3 SWAP2 POP POP JUMP JUMPDEST PUSH32 0x4E487B7100000000000000000000000000000000000000000000000000000000 PUSH0 MSTORE PUSH1 0x11 PUSH1 0x4 MSTORE PUSH1 0x24 PUSH0 REVERT JUMPDEST PUSH0 PUSH2 0xD96 DUP3 PUSH2 0xA85 JUMP JUMPDEST SWAP2 POP PUSH2 0xDA1 DUP4 PUSH2 0xA85 JUMP JUMPDEST SWAP3 POP DUP3 DUP3 ADD SWAP1 POP DUP1 DUP3 GT ISZERO PUSH2 0xDB9 JUMPI PUSH2 0xDB8 PUSH2 0xD5F JUMP JUMPDEST JUMPDEST SWAP3 SWAP2 POP POP JUMP JUMPDEST PUSH32 0x4E487B7100000000000000000000000000000000000000000000000000000000 PUSH0 MSTORE PUSH1 0x41 PUSH1 0x4 MSTORE PUSH1 0x24 PUSH0 REVERT JUMPDEST PUSH32 0x4E487B7100000000000000000000000000000000000000000000000000000000 PUSH0 MSTORE PUSH1 0x32 PUSH1 0x4 MSTORE PUSH1 0x24 PUSH0 REVERT JUMPDEST PUSH0 DUP3 DUP3 MSTORE PUSH1 0x20 DUP3 ADD SWAP1 POP SWAP3 SWAP2 POP POP JUMP JUMPDEST PUSH32 0x4465706F73697420616D6F756E74206D75737420626520677265617465722074 PUSH0 DUP3 ADD MSTORE PUSH32 0x68616E2030000000000000000000000000000000000000000000000000000000 PUSH1 0x20 DUP3 ADD MSTORE POP JUMP JUMPDEST PUSH0 PUSH2 0xE83 PUSH1 0x25 DUP4 PUSH2 0xE19 JUMP JUMPDEST SWAP2 POP PUSH2 0xE8E DUP3 PUSH2 0xE29 JUMP JUMPDEST PUSH1 0x40 DUP3 ADD SWAP1 POP SWAP2 SWAP1 POP JUMP JUMPDEST PUSH0 PUSH1 0x20 DUP3 ADD SWAP1 POP DUP2 DUP2 SUB PUSH0 DUP4 ADD MSTORE PUSH2 0xEB0 DUP2 PUSH2 0xE77 JUMP JUMPDEST SWAP1 POP SWAP2 SWAP1 POP JUMP INVALID LOG2 PUSH5 0x6970667358 0x22 SLT KECCAK256 CALLCODE CALLVALUE COINBASE 0xAA PUSH11 0xDA72E76CF20A13101FAD92 PUSH7 0xB032B75D856699 SHR 0xC9 SWAP4 0xB7 BLOBHASH BYTE 0x4B DUP16 PUSH5 0x736F6C6343 STOP ADDMOD BYTE STOP CALLER "
				},
				"gasEstimates": {
					"creation": {
						"codeDepositCost": "764200",
						"executionCost": "797",
						"totalCost": "764997"
					},
					"external": {
						"balances(address)": "2824",
						"deposit()": "infinite",
						"getBalance(address)": "2917",
						"getLeaderboard()": "infinite",
						"getTransactionHistory(address)": "infinite",
						"scores(address)": "2824",
						"transactions(address,uint256)": "infinite",
						"updateScore(address,uint256)": "infinite",
						"users(uint256)": "4989"
					}
				},
				"methodIdentifiers": {
					"balances(address)": "27e235e3",
					"deposit()": "d0e30db0",
					"getBalance(address)": "f8b2cb4f",
					"getLeaderboard()": "6d763a6e",
					"getTransactionHistory(address)": "d20cf0e8",
					"scores(address)": "76dd110f",
					"transactions(address,uint256)": "14538128",
					"updateScore(address,uint256)": "65d97724",
					"users(uint256)": "365b98b2"
				}
			},
			"storageLayout": {
				"storage": [
					{
						"astId": 5,
						"contract": "Level0/Task02了解如何使用Solidity/数据类型/mapping.sol:UserBalanceAndLeaderboard",
						"label": "balances",
						"offset": 0,
						"slot": "0",
						"type": "t_mapping(t_address,t_uint256)"
					},
					{
						"astId": 10,
						"contract": "Level0/Task02了解如何使用Solidity/数据类型/mapping.sol:UserBalanceAndLeaderboard",
						"label": "transactions",
						"offset": 0,
						"slot": "1",
						"type": "t_mapping(t_address,t_array(t_uint256)dyn_storage)"
					},
					{
						"astId": 14,
						"contract": "Level0/Task02了解如何使用Solidity/数据类型/mapping.sol:UserBalanceAndLeaderboard",
						"label": "scores",
						"offset": 0,
						"slot": "2",
						"type": "t_mapping(t_address,t_uint256)"
					},
					{
						"astId": 17,
						"contract": "Level0/Task02了解如何使用Solidity/数据类型/mapping.sol:UserBalanceAndLeaderboard",
						"label": "users",
						"offset": 0,
						"slot": "3",
						"type": "t_array(t_address)dyn_storage"
					}
				],
				"types": {
					"t_address": {
						"encoding": "inplace",
						"label": "address",
						"numberOfBytes": "20"
					},
					"t_array(t_address)dyn_storage": {
						"base": "t_address",
						"encoding": "dynamic_array",
						"label": "address[]",
						"numberOfBytes": "32"
					},
					"t_array(t_uint256)dyn_storage": {
						"base": "t_uint256",
						"encoding": "dynamic_array",
						"label": "uint256[]",
						"numberOfBytes": "32"
					},
					"t_mapping(t_address,t_array(t_uint256)dyn_storage)": {
						"encoding": "mapping",
						"key": "t_address",
						"label": "mapping(address => uint256[])",
						"numberOfBytes": "32",
						"value": "t_array(t_uint256)dyn_storage"
					},
					"t_mapping(t_address,t_uint256)": {
						"encoding": "mapping",
						"key": "t_address",
						"label": "mapping(address => uint256)",
						"numberOfBytes": "32",
						"value": "t_uint256"
					},
					"t_uint256": {
						"encoding": "inplace",
						"label": "uint256",
						"numberOfBytes": "32"
					}
				}
			},
			"userdoc": {
				"kind": "user",
				"methods": {},
				"version": 1
			}
		}
	}
}