{
	"Level0/Task02了解如何使用Solidity/数据类型/struct.sol": {
		"StructExample": {
			"abi": [
				{
					"inputs": [
						{
							"internalType": "string",
							"name": "_name",
							"type": "string"
						},
						{
							"internalType": "uint256",
							"name": "_price",
							"type": "uint256"
						},
						{
							"internalType": "uint256",
							"name": "_stock",
							"type": "uint256"
						}
					],
					"name": "addProduct",
					"outputs": [],
					"stateMutability": "nonpayable",
					"type": "function"
				},
				{
					"inputs": [
						{
							"internalType": "uint256",
							"name": "_productId",
							"type": "uint256"
						}
					],
					"name": "getProduct",
					"outputs": [
						{
							"internalType": "string",
							"name": "",
							"type": "string"
						},
						{
							"internalType": "uint256",
							"name": "",
							"type": "uint256"
						},
						{
							"internalType": "uint256",
							"name": "",
							"type": "uint256"
						}
					],
					"stateMutability": "view",
					"type": "function"
				},
				{
					"inputs": [],
					"name": "productCount",
					"outputs": [
						{
							"internalType": "uint256",
							"name": "",
							"type": "uint256"
						}
					],
					"stateMutability": "view",
					"type": "function"
				},
				{
					"inputs": [
						{
							"internalType": "uint256",
							"name": "",
							"type": "uint256"
						}
					],
					"name": "products",
					"outputs": [
						{
							"internalType": "uint256",
							"name": "id",
							"type": "uint256"
						},
						{
							"internalType": "string",
							"name": "name",
							"type": "string"
						},
						{
							"internalType": "uint256",
							"name": "price",
							"type": "uint256"
						},
						{
							"internalType": "uint256",
							"name": "stock",
							"type": "uint256"
						}
					],
					"stateMutability": "view",
					"type": "function"
				},
				{
					"inputs": [
						{
							"internalType": "uint256",
							"name": "_productId",
							"type": "uint256"
						},
						{
							"internalType": "uint256",
							"name": "_newStock",
							"type": "uint256"
						}
					],
					"name": "updateProductStock",
					"outputs": [],
					"stateMutability": "nonpayable",
					"type": "function"
				}
			],
			"devdoc": {
				"kind": "dev",
				"methods": {},
				"version": 1
			},
			"evm": {
				"assembly": "    /* \"Level0/Task02\\xe4\\xba\\x86\\xe8\\xa7\\xa3\\xe5\\xa6\\x82\\xe4\\xbd\\x95\\xe4\\xbd\\xbf\\xe7\\x94\\xa8Solidity/\\xe6\\x95\\xb0\\xe6\\x8d\\xae\\xe7\\xb1\\xbb\\xe5\\x9e\\x8b/struct.sol\":60:862  contract StructExample {... */\n  mstore(0x40, 0x80)\n  callvalue\n  dup1\n  iszero\n  tag_1\n  jumpi\n  0x00\n  dup1\n  revert\ntag_1:\n  pop\n  dataSize(sub_0)\n  dup1\n  dataOffset(sub_0)\n  0x00\n  codecopy\n  0x00\n  return\nstop\n\nsub_0: assembly {\n        /* \"Level0/Task02\\xe4\\xba\\x86\\xe8\\xa7\\xa3\\xe5\\xa6\\x82\\xe4\\xbd\\x95\\xe4\\xbd\\xbf\\xe7\\x94\\xa8Solidity/\\xe6\\x95\\xb0\\xe6\\x8d\\xae\\xe7\\xb1\\xbb\\xe5\\x9e\\x8b/struct.sol\":60:862  contract StructExample {... */\n      mstore(0x40, 0x80)\n      callvalue\n      dup1\n      iszero\n      tag_1\n      jumpi\n      0x00\n      dup1\n      revert\n    tag_1:\n      pop\n      jumpi(tag_2, lt(calldatasize, 0x04))\n      shr(0xe0, calldataload(0x00))\n      dup1\n      0x125b0b34\n      eq\n      tag_3\n      jumpi\n      dup1\n      0x7acc0b20\n      eq\n      tag_4\n      jumpi\n      dup1\n      0xb9db15b4\n      eq\n      tag_5\n      jumpi\n      dup1\n      0xe0f6ef87\n      eq\n      tag_6\n      jumpi\n      dup1\n      0xfd231411\n      eq\n      tag_7\n      jumpi\n    tag_2:\n      0x00\n      dup1\n      revert\n        /* \"Level0/Task02\\xe4\\xba\\x86\\xe8\\xa7\\xa3\\xe5\\xa6\\x82\\xe4\\xbd\\x95\\xe4\\xbd\\xbf\\xe7\\x94\\xa8Solidity/\\xe6\\x95\\xb0\\xe6\\x8d\\xae\\xe7\\xb1\\xbb\\xe5\\x9e\\x8b/struct.sol\":279:466  function addProduct(string memory _name, uint _price, uint _stock) public {... */\n    tag_3:\n      tag_8\n      0x04\n      dup1\n      calldatasize\n      sub\n      dup2\n      add\n      swap1\n      tag_9\n      swap2\n      swap1\n      tag_10\n      jump\t// in\n    tag_9:\n      tag_11\n      jump\t// in\n    tag_8:\n      stop\n        /* \"Level0/Task02\\xe4\\xba\\x86\\xe8\\xa7\\xa3\\xe5\\xa6\\x82\\xe4\\xbd\\x95\\xe4\\xbd\\xbf\\xe7\\x94\\xa8Solidity/\\xe6\\x95\\xb0\\xe6\\x8d\\xae\\xe7\\xb1\\xbb\\xe5\\x9e\\x8b/struct.sol\":201:241  mapping(uint => Product) public products */\n    tag_4:\n      tag_12\n      0x04\n      dup1\n      calldatasize\n      sub\n      dup2\n      add\n      swap1\n      tag_13\n      swap2\n      swap1\n      tag_14\n      jump\t// in\n    tag_13:\n      tag_15\n      jump\t// in\n    tag_12:\n      mload(0x40)\n      tag_16\n      swap5\n      swap4\n      swap3\n      swap2\n      swap1\n      tag_17\n      jump\t// in\n    tag_16:\n      mload(0x40)\n      dup1\n      swap2\n      sub\n      swap1\n      return\n        /* \"Level0/Task02\\xe4\\xba\\x86\\xe8\\xa7\\xa3\\xe5\\xa6\\x82\\xe4\\xbd\\x95\\xe4\\xbd\\xbf\\xe7\\x94\\xa8Solidity/\\xe6\\x95\\xb0\\xe6\\x8d\\xae\\xe7\\xb1\\xbb\\xe5\\x9e\\x8b/struct.sol\":647:859  function getProduct(uint _productId) public view returns (string memory, uint, uint) {... */\n    tag_5:\n      tag_18\n      0x04\n      dup1\n      calldatasize\n      sub\n      dup2\n      add\n      swap1\n      tag_19\n      swap2\n      swap1\n      tag_14\n      jump\t// in\n    tag_19:\n      tag_20\n      jump\t// in\n    tag_18:\n      mload(0x40)\n      tag_21\n      swap4\n      swap3\n      swap2\n      swap1\n      tag_22\n      jump\t// in\n    tag_21:\n      mload(0x40)\n      dup1\n      swap2\n      sub\n      swap1\n      return\n        /* \"Level0/Task02\\xe4\\xba\\x86\\xe8\\xa7\\xa3\\xe5\\xa6\\x82\\xe4\\xbd\\x95\\xe4\\xbd\\xbf\\xe7\\x94\\xa8Solidity/\\xe6\\x95\\xb0\\xe6\\x8d\\xae\\xe7\\xb1\\xbb\\xe5\\x9e\\x8b/struct.sol\":248:272  uint public productCount */\n    tag_6:\n      tag_23\n      tag_24\n      jump\t// in\n    tag_23:\n      mload(0x40)\n      tag_25\n      swap2\n      swap1\n      tag_26\n      jump\t// in\n    tag_25:\n      mload(0x40)\n      dup1\n      swap2\n      sub\n      swap1\n      return\n        /* \"Level0/Task02\\xe4\\xba\\x86\\xe8\\xa7\\xa3\\xe5\\xa6\\x82\\xe4\\xbd\\x95\\xe4\\xbd\\xbf\\xe7\\x94\\xa8Solidity/\\xe6\\x95\\xb0\\xe6\\x8d\\xae\\xe7\\xb1\\xbb\\xe5\\x9e\\x8b/struct.sol\":472:641  function updateProductStock(uint _productId, uint _newStock) public {... */\n    tag_7:\n      tag_27\n      0x04\n      dup1\n      calldatasize\n      sub\n      dup2\n      add\n      swap1\n      tag_28\n      swap2\n      swap1\n      tag_29\n      jump\t// in\n    tag_28:\n      tag_30\n      jump\t// in\n    tag_27:\n      stop\n        /* \"Level0/Task02\\xe4\\xba\\x86\\xe8\\xa7\\xa3\\xe5\\xa6\\x82\\xe4\\xbd\\x95\\xe4\\xbd\\xbf\\xe7\\x94\\xa8Solidity/\\xe6\\x95\\xb0\\xe6\\x8d\\xae\\xe7\\xb1\\xbb\\xe5\\x9e\\x8b/struct.sol\":279:466  function addProduct(string memory _name, uint _price, uint _stock) public {... */\n    tag_11:\n        /* \"Level0/Task02\\xe4\\xba\\x86\\xe8\\xa7\\xa3\\xe5\\xa6\\x82\\xe4\\xbd\\x95\\xe4\\xbd\\xbf\\xe7\\x94\\xa8Solidity/\\xe6\\x95\\xb0\\xe6\\x8d\\xae\\xe7\\xb1\\xbb\\xe5\\x9e\\x8b/struct.sol\":364:376  productCount */\n      0x01\n      0x00\n        /* \"Level0/Task02\\xe4\\xba\\x86\\xe8\\xa7\\xa3\\xe5\\xa6\\x82\\xe4\\xbd\\x95\\xe4\\xbd\\xbf\\xe7\\x94\\xa8Solidity/\\xe6\\x95\\xb0\\xe6\\x8d\\xae\\xe7\\xb1\\xbb\\xe5\\x9e\\x8b/struct.sol\":364:378  productCount++ */\n      dup2\n      sload\n      dup1\n      swap3\n      swap2\n      swap1\n      tag_32\n      swap1\n      tag_33\n      jump\t// in\n    tag_32:\n      swap2\n      swap1\n      pop\n      sstore\n      pop\n        /* \"Level0/Task02\\xe4\\xba\\x86\\xe8\\xa7\\xa3\\xe5\\xa6\\x82\\xe4\\xbd\\x95\\xe4\\xbd\\xbf\\xe7\\x94\\xa8Solidity/\\xe6\\x95\\xb0\\xe6\\x8d\\xae\\xe7\\xb1\\xbb\\xe5\\x9e\\x8b/struct.sol\":414:458  Product(productCount, _name, _price, _stock) */\n      mload(0x40)\n      dup1\n      0x80\n      add\n      0x40\n      mstore\n      dup1\n        /* \"Level0/Task02\\xe4\\xba\\x86\\xe8\\xa7\\xa3\\xe5\\xa6\\x82\\xe4\\xbd\\x95\\xe4\\xbd\\xbf\\xe7\\x94\\xa8Solidity/\\xe6\\x95\\xb0\\xe6\\x8d\\xae\\xe7\\xb1\\xbb\\xe5\\x9e\\x8b/struct.sol\":422:434  productCount */\n      sload(0x01)\n        /* \"Level0/Task02\\xe4\\xba\\x86\\xe8\\xa7\\xa3\\xe5\\xa6\\x82\\xe4\\xbd\\x95\\xe4\\xbd\\xbf\\xe7\\x94\\xa8Solidity/\\xe6\\x95\\xb0\\xe6\\x8d\\xae\\xe7\\xb1\\xbb\\xe5\\x9e\\x8b/struct.sol\":414:458  Product(productCount, _name, _price, _stock) */\n      dup2\n      mstore\n      0x20\n      add\n        /* \"Level0/Task02\\xe4\\xba\\x86\\xe8\\xa7\\xa3\\xe5\\xa6\\x82\\xe4\\xbd\\x95\\xe4\\xbd\\xbf\\xe7\\x94\\xa8Solidity/\\xe6\\x95\\xb0\\xe6\\x8d\\xae\\xe7\\xb1\\xbb\\xe5\\x9e\\x8b/struct.sol\":436:441  _name */\n      dup5\n        /* \"Level0/Task02\\xe4\\xba\\x86\\xe8\\xa7\\xa3\\xe5\\xa6\\x82\\xe4\\xbd\\x95\\xe4\\xbd\\xbf\\xe7\\x94\\xa8Solidity/\\xe6\\x95\\xb0\\xe6\\x8d\\xae\\xe7\\xb1\\xbb\\xe5\\x9e\\x8b/struct.sol\":414:458  Product(productCount, _name, _price, _stock) */\n      dup2\n      mstore\n      0x20\n      add\n        /* \"Level0/Task02\\xe4\\xba\\x86\\xe8\\xa7\\xa3\\xe5\\xa6\\x82\\xe4\\xbd\\x95\\xe4\\xbd\\xbf\\xe7\\x94\\xa8Solidity/\\xe6\\x95\\xb0\\xe6\\x8d\\xae\\xe7\\xb1\\xbb\\xe5\\x9e\\x8b/struct.sol\":443:449  _price */\n      dup4\n        /* \"Level0/Task02\\xe4\\xba\\x86\\xe8\\xa7\\xa3\\xe5\\xa6\\x82\\xe4\\xbd\\x95\\xe4\\xbd\\xbf\\xe7\\x94\\xa8Solidity/\\xe6\\x95\\xb0\\xe6\\x8d\\xae\\xe7\\xb1\\xbb\\xe5\\x9e\\x8b/struct.sol\":414:458  Product(productCount, _name, _price, _stock) */\n      dup2\n      mstore\n      0x20\n      add\n        /* \"Level0/Task02\\xe4\\xba\\x86\\xe8\\xa7\\xa3\\xe5\\xa6\\x82\\xe4\\xbd\\x95\\xe4\\xbd\\xbf\\xe7\\x94\\xa8Solidity/\\xe6\\x95\\xb0\\xe6\\x8d\\xae\\xe7\\xb1\\xbb\\xe5\\x9e\\x8b/struct.sol\":451:457  _stock */\n      dup3\n        /* \"Level0/Task02\\xe4\\xba\\x86\\xe8\\xa7\\xa3\\xe5\\xa6\\x82\\xe4\\xbd\\x95\\xe4\\xbd\\xbf\\xe7\\x94\\xa8Solidity/\\xe6\\x95\\xb0\\xe6\\x8d\\xae\\xe7\\xb1\\xbb\\xe5\\x9e\\x8b/struct.sol\":414:458  Product(productCount, _name, _price, _stock) */\n      dup2\n      mstore\n      pop\n        /* \"Level0/Task02\\xe4\\xba\\x86\\xe8\\xa7\\xa3\\xe5\\xa6\\x82\\xe4\\xbd\\x95\\xe4\\xbd\\xbf\\xe7\\x94\\xa8Solidity/\\xe6\\x95\\xb0\\xe6\\x8d\\xae\\xe7\\xb1\\xbb\\xe5\\x9e\\x8b/struct.sol\":389:397  products */\n      0x00\n        /* \"Level0/Task02\\xe4\\xba\\x86\\xe8\\xa7\\xa3\\xe5\\xa6\\x82\\xe4\\xbd\\x95\\xe4\\xbd\\xbf\\xe7\\x94\\xa8Solidity/\\xe6\\x95\\xb0\\xe6\\x8d\\xae\\xe7\\xb1\\xbb\\xe5\\x9e\\x8b/struct.sol\":389:411  products[productCount] */\n      dup1\n        /* \"Level0/Task02\\xe4\\xba\\x86\\xe8\\xa7\\xa3\\xe5\\xa6\\x82\\xe4\\xbd\\x95\\xe4\\xbd\\xbf\\xe7\\x94\\xa8Solidity/\\xe6\\x95\\xb0\\xe6\\x8d\\xae\\xe7\\xb1\\xbb\\xe5\\x9e\\x8b/struct.sol\":398:410  productCount */\n      sload(0x01)\n        /* \"Level0/Task02\\xe4\\xba\\x86\\xe8\\xa7\\xa3\\xe5\\xa6\\x82\\xe4\\xbd\\x95\\xe4\\xbd\\xbf\\xe7\\x94\\xa8Solidity/\\xe6\\x95\\xb0\\xe6\\x8d\\xae\\xe7\\xb1\\xbb\\xe5\\x9e\\x8b/struct.sol\":389:411  products[productCount] */\n      dup2\n      mstore\n      0x20\n      add\n      swap1\n      dup2\n      mstore\n      0x20\n      add\n      0x00\n      keccak256\n        /* \"Level0/Task02\\xe4\\xba\\x86\\xe8\\xa7\\xa3\\xe5\\xa6\\x82\\xe4\\xbd\\x95\\xe4\\xbd\\xbf\\xe7\\x94\\xa8Solidity/\\xe6\\x95\\xb0\\xe6\\x8d\\xae\\xe7\\xb1\\xbb\\xe5\\x9e\\x8b/struct.sol\":389:458  products[productCount] = Product(productCount, _name, _price, _stock) */\n      0x00\n      dup3\n      add\n      mload\n      dup2\n      0x00\n      add\n      sstore\n      0x20\n      dup3\n      add\n      mload\n      dup2\n      0x01\n      add\n      swap1\n      dup2\n      tag_34\n      swap2\n      swap1\n      tag_35\n      jump\t// in\n    tag_34:\n      pop\n      0x40\n      dup3\n      add\n      mload\n      dup2\n      0x02\n      add\n      sstore\n      0x60\n      dup3\n      add\n      mload\n      dup2\n      0x03\n      add\n      sstore\n      swap1\n      pop\n      pop\n        /* \"Level0/Task02\\xe4\\xba\\x86\\xe8\\xa7\\xa3\\xe5\\xa6\\x82\\xe4\\xbd\\x95\\xe4\\xbd\\xbf\\xe7\\x94\\xa8Solidity/\\xe6\\x95\\xb0\\xe6\\x8d\\xae\\xe7\\xb1\\xbb\\xe5\\x9e\\x8b/struct.sol\":279:466  function addProduct(string memory _name, uint _price, uint _stock) public {... */\n      pop\n      pop\n      pop\n      jump\t// out\n        /* \"Level0/Task02\\xe4\\xba\\x86\\xe8\\xa7\\xa3\\xe5\\xa6\\x82\\xe4\\xbd\\x95\\xe4\\xbd\\xbf\\xe7\\x94\\xa8Solidity/\\xe6\\x95\\xb0\\xe6\\x8d\\xae\\xe7\\xb1\\xbb\\xe5\\x9e\\x8b/struct.sol\":201:241  mapping(uint => Product) public products */\n    tag_15:\n      mstore(0x20, 0x00)\n      dup1\n      0x00\n      mstore\n      keccak256(0x00, 0x40)\n      0x00\n      swap2\n      pop\n      swap1\n      pop\n      dup1\n      0x00\n      add\n      sload\n      swap1\n      dup1\n      0x01\n      add\n      dup1\n      sload\n      tag_36\n      swap1\n      tag_37\n      jump\t// in\n    tag_36:\n      dup1\n      0x1f\n      add\n      0x20\n      dup1\n      swap2\n      div\n      mul\n      0x20\n      add\n      mload(0x40)\n      swap1\n      dup2\n      add\n      0x40\n      mstore\n      dup1\n      swap3\n      swap2\n      swap1\n      dup2\n      dup2\n      mstore\n      0x20\n      add\n      dup3\n      dup1\n      sload\n      tag_38\n      swap1\n      tag_37\n      jump\t// in\n    tag_38:\n      dup1\n      iszero\n      tag_39\n      jumpi\n      dup1\n      0x1f\n      lt\n      tag_40\n      jumpi\n      0x0100\n      dup1\n      dup4\n      sload\n      div\n      mul\n      dup4\n      mstore\n      swap2\n      0x20\n      add\n      swap2\n      jump(tag_39)\n    tag_40:\n      dup3\n      add\n      swap2\n      swap1\n      0x00\n      mstore\n      keccak256(0x00, 0x20)\n      swap1\n    tag_41:\n      dup2\n      sload\n      dup2\n      mstore\n      swap1\n      0x01\n      add\n      swap1\n      0x20\n      add\n      dup1\n      dup4\n      gt\n      tag_41\n      jumpi\n      dup3\n      swap1\n      sub\n      0x1f\n      and\n      dup3\n      add\n      swap2\n    tag_39:\n      pop\n      pop\n      pop\n      pop\n      pop\n      swap1\n      dup1\n      0x02\n      add\n      sload\n      swap1\n      dup1\n      0x03\n      add\n      sload\n      swap1\n      pop\n      dup5\n      jump\t// out\n        /* \"Level0/Task02\\xe4\\xba\\x86\\xe8\\xa7\\xa3\\xe5\\xa6\\x82\\xe4\\xbd\\x95\\xe4\\xbd\\xbf\\xe7\\x94\\xa8Solidity/\\xe6\\x95\\xb0\\xe6\\x8d\\xae\\xe7\\xb1\\xbb\\xe5\\x9e\\x8b/struct.sol\":647:859  function getProduct(uint _productId) public view returns (string memory, uint, uint) {... */\n    tag_20:\n        /* \"Level0/Task02\\xe4\\xba\\x86\\xe8\\xa7\\xa3\\xe5\\xa6\\x82\\xe4\\xbd\\x95\\xe4\\xbd\\xbf\\xe7\\x94\\xa8Solidity/\\xe6\\x95\\xb0\\xe6\\x8d\\xae\\xe7\\xb1\\xbb\\xe5\\x9e\\x8b/struct.sol\":705:718  string memory */\n      0x60\n        /* \"Level0/Task02\\xe4\\xba\\x86\\xe8\\xa7\\xa3\\xe5\\xa6\\x82\\xe4\\xbd\\x95\\xe4\\xbd\\xbf\\xe7\\x94\\xa8Solidity/\\xe6\\x95\\xb0\\xe6\\x8d\\xae\\xe7\\xb1\\xbb\\xe5\\x9e\\x8b/struct.sol\":720:724  uint */\n      0x00\n        /* \"Level0/Task02\\xe4\\xba\\x86\\xe8\\xa7\\xa3\\xe5\\xa6\\x82\\xe4\\xbd\\x95\\xe4\\xbd\\xbf\\xe7\\x94\\xa8Solidity/\\xe6\\x95\\xb0\\xe6\\x8d\\xae\\xe7\\xb1\\xbb\\xe5\\x9e\\x8b/struct.sol\":726:730  uint */\n      dup1\n        /* \"Level0/Task02\\xe4\\xba\\x86\\xe8\\xa7\\xa3\\xe5\\xa6\\x82\\xe4\\xbd\\x95\\xe4\\xbd\\xbf\\xe7\\x94\\xa8Solidity/\\xe6\\x95\\xb0\\xe6\\x8d\\xae\\xe7\\xb1\\xbb\\xe5\\x9e\\x8b/struct.sol\":743:766  Product storage product */\n      0x00\n        /* \"Level0/Task02\\xe4\\xba\\x86\\xe8\\xa7\\xa3\\xe5\\xa6\\x82\\xe4\\xbd\\x95\\xe4\\xbd\\xbf\\xe7\\x94\\xa8Solidity/\\xe6\\x95\\xb0\\xe6\\x8d\\xae\\xe7\\xb1\\xbb\\xe5\\x9e\\x8b/struct.sol\":769:777  products */\n      dup1\n        /* \"Level0/Task02\\xe4\\xba\\x86\\xe8\\xa7\\xa3\\xe5\\xa6\\x82\\xe4\\xbd\\x95\\xe4\\xbd\\xbf\\xe7\\x94\\xa8Solidity/\\xe6\\x95\\xb0\\xe6\\x8d\\xae\\xe7\\xb1\\xbb\\xe5\\x9e\\x8b/struct.sol\":769:789  products[_productId] */\n      0x00\n        /* \"Level0/Task02\\xe4\\xba\\x86\\xe8\\xa7\\xa3\\xe5\\xa6\\x82\\xe4\\xbd\\x95\\xe4\\xbd\\xbf\\xe7\\x94\\xa8Solidity/\\xe6\\x95\\xb0\\xe6\\x8d\\xae\\xe7\\xb1\\xbb\\xe5\\x9e\\x8b/struct.sol\":778:788  _productId */\n      dup7\n        /* \"Level0/Task02\\xe4\\xba\\x86\\xe8\\xa7\\xa3\\xe5\\xa6\\x82\\xe4\\xbd\\x95\\xe4\\xbd\\xbf\\xe7\\x94\\xa8Solidity/\\xe6\\x95\\xb0\\xe6\\x8d\\xae\\xe7\\xb1\\xbb\\xe5\\x9e\\x8b/struct.sol\":769:789  products[_productId] */\n      dup2\n      mstore\n      0x20\n      add\n      swap1\n      dup2\n      mstore\n      0x20\n      add\n      0x00\n      keccak256\n        /* \"Level0/Task02\\xe4\\xba\\x86\\xe8\\xa7\\xa3\\xe5\\xa6\\x82\\xe4\\xbd\\x95\\xe4\\xbd\\xbf\\xe7\\x94\\xa8Solidity/\\xe6\\x95\\xb0\\xe6\\x8d\\xae\\xe7\\xb1\\xbb\\xe5\\x9e\\x8b/struct.sol\":743:789  Product storage product = products[_productId] */\n      swap1\n      pop\n        /* \"Level0/Task02\\xe4\\xba\\x86\\xe8\\xa7\\xa3\\xe5\\xa6\\x82\\xe4\\xbd\\x95\\xe4\\xbd\\xbf\\xe7\\x94\\xa8Solidity/\\xe6\\x95\\xb0\\xe6\\x8d\\xae\\xe7\\xb1\\xbb\\xe5\\x9e\\x8b/struct.sol\":808:815  product */\n      dup1\n        /* \"Level0/Task02\\xe4\\xba\\x86\\xe8\\xa7\\xa3\\xe5\\xa6\\x82\\xe4\\xbd\\x95\\xe4\\xbd\\xbf\\xe7\\x94\\xa8Solidity/\\xe6\\x95\\xb0\\xe6\\x8d\\xae\\xe7\\xb1\\xbb\\xe5\\x9e\\x8b/struct.sol\":808:820  product.name */\n      0x01\n      add\n        /* \"Level0/Task02\\xe4\\xba\\x86\\xe8\\xa7\\xa3\\xe5\\xa6\\x82\\xe4\\xbd\\x95\\xe4\\xbd\\xbf\\xe7\\x94\\xa8Solidity/\\xe6\\x95\\xb0\\xe6\\x8d\\xae\\xe7\\xb1\\xbb\\xe5\\x9e\\x8b/struct.sol\":822:829  product */\n      dup2\n        /* \"Level0/Task02\\xe4\\xba\\x86\\xe8\\xa7\\xa3\\xe5\\xa6\\x82\\xe4\\xbd\\x95\\xe4\\xbd\\xbf\\xe7\\x94\\xa8Solidity/\\xe6\\x95\\xb0\\xe6\\x8d\\xae\\xe7\\xb1\\xbb\\xe5\\x9e\\x8b/struct.sol\":822:835  product.price */\n      0x02\n      add\n      sload\n        /* \"Level0/Task02\\xe4\\xba\\x86\\xe8\\xa7\\xa3\\xe5\\xa6\\x82\\xe4\\xbd\\x95\\xe4\\xbd\\xbf\\xe7\\x94\\xa8Solidity/\\xe6\\x95\\xb0\\xe6\\x8d\\xae\\xe7\\xb1\\xbb\\xe5\\x9e\\x8b/struct.sol\":837:844  product */\n      dup3\n        /* \"Level0/Task02\\xe4\\xba\\x86\\xe8\\xa7\\xa3\\xe5\\xa6\\x82\\xe4\\xbd\\x95\\xe4\\xbd\\xbf\\xe7\\x94\\xa8Solidity/\\xe6\\x95\\xb0\\xe6\\x8d\\xae\\xe7\\xb1\\xbb\\xe5\\x9e\\x8b/struct.sol\":837:850  product.stock */\n      0x03\n      add\n      sload\n        /* \"Level0/Task02\\xe4\\xba\\x86\\xe8\\xa7\\xa3\\xe5\\xa6\\x82\\xe4\\xbd\\x95\\xe4\\xbd\\xbf\\xe7\\x94\\xa8Solidity/\\xe6\\x95\\xb0\\xe6\\x8d\\xae\\xe7\\xb1\\xbb\\xe5\\x9e\\x8b/struct.sol\":800:851  return (product.name, product.price, product.stock) */\n      dup3\n      dup1\n      sload\n      tag_43\n      swap1\n      tag_37\n      jump\t// in\n    tag_43:\n      dup1\n      0x1f\n      add\n      0x20\n      dup1\n      swap2\n      div\n      mul\n      0x20\n      add\n      mload(0x40)\n      swap1\n      dup2\n      add\n      0x40\n      mstore\n      dup1\n      swap3\n      swap2\n      swap1\n      dup2\n      dup2\n      mstore\n      0x20\n      add\n      dup3\n      dup1\n      sload\n      tag_44\n      swap1\n      tag_37\n      jump\t// in\n    tag_44:\n      dup1\n      iszero\n      tag_45\n      jumpi\n      dup1\n      0x1f\n      lt\n      tag_46\n      jumpi\n      0x0100\n      dup1\n      dup4\n      sload\n      div\n      mul\n      dup4\n      mstore\n      swap2\n      0x20\n      add\n      swap2\n      jump(tag_45)\n    tag_46:\n      dup3\n      add\n      swap2\n      swap1\n      0x00\n      mstore\n      keccak256(0x00, 0x20)\n      swap1\n    tag_47:\n      dup2\n      sload\n      dup2\n      mstore\n      swap1\n      0x01\n      add\n      swap1\n      0x20\n      add\n      dup1\n      dup4\n      gt\n      tag_47\n      jumpi\n      dup3\n      swap1\n      sub\n      0x1f\n      and\n      dup3\n      add\n      swap2\n    tag_45:\n      pop\n      pop\n      pop\n      pop\n      pop\n      swap3\n      pop\n      swap4\n      pop\n      swap4\n      pop\n      swap4\n      pop\n      pop\n        /* \"Level0/Task02\\xe4\\xba\\x86\\xe8\\xa7\\xa3\\xe5\\xa6\\x82\\xe4\\xbd\\x95\\xe4\\xbd\\xbf\\xe7\\x94\\xa8Solidity/\\xe6\\x95\\xb0\\xe6\\x8d\\xae\\xe7\\xb1\\xbb\\xe5\\x9e\\x8b/struct.sol\":647:859  function getProduct(uint _productId) public view returns (string memory, uint, uint) {... */\n      swap2\n      swap4\n      swap1\n      swap3\n      pop\n      jump\t// out\n        /* \"Level0/Task02\\xe4\\xba\\x86\\xe8\\xa7\\xa3\\xe5\\xa6\\x82\\xe4\\xbd\\x95\\xe4\\xbd\\xbf\\xe7\\x94\\xa8Solidity/\\xe6\\x95\\xb0\\xe6\\x8d\\xae\\xe7\\xb1\\xbb\\xe5\\x9e\\x8b/struct.sol\":248:272  uint public productCount */\n    tag_24:\n      sload(0x01)\n      dup2\n      jump\t// out\n        /* \"Level0/Task02\\xe4\\xba\\x86\\xe8\\xa7\\xa3\\xe5\\xa6\\x82\\xe4\\xbd\\x95\\xe4\\xbd\\xbf\\xe7\\x94\\xa8Solidity/\\xe6\\x95\\xb0\\xe6\\x8d\\xae\\xe7\\xb1\\xbb\\xe5\\x9e\\x8b/struct.sol\":472:641  function updateProductStock(uint _productId, uint _newStock) public {... */\n    tag_30:\n        /* \"Level0/Task02\\xe4\\xba\\x86\\xe8\\xa7\\xa3\\xe5\\xa6\\x82\\xe4\\xbd\\x95\\xe4\\xbd\\xbf\\xe7\\x94\\xa8Solidity/\\xe6\\x95\\xb0\\xe6\\x8d\\xae\\xe7\\xb1\\xbb\\xe5\\x9e\\x8b/struct.sol\":551:574  Product storage product */\n      0x00\n        /* \"Level0/Task02\\xe4\\xba\\x86\\xe8\\xa7\\xa3\\xe5\\xa6\\x82\\xe4\\xbd\\x95\\xe4\\xbd\\xbf\\xe7\\x94\\xa8Solidity/\\xe6\\x95\\xb0\\xe6\\x8d\\xae\\xe7\\xb1\\xbb\\xe5\\x9e\\x8b/struct.sol\":577:585  products */\n      dup1\n        /* \"Level0/Task02\\xe4\\xba\\x86\\xe8\\xa7\\xa3\\xe5\\xa6\\x82\\xe4\\xbd\\x95\\xe4\\xbd\\xbf\\xe7\\x94\\xa8Solidity/\\xe6\\x95\\xb0\\xe6\\x8d\\xae\\xe7\\xb1\\xbb\\xe5\\x9e\\x8b/struct.sol\":577:597  products[_productId] */\n      0x00\n        /* \"Level0/Task02\\xe4\\xba\\x86\\xe8\\xa7\\xa3\\xe5\\xa6\\x82\\xe4\\xbd\\x95\\xe4\\xbd\\xbf\\xe7\\x94\\xa8Solidity/\\xe6\\x95\\xb0\\xe6\\x8d\\xae\\xe7\\xb1\\xbb\\xe5\\x9e\\x8b/struct.sol\":586:596  _productId */\n      dup5\n        /* \"Level0/Task02\\xe4\\xba\\x86\\xe8\\xa7\\xa3\\xe5\\xa6\\x82\\xe4\\xbd\\x95\\xe4\\xbd\\xbf\\xe7\\x94\\xa8Solidity/\\xe6\\x95\\xb0\\xe6\\x8d\\xae\\xe7\\xb1\\xbb\\xe5\\x9e\\x8b/struct.sol\":577:597  products[_productId] */\n      dup2\n      mstore\n      0x20\n      add\n      swap1\n      dup2\n      mstore\n      0x20\n      add\n      0x00\n      keccak256\n        /* \"Level0/Task02\\xe4\\xba\\x86\\xe8\\xa7\\xa3\\xe5\\xa6\\x82\\xe4\\xbd\\x95\\xe4\\xbd\\xbf\\xe7\\x94\\xa8Solidity/\\xe6\\x95\\xb0\\xe6\\x8d\\xae\\xe7\\xb1\\xbb\\xe5\\x9e\\x8b/struct.sol\":551:597  Product storage product = products[_productId] */\n      swap1\n      pop\n        /* \"Level0/Task02\\xe4\\xba\\x86\\xe8\\xa7\\xa3\\xe5\\xa6\\x82\\xe4\\xbd\\x95\\xe4\\xbd\\xbf\\xe7\\x94\\xa8Solidity/\\xe6\\x95\\xb0\\xe6\\x8d\\xae\\xe7\\xb1\\xbb\\xe5\\x9e\\x8b/struct.sol\":624:633  _newStock */\n      dup2\n        /* \"Level0/Task02\\xe4\\xba\\x86\\xe8\\xa7\\xa3\\xe5\\xa6\\x82\\xe4\\xbd\\x95\\xe4\\xbd\\xbf\\xe7\\x94\\xa8Solidity/\\xe6\\x95\\xb0\\xe6\\x8d\\xae\\xe7\\xb1\\xbb\\xe5\\x9e\\x8b/struct.sol\":608:615  product */\n      dup2\n        /* \"Level0/Task02\\xe4\\xba\\x86\\xe8\\xa7\\xa3\\xe5\\xa6\\x82\\xe4\\xbd\\x95\\xe4\\xbd\\xbf\\xe7\\x94\\xa8Solidity/\\xe6\\x95\\xb0\\xe6\\x8d\\xae\\xe7\\xb1\\xbb\\xe5\\x9e\\x8b/struct.sol\":608:621  product.stock */\n      0x03\n      add\n        /* \"Level0/Task02\\xe4\\xba\\x86\\xe8\\xa7\\xa3\\xe5\\xa6\\x82\\xe4\\xbd\\x95\\xe4\\xbd\\xbf\\xe7\\x94\\xa8Solidity/\\xe6\\x95\\xb0\\xe6\\x8d\\xae\\xe7\\xb1\\xbb\\xe5\\x9e\\x8b/struct.sol\":608:633  product.stock = _newStock */\n      dup2\n      swap1\n      sstore\n      pop\n        /* \"Level0/Task02\\xe4\\xba\\x86\\xe8\\xa7\\xa3\\xe5\\xa6\\x82\\xe4\\xbd\\x95\\xe4\\xbd\\xbf\\xe7\\x94\\xa8Solidity/\\xe6\\x95\\xb0\\xe6\\x8d\\xae\\xe7\\xb1\\xbb\\xe5\\x9e\\x8b/struct.sol\":540:641  {... */\n      pop\n        /* \"Level0/Task02\\xe4\\xba\\x86\\xe8\\xa7\\xa3\\xe5\\xa6\\x82\\xe4\\xbd\\x95\\xe4\\xbd\\xbf\\xe7\\x94\\xa8Solidity/\\xe6\\x95\\xb0\\xe6\\x8d\\xae\\xe7\\xb1\\xbb\\xe5\\x9e\\x8b/struct.sol\":472:641  function updateProductStock(uint _productId, uint _newStock) public {... */\n      pop\n      pop\n      jump\t// out\n        /* \"#utility.yul\":7:82   */\n    tag_49:\n        /* \"#utility.yul\":40:46   */\n      0x00\n        /* \"#utility.yul\":73:75   */\n      0x40\n        /* \"#utility.yul\":67:76   */\n      mload\n        /* \"#utility.yul\":57:76   */\n      swap1\n      pop\n        /* \"#utility.yul\":7:82   */\n      swap1\n      jump\t// out\n        /* \"#utility.yul\":88:205   */\n    tag_50:\n        /* \"#utility.yul\":197:198   */\n      0x00\n        /* \"#utility.yul\":194:195   */\n      dup1\n        /* \"#utility.yul\":187:199   */\n      revert\n        /* \"#utility.yul\":211:328   */\n    tag_51:\n        /* \"#utility.yul\":320:321   */\n      0x00\n        /* \"#utility.yul\":317:318   */\n      dup1\n        /* \"#utility.yul\":310:322   */\n      revert\n        /* \"#utility.yul\":334:451   */\n    tag_52:\n        /* \"#utility.yul\":443:444   */\n      0x00\n        /* \"#utility.yul\":440:441   */\n      dup1\n        /* \"#utility.yul\":433:445   */\n      revert\n        /* \"#utility.yul\":457:574   */\n    tag_53:\n        /* \"#utility.yul\":566:567   */\n      0x00\n        /* \"#utility.yul\":563:564   */\n      dup1\n        /* \"#utility.yul\":556:568   */\n      revert\n        /* \"#utility.yul\":580:682   */\n    tag_54:\n        /* \"#utility.yul\":621:627   */\n      0x00\n        /* \"#utility.yul\":672:674   */\n      0x1f\n        /* \"#utility.yul\":668:675   */\n      not\n        /* \"#utility.yul\":663:665   */\n      0x1f\n        /* \"#utility.yul\":656:661   */\n      dup4\n        /* \"#utility.yul\":652:666   */\n      add\n        /* \"#utility.yul\":648:676   */\n      and\n        /* \"#utility.yul\":638:676   */\n      swap1\n      pop\n        /* \"#utility.yul\":580:682   */\n      swap2\n      swap1\n      pop\n      jump\t// out\n        /* \"#utility.yul\":688:868   */\n    tag_55:\n        /* \"#utility.yul\":736:813   */\n      0x4e487b7100000000000000000000000000000000000000000000000000000000\n        /* \"#utility.yul\":733:734   */\n      0x00\n        /* \"#utility.yul\":726:814   */\n      mstore\n        /* \"#utility.yul\":833:837   */\n      0x41\n        /* \"#utility.yul\":830:831   */\n      0x04\n        /* \"#utility.yul\":823:838   */\n      mstore\n        /* \"#utility.yul\":857:861   */\n      0x24\n        /* \"#utility.yul\":854:855   */\n      0x00\n        /* \"#utility.yul\":847:862   */\n      revert\n        /* \"#utility.yul\":874:1155   */\n    tag_56:\n        /* \"#utility.yul\":957:984   */\n      tag_96\n        /* \"#utility.yul\":979:983   */\n      dup3\n        /* \"#utility.yul\":957:984   */\n      tag_54\n      jump\t// in\n    tag_96:\n        /* \"#utility.yul\":949:955   */\n      dup2\n        /* \"#utility.yul\":945:985   */\n      add\n        /* \"#utility.yul\":1087:1093   */\n      dup2\n        /* \"#utility.yul\":1075:1085   */\n      dup2\n        /* \"#utility.yul\":1072:1094   */\n      lt\n        /* \"#utility.yul\":1051:1069   */\n      0xffffffffffffffff\n        /* \"#utility.yul\":1039:1049   */\n      dup3\n        /* \"#utility.yul\":1036:1070   */\n      gt\n        /* \"#utility.yul\":1033:1095   */\n      or\n        /* \"#utility.yul\":1030:1118   */\n      iszero\n      tag_97\n      jumpi\n        /* \"#utility.yul\":1098:1116   */\n      tag_98\n      tag_55\n      jump\t// in\n    tag_98:\n        /* \"#utility.yul\":1030:1118   */\n    tag_97:\n        /* \"#utility.yul\":1138:1148   */\n      dup1\n        /* \"#utility.yul\":1134:1136   */\n      0x40\n        /* \"#utility.yul\":1127:1149   */\n      mstore\n        /* \"#utility.yul\":917:1155   */\n      pop\n        /* \"#utility.yul\":874:1155   */\n      pop\n      pop\n      jump\t// out\n        /* \"#utility.yul\":1161:1290   */\n    tag_57:\n        /* \"#utility.yul\":1195:1201   */\n      0x00\n        /* \"#utility.yul\":1222:1242   */\n      tag_100\n      tag_49\n      jump\t// in\n    tag_100:\n        /* \"#utility.yul\":1212:1242   */\n      swap1\n      pop\n        /* \"#utility.yul\":1251:1284   */\n      tag_101\n        /* \"#utility.yul\":1279:1283   */\n      dup3\n        /* \"#utility.yul\":1271:1277   */\n      dup3\n        /* \"#utility.yul\":1251:1284   */\n      tag_56\n      jump\t// in\n    tag_101:\n        /* \"#utility.yul\":1161:1290   */\n      swap2\n      swap1\n      pop\n      jump\t// out\n        /* \"#utility.yul\":1296:1604   */\n    tag_58:\n        /* \"#utility.yul\":1358:1362   */\n      0x00\n        /* \"#utility.yul\":1448:1466   */\n      0xffffffffffffffff\n        /* \"#utility.yul\":1440:1446   */\n      dup3\n        /* \"#utility.yul\":1437:1467   */\n      gt\n        /* \"#utility.yul\":1434:1490   */\n      iszero\n      tag_103\n      jumpi\n        /* \"#utility.yul\":1470:1488   */\n      tag_104\n      tag_55\n      jump\t// in\n    tag_104:\n        /* \"#utility.yul\":1434:1490   */\n    tag_103:\n        /* \"#utility.yul\":1508:1537   */\n      tag_105\n        /* \"#utility.yul\":1530:1536   */\n      dup3\n        /* \"#utility.yul\":1508:1537   */\n      tag_54\n      jump\t// in\n    tag_105:\n        /* \"#utility.yul\":1500:1537   */\n      swap1\n      pop\n        /* \"#utility.yul\":1592:1596   */\n      0x20\n        /* \"#utility.yul\":1586:1590   */\n      dup2\n        /* \"#utility.yul\":1582:1597   */\n      add\n        /* \"#utility.yul\":1574:1597   */\n      swap1\n      pop\n        /* \"#utility.yul\":1296:1604   */\n      swap2\n      swap1\n      pop\n      jump\t// out\n        /* \"#utility.yul\":1610:1758   */\n    tag_59:\n        /* \"#utility.yul\":1708:1714   */\n      dup3\n        /* \"#utility.yul\":1703:1706   */\n      dup2\n        /* \"#utility.yul\":1698:1701   */\n      dup4\n        /* \"#utility.yul\":1685:1715   */\n      calldatacopy\n        /* \"#utility.yul\":1749:1750   */\n      0x00\n        /* \"#utility.yul\":1740:1746   */\n      dup4\n        /* \"#utility.yul\":1735:1738   */\n      dup4\n        /* \"#utility.yul\":1731:1747   */\n      add\n        /* \"#utility.yul\":1724:1751   */\n      mstore\n        /* \"#utility.yul\":1610:1758   */\n      pop\n      pop\n      pop\n      jump\t// out\n        /* \"#utility.yul\":1764:2189   */\n    tag_60:\n        /* \"#utility.yul\":1842:1847   */\n      0x00\n        /* \"#utility.yul\":1867:1933   */\n      tag_108\n        /* \"#utility.yul\":1883:1932   */\n      tag_109\n        /* \"#utility.yul\":1925:1931   */\n      dup5\n        /* \"#utility.yul\":1883:1932   */\n      tag_58\n      jump\t// in\n    tag_109:\n        /* \"#utility.yul\":1867:1933   */\n      tag_57\n      jump\t// in\n    tag_108:\n        /* \"#utility.yul\":1858:1933   */\n      swap1\n      pop\n        /* \"#utility.yul\":1956:1962   */\n      dup3\n        /* \"#utility.yul\":1949:1954   */\n      dup2\n        /* \"#utility.yul\":1942:1963   */\n      mstore\n        /* \"#utility.yul\":1994:1998   */\n      0x20\n        /* \"#utility.yul\":1987:1992   */\n      dup2\n        /* \"#utility.yul\":1983:1999   */\n      add\n        /* \"#utility.yul\":2032:2035   */\n      dup5\n        /* \"#utility.yul\":2023:2029   */\n      dup5\n        /* \"#utility.yul\":2018:2021   */\n      dup5\n        /* \"#utility.yul\":2014:2030   */\n      add\n        /* \"#utility.yul\":2011:2036   */\n      gt\n        /* \"#utility.yul\":2008:2120   */\n      iszero\n      tag_110\n      jumpi\n        /* \"#utility.yul\":2039:2118   */\n      tag_111\n      tag_53\n      jump\t// in\n    tag_111:\n        /* \"#utility.yul\":2008:2120   */\n    tag_110:\n        /* \"#utility.yul\":2129:2183   */\n      tag_112\n        /* \"#utility.yul\":2176:2182   */\n      dup5\n        /* \"#utility.yul\":2171:2174   */\n      dup3\n        /* \"#utility.yul\":2166:2169   */\n      dup6\n        /* \"#utility.yul\":2129:2183   */\n      tag_59\n      jump\t// in\n    tag_112:\n        /* \"#utility.yul\":1848:2189   */\n      pop\n        /* \"#utility.yul\":1764:2189   */\n      swap4\n      swap3\n      pop\n      pop\n      pop\n      jump\t// out\n        /* \"#utility.yul\":2209:2549   */\n    tag_61:\n        /* \"#utility.yul\":2265:2270   */\n      0x00\n        /* \"#utility.yul\":2314:2317   */\n      dup3\n        /* \"#utility.yul\":2307:2311   */\n      0x1f\n        /* \"#utility.yul\":2299:2305   */\n      dup4\n        /* \"#utility.yul\":2295:2312   */\n      add\n        /* \"#utility.yul\":2291:2318   */\n      slt\n        /* \"#utility.yul\":2281:2403   */\n      tag_114\n      jumpi\n        /* \"#utility.yul\":2322:2401   */\n      tag_115\n      tag_52\n      jump\t// in\n    tag_115:\n        /* \"#utility.yul\":2281:2403   */\n    tag_114:\n        /* \"#utility.yul\":2439:2445   */\n      dup2\n        /* \"#utility.yul\":2426:2446   */\n      calldataload\n        /* \"#utility.yul\":2464:2543   */\n      tag_116\n        /* \"#utility.yul\":2539:2542   */\n      dup5\n        /* \"#utility.yul\":2531:2537   */\n      dup3\n        /* \"#utility.yul\":2524:2528   */\n      0x20\n        /* \"#utility.yul\":2516:2522   */\n      dup7\n        /* \"#utility.yul\":2512:2529   */\n      add\n        /* \"#utility.yul\":2464:2543   */\n      tag_60\n      jump\t// in\n    tag_116:\n        /* \"#utility.yul\":2455:2543   */\n      swap2\n      pop\n        /* \"#utility.yul\":2271:2549   */\n      pop\n        /* \"#utility.yul\":2209:2549   */\n      swap3\n      swap2\n      pop\n      pop\n      jump\t// out\n        /* \"#utility.yul\":2555:2632   */\n    tag_62:\n        /* \"#utility.yul\":2592:2599   */\n      0x00\n        /* \"#utility.yul\":2621:2626   */\n      dup2\n        /* \"#utility.yul\":2610:2626   */\n      swap1\n      pop\n        /* \"#utility.yul\":2555:2632   */\n      swap2\n      swap1\n      pop\n      jump\t// out\n        /* \"#utility.yul\":2638:2760   */\n    tag_63:\n        /* \"#utility.yul\":2711:2735   */\n      tag_119\n        /* \"#utility.yul\":2729:2734   */\n      dup2\n        /* \"#utility.yul\":2711:2735   */\n      tag_62\n      jump\t// in\n    tag_119:\n        /* \"#utility.yul\":2704:2709   */\n      dup2\n        /* \"#utility.yul\":2701:2736   */\n      eq\n        /* \"#utility.yul\":2691:2754   */\n      tag_120\n      jumpi\n        /* \"#utility.yul\":2750:2751   */\n      0x00\n        /* \"#utility.yul\":2747:2748   */\n      dup1\n        /* \"#utility.yul\":2740:2752   */\n      revert\n        /* \"#utility.yul\":2691:2754   */\n    tag_120:\n        /* \"#utility.yul\":2638:2760   */\n      pop\n      jump\t// out\n        /* \"#utility.yul\":2766:2905   */\n    tag_64:\n        /* \"#utility.yul\":2812:2817   */\n      0x00\n        /* \"#utility.yul\":2850:2856   */\n      dup2\n        /* \"#utility.yul\":2837:2857   */\n      calldataload\n        /* \"#utility.yul\":2828:2857   */\n      swap1\n      pop\n        /* \"#utility.yul\":2866:2899   */\n      tag_122\n        /* \"#utility.yul\":2893:2898   */\n      dup2\n        /* \"#utility.yul\":2866:2899   */\n      tag_63\n      jump\t// in\n    tag_122:\n        /* \"#utility.yul\":2766:2905   */\n      swap3\n      swap2\n      pop\n      pop\n      jump\t// out\n        /* \"#utility.yul\":2911:3710   */\n    tag_10:\n        /* \"#utility.yul\":2998:3004   */\n      0x00\n        /* \"#utility.yul\":3006:3012   */\n      dup1\n        /* \"#utility.yul\":3014:3020   */\n      0x00\n        /* \"#utility.yul\":3063:3065   */\n      0x60\n        /* \"#utility.yul\":3051:3060   */\n      dup5\n        /* \"#utility.yul\":3042:3049   */\n      dup7\n        /* \"#utility.yul\":3038:3061   */\n      sub\n        /* \"#utility.yul\":3034:3066   */\n      slt\n        /* \"#utility.yul\":3031:3150   */\n      iszero\n      tag_124\n      jumpi\n        /* \"#utility.yul\":3069:3148   */\n      tag_125\n      tag_50\n      jump\t// in\n    tag_125:\n        /* \"#utility.yul\":3031:3150   */\n    tag_124:\n        /* \"#utility.yul\":3217:3218   */\n      0x00\n        /* \"#utility.yul\":3206:3215   */\n      dup5\n        /* \"#utility.yul\":3202:3219   */\n      add\n        /* \"#utility.yul\":3189:3220   */\n      calldataload\n        /* \"#utility.yul\":3247:3265   */\n      0xffffffffffffffff\n        /* \"#utility.yul\":3239:3245   */\n      dup2\n        /* \"#utility.yul\":3236:3266   */\n      gt\n        /* \"#utility.yul\":3233:3350   */\n      iszero\n      tag_126\n      jumpi\n        /* \"#utility.yul\":3269:3348   */\n      tag_127\n      tag_51\n      jump\t// in\n    tag_127:\n        /* \"#utility.yul\":3233:3350   */\n    tag_126:\n        /* \"#utility.yul\":3374:3437   */\n      tag_128\n        /* \"#utility.yul\":3429:3436   */\n      dup7\n        /* \"#utility.yul\":3420:3426   */\n      dup3\n        /* \"#utility.yul\":3409:3418   */\n      dup8\n        /* \"#utility.yul\":3405:3427   */\n      add\n        /* \"#utility.yul\":3374:3437   */\n      tag_61\n      jump\t// in\n    tag_128:\n        /* \"#utility.yul\":3364:3437   */\n      swap4\n      pop\n        /* \"#utility.yul\":3160:3447   */\n      pop\n        /* \"#utility.yul\":3486:3488   */\n      0x20\n        /* \"#utility.yul\":3512:3565   */\n      tag_129\n        /* \"#utility.yul\":3557:3564   */\n      dup7\n        /* \"#utility.yul\":3548:3554   */\n      dup3\n        /* \"#utility.yul\":3537:3546   */\n      dup8\n        /* \"#utility.yul\":3533:3555   */\n      add\n        /* \"#utility.yul\":3512:3565   */\n      tag_64\n      jump\t// in\n    tag_129:\n        /* \"#utility.yul\":3502:3565   */\n      swap3\n      pop\n        /* \"#utility.yul\":3457:3575   */\n      pop\n        /* \"#utility.yul\":3614:3616   */\n      0x40\n        /* \"#utility.yul\":3640:3693   */\n      tag_130\n        /* \"#utility.yul\":3685:3692   */\n      dup7\n        /* \"#utility.yul\":3676:3682   */\n      dup3\n        /* \"#utility.yul\":3665:3674   */\n      dup8\n        /* \"#utility.yul\":3661:3683   */\n      add\n        /* \"#utility.yul\":3640:3693   */\n      tag_64\n      jump\t// in\n    tag_130:\n        /* \"#utility.yul\":3630:3693   */\n      swap2\n      pop\n        /* \"#utility.yul\":3585:3703   */\n      pop\n        /* \"#utility.yul\":2911:3710   */\n      swap3\n      pop\n      swap3\n      pop\n      swap3\n      jump\t// out\n        /* \"#utility.yul\":3716:4045   */\n    tag_14:\n        /* \"#utility.yul\":3775:3781   */\n      0x00\n        /* \"#utility.yul\":3824:3826   */\n      0x20\n        /* \"#utility.yul\":3812:3821   */\n      dup3\n        /* \"#utility.yul\":3803:3810   */\n      dup5\n        /* \"#utility.yul\":3799:3822   */\n      sub\n        /* \"#utility.yul\":3795:3827   */\n      slt\n        /* \"#utility.yul\":3792:3911   */\n      iszero\n      tag_132\n      jumpi\n        /* \"#utility.yul\":3830:3909   */\n      tag_133\n      tag_50\n      jump\t// in\n    tag_133:\n        /* \"#utility.yul\":3792:3911   */\n    tag_132:\n        /* \"#utility.yul\":3950:3951   */\n      0x00\n        /* \"#utility.yul\":3975:4028   */\n      tag_134\n        /* \"#utility.yul\":4020:4027   */\n      dup5\n        /* \"#utility.yul\":4011:4017   */\n      dup3\n        /* \"#utility.yul\":4000:4009   */\n      dup6\n        /* \"#utility.yul\":3996:4018   */\n      add\n        /* \"#utility.yul\":3975:4028   */\n      tag_64\n      jump\t// in\n    tag_134:\n        /* \"#utility.yul\":3965:4028   */\n      swap2\n      pop\n        /* \"#utility.yul\":3921:4038   */\n      pop\n        /* \"#utility.yul\":3716:4045   */\n      swap3\n      swap2\n      pop\n      pop\n      jump\t// out\n        /* \"#utility.yul\":4051:4169   */\n    tag_65:\n        /* \"#utility.yul\":4138:4162   */\n      tag_136\n        /* \"#utility.yul\":4156:4161   */\n      dup2\n        /* \"#utility.yul\":4138:4162   */\n      tag_62\n      jump\t// in\n    tag_136:\n        /* \"#utility.yul\":4133:4136   */\n      dup3\n        /* \"#utility.yul\":4126:4163   */\n      mstore\n        /* \"#utility.yul\":4051:4169   */\n      pop\n      pop\n      jump\t// out\n        /* \"#utility.yul\":4175:4274   */\n    tag_66:\n        /* \"#utility.yul\":4227:4233   */\n      0x00\n        /* \"#utility.yul\":4261:4266   */\n      dup2\n        /* \"#utility.yul\":4255:4267   */\n      mload\n        /* \"#utility.yul\":4245:4267   */\n      swap1\n      pop\n        /* \"#utility.yul\":4175:4274   */\n      swap2\n      swap1\n      pop\n      jump\t// out\n        /* \"#utility.yul\":4280:4449   */\n    tag_67:\n        /* \"#utility.yul\":4364:4375   */\n      0x00\n        /* \"#utility.yul\":4398:4404   */\n      dup3\n        /* \"#utility.yul\":4393:4396   */\n      dup3\n        /* \"#utility.yul\":4386:4405   */\n      mstore\n        /* \"#utility.yul\":4438:4442   */\n      0x20\n        /* \"#utility.yul\":4433:4436   */\n      dup3\n        /* \"#utility.yul\":4429:4443   */\n      add\n        /* \"#utility.yul\":4414:4443   */\n      swap1\n      pop\n        /* \"#utility.yul\":4280:4449   */\n      swap3\n      swap2\n      pop\n      pop\n      jump\t// out\n        /* \"#utility.yul\":4455:4594   */\n    tag_68:\n        /* \"#utility.yul\":4544:4550   */\n      dup3\n        /* \"#utility.yul\":4539:4542   */\n      dup2\n        /* \"#utility.yul\":4534:4537   */\n      dup4\n        /* \"#utility.yul\":4528:4551   */\n      mcopy\n        /* \"#utility.yul\":4585:4586   */\n      0x00\n        /* \"#utility.yul\":4576:4582   */\n      dup4\n        /* \"#utility.yul\":4571:4574   */\n      dup4\n        /* \"#utility.yul\":4567:4583   */\n      add\n        /* \"#utility.yul\":4560:4587   */\n      mstore\n        /* \"#utility.yul\":4455:4594   */\n      pop\n      pop\n      pop\n      jump\t// out\n        /* \"#utility.yul\":4600:4977   */\n    tag_69:\n        /* \"#utility.yul\":4688:4691   */\n      0x00\n        /* \"#utility.yul\":4716:4755   */\n      tag_141\n        /* \"#utility.yul\":4749:4754   */\n      dup3\n        /* \"#utility.yul\":4716:4755   */\n      tag_66\n      jump\t// in\n    tag_141:\n        /* \"#utility.yul\":4771:4842   */\n      tag_142\n        /* \"#utility.yul\":4835:4841   */\n      dup2\n        /* \"#utility.yul\":4830:4833   */\n      dup6\n        /* \"#utility.yul\":4771:4842   */\n      tag_67\n      jump\t// in\n    tag_142:\n        /* \"#utility.yul\":4764:4842   */\n      swap4\n      pop\n        /* \"#utility.yul\":4851:4916   */\n      tag_143\n        /* \"#utility.yul\":4909:4915   */\n      dup2\n        /* \"#utility.yul\":4904:4907   */\n      dup6\n        /* \"#utility.yul\":4897:4901   */\n      0x20\n        /* \"#utility.yul\":4890:4895   */\n      dup7\n        /* \"#utility.yul\":4886:4902   */\n      add\n        /* \"#utility.yul\":4851:4916   */\n      tag_68\n      jump\t// in\n    tag_143:\n        /* \"#utility.yul\":4941:4970   */\n      tag_144\n        /* \"#utility.yul\":4963:4969   */\n      dup2\n        /* \"#utility.yul\":4941:4970   */\n      tag_54\n      jump\t// in\n    tag_144:\n        /* \"#utility.yul\":4936:4939   */\n      dup5\n        /* \"#utility.yul\":4932:4971   */\n      add\n        /* \"#utility.yul\":4925:4971   */\n      swap2\n      pop\n        /* \"#utility.yul\":4692:4977   */\n      pop\n        /* \"#utility.yul\":4600:4977   */\n      swap3\n      swap2\n      pop\n      pop\n      jump\t// out\n        /* \"#utility.yul\":4983:5627   */\n    tag_17:\n        /* \"#utility.yul\":5180:5184   */\n      0x00\n        /* \"#utility.yul\":5218:5221   */\n      0x80\n        /* \"#utility.yul\":5207:5216   */\n      dup3\n        /* \"#utility.yul\":5203:5222   */\n      add\n        /* \"#utility.yul\":5195:5222   */\n      swap1\n      pop\n        /* \"#utility.yul\":5232:5303   */\n      tag_146\n        /* \"#utility.yul\":5300:5301   */\n      0x00\n        /* \"#utility.yul\":5289:5298   */\n      dup4\n        /* \"#utility.yul\":5285:5302   */\n      add\n        /* \"#utility.yul\":5276:5282   */\n      dup8\n        /* \"#utility.yul\":5232:5303   */\n      tag_65\n      jump\t// in\n    tag_146:\n        /* \"#utility.yul\":5350:5359   */\n      dup2\n        /* \"#utility.yul\":5344:5348   */\n      dup2\n        /* \"#utility.yul\":5340:5360   */\n      sub\n        /* \"#utility.yul\":5335:5337   */\n      0x20\n        /* \"#utility.yul\":5324:5333   */\n      dup4\n        /* \"#utility.yul\":5320:5338   */\n      add\n        /* \"#utility.yul\":5313:5361   */\n      mstore\n        /* \"#utility.yul\":5378:5456   */\n      tag_147\n        /* \"#utility.yul\":5451:5455   */\n      dup2\n        /* \"#utility.yul\":5442:5448   */\n      dup7\n        /* \"#utility.yul\":5378:5456   */\n      tag_69\n      jump\t// in\n    tag_147:\n        /* \"#utility.yul\":5370:5456   */\n      swap1\n      pop\n        /* \"#utility.yul\":5466:5538   */\n      tag_148\n        /* \"#utility.yul\":5534:5536   */\n      0x40\n        /* \"#utility.yul\":5523:5532   */\n      dup4\n        /* \"#utility.yul\":5519:5537   */\n      add\n        /* \"#utility.yul\":5510:5516   */\n      dup6\n        /* \"#utility.yul\":5466:5538   */\n      tag_65\n      jump\t// in\n    tag_148:\n        /* \"#utility.yul\":5548:5620   */\n      tag_149\n        /* \"#utility.yul\":5616:5618   */\n      0x60\n        /* \"#utility.yul\":5605:5614   */\n      dup4\n        /* \"#utility.yul\":5601:5619   */\n      add\n        /* \"#utility.yul\":5592:5598   */\n      dup5\n        /* \"#utility.yul\":5548:5620   */\n      tag_65\n      jump\t// in\n    tag_149:\n        /* \"#utility.yul\":4983:5627   */\n      swap6\n      swap5\n      pop\n      pop\n      pop\n      pop\n      pop\n      jump\t// out\n        /* \"#utility.yul\":5633:6166   */\n    tag_22:\n        /* \"#utility.yul\":5802:5806   */\n      0x00\n        /* \"#utility.yul\":5840:5842   */\n      0x60\n        /* \"#utility.yul\":5829:5838   */\n      dup3\n        /* \"#utility.yul\":5825:5843   */\n      add\n        /* \"#utility.yul\":5817:5843   */\n      swap1\n      pop\n        /* \"#utility.yul\":5889:5898   */\n      dup2\n        /* \"#utility.yul\":5883:5887   */\n      dup2\n        /* \"#utility.yul\":5879:5899   */\n      sub\n        /* \"#utility.yul\":5875:5876   */\n      0x00\n        /* \"#utility.yul\":5864:5873   */\n      dup4\n        /* \"#utility.yul\":5860:5877   */\n      add\n        /* \"#utility.yul\":5853:5900   */\n      mstore\n        /* \"#utility.yul\":5917:5995   */\n      tag_151\n        /* \"#utility.yul\":5990:5994   */\n      dup2\n        /* \"#utility.yul\":5981:5987   */\n      dup7\n        /* \"#utility.yul\":5917:5995   */\n      tag_69\n      jump\t// in\n    tag_151:\n        /* \"#utility.yul\":5909:5995   */\n      swap1\n      pop\n        /* \"#utility.yul\":6005:6077   */\n      tag_152\n        /* \"#utility.yul\":6073:6075   */\n      0x20\n        /* \"#utility.yul\":6062:6071   */\n      dup4\n        /* \"#utility.yul\":6058:6076   */\n      add\n        /* \"#utility.yul\":6049:6055   */\n      dup6\n        /* \"#utility.yul\":6005:6077   */\n      tag_65\n      jump\t// in\n    tag_152:\n        /* \"#utility.yul\":6087:6159   */\n      tag_153\n        /* \"#utility.yul\":6155:6157   */\n      0x40\n        /* \"#utility.yul\":6144:6153   */\n      dup4\n        /* \"#utility.yul\":6140:6158   */\n      add\n        /* \"#utility.yul\":6131:6137   */\n      dup5\n        /* \"#utility.yul\":6087:6159   */\n      tag_65\n      jump\t// in\n    tag_153:\n        /* \"#utility.yul\":5633:6166   */\n      swap5\n      swap4\n      pop\n      pop\n      pop\n      pop\n      jump\t// out\n        /* \"#utility.yul\":6172:6394   */\n    tag_26:\n        /* \"#utility.yul\":6265:6269   */\n      0x00\n        /* \"#utility.yul\":6303:6305   */\n      0x20\n        /* \"#utility.yul\":6292:6301   */\n      dup3\n        /* \"#utility.yul\":6288:6306   */\n      add\n        /* \"#utility.yul\":6280:6306   */\n      swap1\n      pop\n        /* \"#utility.yul\":6316:6387   */\n      tag_155\n        /* \"#utility.yul\":6384:6385   */\n      0x00\n        /* \"#utility.yul\":6373:6382   */\n      dup4\n        /* \"#utility.yul\":6369:6386   */\n      add\n        /* \"#utility.yul\":6360:6366   */\n      dup5\n        /* \"#utility.yul\":6316:6387   */\n      tag_65\n      jump\t// in\n    tag_155:\n        /* \"#utility.yul\":6172:6394   */\n      swap3\n      swap2\n      pop\n      pop\n      jump\t// out\n        /* \"#utility.yul\":6400:6874   */\n    tag_29:\n        /* \"#utility.yul\":6468:6474   */\n      0x00\n        /* \"#utility.yul\":6476:6482   */\n      dup1\n        /* \"#utility.yul\":6525:6527   */\n      0x40\n        /* \"#utility.yul\":6513:6522   */\n      dup4\n        /* \"#utility.yul\":6504:6511   */\n      dup6\n        /* \"#utility.yul\":6500:6523   */\n      sub\n        /* \"#utility.yul\":6496:6528   */\n      slt\n        /* \"#utility.yul\":6493:6612   */\n      iszero\n      tag_157\n      jumpi\n        /* \"#utility.yul\":6531:6610   */\n      tag_158\n      tag_50\n      jump\t// in\n    tag_158:\n        /* \"#utility.yul\":6493:6612   */\n    tag_157:\n        /* \"#utility.yul\":6651:6652   */\n      0x00\n        /* \"#utility.yul\":6676:6729   */\n      tag_159\n        /* \"#utility.yul\":6721:6728   */\n      dup6\n        /* \"#utility.yul\":6712:6718   */\n      dup3\n        /* \"#utility.yul\":6701:6710   */\n      dup7\n        /* \"#utility.yul\":6697:6719   */\n      add\n        /* \"#utility.yul\":6676:6729   */\n      tag_64\n      jump\t// in\n    tag_159:\n        /* \"#utility.yul\":6666:6729   */\n      swap3\n      pop\n        /* \"#utility.yul\":6622:6739   */\n      pop\n        /* \"#utility.yul\":6778:6780   */\n      0x20\n        /* \"#utility.yul\":6804:6857   */\n      tag_160\n        /* \"#utility.yul\":6849:6856   */\n      dup6\n        /* \"#utility.yul\":6840:6846   */\n      dup3\n        /* \"#utility.yul\":6829:6838   */\n      dup7\n        /* \"#utility.yul\":6825:6847   */\n      add\n        /* \"#utility.yul\":6804:6857   */\n      tag_64\n      jump\t// in\n    tag_160:\n        /* \"#utility.yul\":6794:6857   */\n      swap2\n      pop\n        /* \"#utility.yul\":6749:6867   */\n      pop\n        /* \"#utility.yul\":6400:6874   */\n      swap3\n      pop\n      swap3\n      swap1\n      pop\n      jump\t// out\n        /* \"#utility.yul\":6880:7060   */\n    tag_70:\n        /* \"#utility.yul\":6928:7005   */\n      0x4e487b7100000000000000000000000000000000000000000000000000000000\n        /* \"#utility.yul\":6925:6926   */\n      0x00\n        /* \"#utility.yul\":6918:7006   */\n      mstore\n        /* \"#utility.yul\":7025:7029   */\n      0x11\n        /* \"#utility.yul\":7022:7023   */\n      0x04\n        /* \"#utility.yul\":7015:7030   */\n      mstore\n        /* \"#utility.yul\":7049:7053   */\n      0x24\n        /* \"#utility.yul\":7046:7047   */\n      0x00\n        /* \"#utility.yul\":7039:7054   */\n      revert\n        /* \"#utility.yul\":7066:7299   */\n    tag_33:\n        /* \"#utility.yul\":7105:7108   */\n      0x00\n        /* \"#utility.yul\":7128:7152   */\n      tag_163\n        /* \"#utility.yul\":7146:7151   */\n      dup3\n        /* \"#utility.yul\":7128:7152   */\n      tag_62\n      jump\t// in\n    tag_163:\n        /* \"#utility.yul\":7119:7152   */\n      swap2\n      pop\n        /* \"#utility.yul\":7174:7240   */\n      0xffffffffffffffffffffffffffffffffffffffffffffffffffffffffffffffff\n        /* \"#utility.yul\":7167:7172   */\n      dup3\n        /* \"#utility.yul\":7164:7241   */\n      sub\n        /* \"#utility.yul\":7161:7264   */\n      tag_164\n      jumpi\n        /* \"#utility.yul\":7244:7262   */\n      tag_165\n      tag_70\n      jump\t// in\n    tag_165:\n        /* \"#utility.yul\":7161:7264   */\n    tag_164:\n        /* \"#utility.yul\":7291:7292   */\n      0x01\n        /* \"#utility.yul\":7284:7289   */\n      dup3\n        /* \"#utility.yul\":7280:7293   */\n      add\n        /* \"#utility.yul\":7273:7293   */\n      swap1\n      pop\n        /* \"#utility.yul\":7066:7299   */\n      swap2\n      swap1\n      pop\n      jump\t// out\n        /* \"#utility.yul\":7305:7485   */\n    tag_71:\n        /* \"#utility.yul\":7353:7430   */\n      0x4e487b7100000000000000000000000000000000000000000000000000000000\n        /* \"#utility.yul\":7350:7351   */\n      0x00\n        /* \"#utility.yul\":7343:7431   */\n      mstore\n        /* \"#utility.yul\":7450:7454   */\n      0x22\n        /* \"#utility.yul\":7447:7448   */\n      0x04\n        /* \"#utility.yul\":7440:7455   */\n      mstore\n        /* \"#utility.yul\":7474:7478   */\n      0x24\n        /* \"#utility.yul\":7471:7472   */\n      0x00\n        /* \"#utility.yul\":7464:7479   */\n      revert\n        /* \"#utility.yul\":7491:7811   */\n    tag_37:\n        /* \"#utility.yul\":7535:7541   */\n      0x00\n        /* \"#utility.yul\":7572:7573   */\n      0x02\n        /* \"#utility.yul\":7566:7570   */\n      dup3\n        /* \"#utility.yul\":7562:7574   */\n      div\n        /* \"#utility.yul\":7552:7574   */\n      swap1\n      pop\n        /* \"#utility.yul\":7619:7620   */\n      0x01\n        /* \"#utility.yul\":7613:7617   */\n      dup3\n        /* \"#utility.yul\":7609:7621   */\n      and\n        /* \"#utility.yul\":7640:7658   */\n      dup1\n        /* \"#utility.yul\":7630:7711   */\n      tag_168\n      jumpi\n        /* \"#utility.yul\":7696:7700   */\n      0x7f\n        /* \"#utility.yul\":7688:7694   */\n      dup3\n        /* \"#utility.yul\":7684:7701   */\n      and\n        /* \"#utility.yul\":7674:7701   */\n      swap2\n      pop\n        /* \"#utility.yul\":7630:7711   */\n    tag_168:\n        /* \"#utility.yul\":7758:7760   */\n      0x20\n        /* \"#utility.yul\":7750:7756   */\n      dup3\n        /* \"#utility.yul\":7747:7761   */\n      lt\n        /* \"#utility.yul\":7727:7745   */\n      dup2\n        /* \"#utility.yul\":7724:7762   */\n      sub\n        /* \"#utility.yul\":7721:7805   */\n      tag_169\n      jumpi\n        /* \"#utility.yul\":7777:7795   */\n      tag_170\n      tag_71\n      jump\t// in\n    tag_170:\n        /* \"#utility.yul\":7721:7805   */\n    tag_169:\n        /* \"#utility.yul\":7542:7811   */\n      pop\n        /* \"#utility.yul\":7491:7811   */\n      swap2\n      swap1\n      pop\n      jump\t// out\n        /* \"#utility.yul\":7817:7958   */\n    tag_72:\n        /* \"#utility.yul\":7866:7870   */\n      0x00\n        /* \"#utility.yul\":7889:7892   */\n      dup2\n        /* \"#utility.yul\":7881:7892   */\n      swap1\n      pop\n        /* \"#utility.yul\":7912:7915   */\n      dup2\n        /* \"#utility.yul\":7909:7910   */\n      0x00\n        /* \"#utility.yul\":7902:7916   */\n      mstore\n        /* \"#utility.yul\":7946:7950   */\n      0x20\n        /* \"#utility.yul\":7943:7944   */\n      0x00\n        /* \"#utility.yul\":7933:7951   */\n      keccak256\n        /* \"#utility.yul\":7925:7951   */\n      swap1\n      pop\n        /* \"#utility.yul\":7817:7958   */\n      swap2\n      swap1\n      pop\n      jump\t// out\n        /* \"#utility.yul\":7964:8057   */\n    tag_73:\n        /* \"#utility.yul\":8001:8007   */\n      0x00\n        /* \"#utility.yul\":8048:8050   */\n      0x20\n        /* \"#utility.yul\":8043:8045   */\n      0x1f\n        /* \"#utility.yul\":8036:8041   */\n      dup4\n        /* \"#utility.yul\":8032:8046   */\n      add\n        /* \"#utility.yul\":8028:8051   */\n      div\n        /* \"#utility.yul\":8018:8051   */\n      swap1\n      pop\n        /* \"#utility.yul\":7964:8057   */\n      swap2\n      swap1\n      pop\n      jump\t// out\n        /* \"#utility.yul\":8063:8170   */\n    tag_74:\n        /* \"#utility.yul\":8107:8115   */\n      0x00\n        /* \"#utility.yul\":8157:8162   */\n      dup3\n        /* \"#utility.yul\":8151:8155   */\n      dup3\n        /* \"#utility.yul\":8147:8163   */\n      shl\n        /* \"#utility.yul\":8126:8163   */\n      swap1\n      pop\n        /* \"#utility.yul\":8063:8170   */\n      swap3\n      swap2\n      pop\n      pop\n      jump\t// out\n        /* \"#utility.yul\":8176:8569   */\n    tag_75:\n        /* \"#utility.yul\":8245:8251   */\n      0x00\n        /* \"#utility.yul\":8295:8296   */\n      0x08\n        /* \"#utility.yul\":8283:8293   */\n      dup4\n        /* \"#utility.yul\":8279:8297   */\n      mul\n        /* \"#utility.yul\":8318:8415   */\n      tag_175\n        /* \"#utility.yul\":8348:8414   */\n      0xffffffffffffffffffffffffffffffffffffffffffffffffffffffffffffffff\n        /* \"#utility.yul\":8337:8346   */\n      dup3\n        /* \"#utility.yul\":8318:8415   */\n      tag_74\n      jump\t// in\n    tag_175:\n        /* \"#utility.yul\":8436:8475   */\n      tag_176\n        /* \"#utility.yul\":8466:8474   */\n      dup7\n        /* \"#utility.yul\":8455:8464   */\n      dup4\n        /* \"#utility.yul\":8436:8475   */\n      tag_74\n      jump\t// in\n    tag_176:\n        /* \"#utility.yul\":8424:8475   */\n      swap6\n      pop\n        /* \"#utility.yul\":8508:8512   */\n      dup1\n        /* \"#utility.yul\":8504:8513   */\n      not\n        /* \"#utility.yul\":8497:8502   */\n      dup5\n        /* \"#utility.yul\":8493:8514   */\n      and\n        /* \"#utility.yul\":8484:8514   */\n      swap4\n      pop\n        /* \"#utility.yul\":8557:8561   */\n      dup1\n        /* \"#utility.yul\":8547:8555   */\n      dup7\n        /* \"#utility.yul\":8543:8562   */\n      and\n        /* \"#utility.yul\":8536:8541   */\n      dup5\n        /* \"#utility.yul\":8533:8563   */\n      or\n        /* \"#utility.yul\":8523:8563   */\n      swap3\n      pop\n        /* \"#utility.yul\":8252:8569   */\n      pop\n      pop\n        /* \"#utility.yul\":8176:8569   */\n      swap4\n      swap3\n      pop\n      pop\n      pop\n      jump\t// out\n        /* \"#utility.yul\":8575:8635   */\n    tag_76:\n        /* \"#utility.yul\":8603:8606   */\n      0x00\n        /* \"#utility.yul\":8624:8629   */\n      dup2\n        /* \"#utility.yul\":8617:8629   */\n      swap1\n      pop\n        /* \"#utility.yul\":8575:8635   */\n      swap2\n      swap1\n      pop\n      jump\t// out\n        /* \"#utility.yul\":8641:8783   */\n    tag_77:\n        /* \"#utility.yul\":8691:8700   */\n      0x00\n        /* \"#utility.yul\":8724:8777   */\n      tag_179\n        /* \"#utility.yul\":8742:8776   */\n      tag_180\n        /* \"#utility.yul\":8751:8775   */\n      tag_181\n        /* \"#utility.yul\":8769:8774   */\n      dup5\n        /* \"#utility.yul\":8751:8775   */\n      tag_62\n      jump\t// in\n    tag_181:\n        /* \"#utility.yul\":8742:8776   */\n      tag_76\n      jump\t// in\n    tag_180:\n        /* \"#utility.yul\":8724:8777   */\n      tag_62\n      jump\t// in\n    tag_179:\n        /* \"#utility.yul\":8711:8777   */\n      swap1\n      pop\n        /* \"#utility.yul\":8641:8783   */\n      swap2\n      swap1\n      pop\n      jump\t// out\n        /* \"#utility.yul\":8789:8864   */\n    tag_78:\n        /* \"#utility.yul\":8832:8835   */\n      0x00\n        /* \"#utility.yul\":8853:8858   */\n      dup2\n        /* \"#utility.yul\":8846:8858   */\n      swap1\n      pop\n        /* \"#utility.yul\":8789:8864   */\n      swap2\n      swap1\n      pop\n      jump\t// out\n        /* \"#utility.yul\":8870:9139   */\n    tag_79:\n        /* \"#utility.yul\":8980:9019   */\n      tag_184\n        /* \"#utility.yul\":9011:9018   */\n      dup4\n        /* \"#utility.yul\":8980:9019   */\n      tag_77\n      jump\t// in\n    tag_184:\n        /* \"#utility.yul\":9041:9132   */\n      tag_185\n        /* \"#utility.yul\":9090:9131   */\n      tag_186\n        /* \"#utility.yul\":9114:9130   */\n      dup3\n        /* \"#utility.yul\":9090:9131   */\n      tag_78\n      jump\t// in\n    tag_186:\n        /* \"#utility.yul\":9082:9088   */\n      dup5\n        /* \"#utility.yul\":9075:9079   */\n      dup5\n        /* \"#utility.yul\":9069:9080   */\n      sload\n        /* \"#utility.yul\":9041:9132   */\n      tag_75\n      jump\t// in\n    tag_185:\n        /* \"#utility.yul\":9035:9039   */\n      dup3\n        /* \"#utility.yul\":9028:9133   */\n      sstore\n        /* \"#utility.yul\":8946:9139   */\n      pop\n        /* \"#utility.yul\":8870:9139   */\n      pop\n      pop\n      pop\n      jump\t// out\n        /* \"#utility.yul\":9145:9218   */\n    tag_80:\n        /* \"#utility.yul\":9190:9193   */\n      0x00\n        /* \"#utility.yul\":9145:9218   */\n      swap1\n      jump\t// out\n        /* \"#utility.yul\":9224:9413   */\n    tag_81:\n        /* \"#utility.yul\":9301:9333   */\n      tag_189\n      tag_80\n      jump\t// in\n    tag_189:\n        /* \"#utility.yul\":9342:9407   */\n      tag_190\n        /* \"#utility.yul\":9400:9406   */\n      dup2\n        /* \"#utility.yul\":9392:9398   */\n      dup5\n        /* \"#utility.yul\":9386:9390   */\n      dup5\n        /* \"#utility.yul\":9342:9407   */\n      tag_79\n      jump\t// in\n    tag_190:\n        /* \"#utility.yul\":9277:9413   */\n      pop\n        /* \"#utility.yul\":9224:9413   */\n      pop\n      pop\n      jump\t// out\n        /* \"#utility.yul\":9419:9605   */\n    tag_82:\n        /* \"#utility.yul\":9479:9599   */\n    tag_192:\n        /* \"#utility.yul\":9496:9499   */\n      dup2\n        /* \"#utility.yul\":9489:9494   */\n      dup2\n        /* \"#utility.yul\":9486:9500   */\n      lt\n        /* \"#utility.yul\":9479:9599   */\n      iszero\n      tag_194\n      jumpi\n        /* \"#utility.yul\":9550:9589   */\n      tag_195\n        /* \"#utility.yul\":9587:9588   */\n      0x00\n        /* \"#utility.yul\":9580:9585   */\n      dup3\n        /* \"#utility.yul\":9550:9589   */\n      tag_81\n      jump\t// in\n    tag_195:\n        /* \"#utility.yul\":9523:9524   */\n      0x01\n        /* \"#utility.yul\":9516:9521   */\n      dup2\n        /* \"#utility.yul\":9512:9525   */\n      add\n        /* \"#utility.yul\":9503:9525   */\n      swap1\n      pop\n        /* \"#utility.yul\":9479:9599   */\n      jump(tag_192)\n    tag_194:\n        /* \"#utility.yul\":9419:9605   */\n      pop\n      pop\n      jump\t// out\n        /* \"#utility.yul\":9611:10154   */\n    tag_83:\n        /* \"#utility.yul\":9712:9714   */\n      0x1f\n        /* \"#utility.yul\":9707:9710   */\n      dup3\n        /* \"#utility.yul\":9704:9715   */\n      gt\n        /* \"#utility.yul\":9701:10147   */\n      iszero\n      tag_197\n      jumpi\n        /* \"#utility.yul\":9746:9784   */\n      tag_198\n        /* \"#utility.yul\":9778:9783   */\n      dup2\n        /* \"#utility.yul\":9746:9784   */\n      tag_72\n      jump\t// in\n    tag_198:\n        /* \"#utility.yul\":9830:9859   */\n      tag_199\n        /* \"#utility.yul\":9848:9858   */\n      dup5\n        /* \"#utility.yul\":9830:9859   */\n      tag_73\n      jump\t// in\n    tag_199:\n        /* \"#utility.yul\":9820:9828   */\n      dup2\n        /* \"#utility.yul\":9816:9860   */\n      add\n        /* \"#utility.yul\":10013:10015   */\n      0x20\n        /* \"#utility.yul\":10001:10011   */\n      dup6\n        /* \"#utility.yul\":9998:10016   */\n      lt\n        /* \"#utility.yul\":9995:10044   */\n      iszero\n      tag_200\n      jumpi\n        /* \"#utility.yul\":10034:10042   */\n      dup2\n        /* \"#utility.yul\":10019:10042   */\n      swap1\n      pop\n        /* \"#utility.yul\":9995:10044   */\n    tag_200:\n        /* \"#utility.yul\":10057:10137   */\n      tag_201\n        /* \"#utility.yul\":10113:10135   */\n      tag_202\n        /* \"#utility.yul\":10131:10134   */\n      dup6\n        /* \"#utility.yul\":10113:10135   */\n      tag_73\n      jump\t// in\n    tag_202:\n        /* \"#utility.yul\":10103:10111   */\n      dup4\n        /* \"#utility.yul\":10099:10136   */\n      add\n        /* \"#utility.yul\":10086:10097   */\n      dup3\n        /* \"#utility.yul\":10057:10137   */\n      tag_82\n      jump\t// in\n    tag_201:\n        /* \"#utility.yul\":9716:10147   */\n      pop\n      pop\n        /* \"#utility.yul\":9701:10147   */\n    tag_197:\n        /* \"#utility.yul\":9611:10154   */\n      pop\n      pop\n      pop\n      jump\t// out\n        /* \"#utility.yul\":10160:10277   */\n    tag_84:\n        /* \"#utility.yul\":10214:10222   */\n      0x00\n        /* \"#utility.yul\":10264:10269   */\n      dup3\n        /* \"#utility.yul\":10258:10262   */\n      dup3\n        /* \"#utility.yul\":10254:10270   */\n      shr\n        /* \"#utility.yul\":10233:10270   */\n      swap1\n      pop\n        /* \"#utility.yul\":10160:10277   */\n      swap3\n      swap2\n      pop\n      pop\n      jump\t// out\n        /* \"#utility.yul\":10283:10452   */\n    tag_85:\n        /* \"#utility.yul\":10327:10333   */\n      0x00\n        /* \"#utility.yul\":10360:10411   */\n      tag_205\n        /* \"#utility.yul\":10408:10409   */\n      0x00\n        /* \"#utility.yul\":10404:10410   */\n      not\n        /* \"#utility.yul\":10396:10401   */\n      dup5\n        /* \"#utility.yul\":10393:10394   */\n      0x08\n        /* \"#utility.yul\":10389:10402   */\n      mul\n        /* \"#utility.yul\":10360:10411   */\n      tag_84\n      jump\t// in\n    tag_205:\n        /* \"#utility.yul\":10356:10412   */\n      not\n        /* \"#utility.yul\":10441:10445   */\n      dup1\n        /* \"#utility.yul\":10435:10439   */\n      dup4\n        /* \"#utility.yul\":10431:10446   */\n      and\n        /* \"#utility.yul\":10421:10446   */\n      swap2\n      pop\n        /* \"#utility.yul\":10334:10452   */\n      pop\n        /* \"#utility.yul\":10283:10452   */\n      swap3\n      swap2\n      pop\n      pop\n      jump\t// out\n        /* \"#utility.yul\":10457:10752   */\n    tag_86:\n        /* \"#utility.yul\":10533:10537   */\n      0x00\n        /* \"#utility.yul\":10679:10708   */\n      tag_207\n        /* \"#utility.yul\":10704:10707   */\n      dup4\n        /* \"#utility.yul\":10698:10702   */\n      dup4\n        /* \"#utility.yul\":10679:10708   */\n      tag_85\n      jump\t// in\n    tag_207:\n        /* \"#utility.yul\":10671:10708   */\n      swap2\n      pop\n        /* \"#utility.yul\":10741:10744   */\n      dup3\n        /* \"#utility.yul\":10738:10739   */\n      0x02\n        /* \"#utility.yul\":10734:10745   */\n      mul\n        /* \"#utility.yul\":10728:10732   */\n      dup3\n        /* \"#utility.yul\":10725:10746   */\n      or\n        /* \"#utility.yul\":10717:10746   */\n      swap1\n      pop\n        /* \"#utility.yul\":10457:10752   */\n      swap3\n      swap2\n      pop\n      pop\n      jump\t// out\n        /* \"#utility.yul\":10757:12152   */\n    tag_35:\n        /* \"#utility.yul\":10874:10911   */\n      tag_209\n        /* \"#utility.yul\":10907:10910   */\n      dup3\n        /* \"#utility.yul\":10874:10911   */\n      tag_66\n      jump\t// in\n    tag_209:\n        /* \"#utility.yul\":10976:10994   */\n      0xffffffffffffffff\n        /* \"#utility.yul\":10968:10974   */\n      dup2\n        /* \"#utility.yul\":10965:10995   */\n      gt\n        /* \"#utility.yul\":10962:11018   */\n      iszero\n      tag_210\n      jumpi\n        /* \"#utility.yul\":10998:11016   */\n      tag_211\n      tag_55\n      jump\t// in\n    tag_211:\n        /* \"#utility.yul\":10962:11018   */\n    tag_210:\n        /* \"#utility.yul\":11042:11080   */\n      tag_212\n        /* \"#utility.yul\":11074:11078   */\n      dup3\n        /* \"#utility.yul\":11068:11079   */\n      sload\n        /* \"#utility.yul\":11042:11080   */\n      tag_37\n      jump\t// in\n    tag_212:\n        /* \"#utility.yul\":11127:11194   */\n      tag_213\n        /* \"#utility.yul\":11187:11193   */\n      dup3\n        /* \"#utility.yul\":11179:11185   */\n      dup3\n        /* \"#utility.yul\":11173:11177   */\n      dup6\n        /* \"#utility.yul\":11127:11194   */\n      tag_83\n      jump\t// in\n    tag_213:\n        /* \"#utility.yul\":11221:11222   */\n      0x00\n        /* \"#utility.yul\":11245:11249   */\n      0x20\n        /* \"#utility.yul\":11232:11249   */\n      swap1\n      pop\n        /* \"#utility.yul\":11277:11279   */\n      0x1f\n        /* \"#utility.yul\":11269:11275   */\n      dup4\n        /* \"#utility.yul\":11266:11280   */\n      gt\n        /* \"#utility.yul\":11294:11295   */\n      0x01\n        /* \"#utility.yul\":11289:11907   */\n      dup2\n      eq\n      tag_215\n      jumpi\n        /* \"#utility.yul\":11951:11952   */\n      0x00\n        /* \"#utility.yul\":11968:11974   */\n      dup5\n        /* \"#utility.yul\":11965:12042   */\n      iszero\n      tag_216\n      jumpi\n        /* \"#utility.yul\":12017:12026   */\n      dup3\n        /* \"#utility.yul\":12012:12015   */\n      dup8\n        /* \"#utility.yul\":12008:12027   */\n      add\n        /* \"#utility.yul\":12002:12028   */\n      mload\n        /* \"#utility.yul\":11993:12028   */\n      swap1\n      pop\n        /* \"#utility.yul\":11965:12042   */\n    tag_216:\n        /* \"#utility.yul\":12068:12135   */\n      tag_217\n        /* \"#utility.yul\":12128:12134   */\n      dup6\n        /* \"#utility.yul\":12121:12126   */\n      dup3\n        /* \"#utility.yul\":12068:12135   */\n      tag_86\n      jump\t// in\n    tag_217:\n        /* \"#utility.yul\":12062:12066   */\n      dup7\n        /* \"#utility.yul\":12055:12136   */\n      sstore\n        /* \"#utility.yul\":11924:12146   */\n      pop\n        /* \"#utility.yul\":11259:12146   */\n      jump(tag_214)\n        /* \"#utility.yul\":11289:11907   */\n    tag_215:\n        /* \"#utility.yul\":11341:11345   */\n      0x1f\n        /* \"#utility.yul\":11337:11346   */\n      not\n        /* \"#utility.yul\":11329:11335   */\n      dup5\n        /* \"#utility.yul\":11325:11347   */\n      and\n        /* \"#utility.yul\":11375:11412   */\n      tag_218\n        /* \"#utility.yul\":11407:11411   */\n      dup7\n        /* \"#utility.yul\":11375:11412   */\n      tag_72\n      jump\t// in\n    tag_218:\n        /* \"#utility.yul\":11434:11435   */\n      0x00\n        /* \"#utility.yul\":11448:11656   */\n    tag_219:\n        /* \"#utility.yul\":11462:11469   */\n      dup3\n        /* \"#utility.yul\":11459:11460   */\n      dup2\n        /* \"#utility.yul\":11456:11470   */\n      lt\n        /* \"#utility.yul\":11448:11656   */\n      iszero\n      tag_221\n      jumpi\n        /* \"#utility.yul\":11541:11550   */\n      dup5\n        /* \"#utility.yul\":11536:11539   */\n      dup10\n        /* \"#utility.yul\":11532:11551   */\n      add\n        /* \"#utility.yul\":11526:11552   */\n      mload\n        /* \"#utility.yul\":11518:11524   */\n      dup3\n        /* \"#utility.yul\":11511:11553   */\n      sstore\n        /* \"#utility.yul\":11592:11593   */\n      0x01\n        /* \"#utility.yul\":11584:11590   */\n      dup3\n        /* \"#utility.yul\":11580:11594   */\n      add\n        /* \"#utility.yul\":11570:11594   */\n      swap2\n      pop\n        /* \"#utility.yul\":11639:11641   */\n      0x20\n        /* \"#utility.yul\":11628:11637   */\n      dup6\n        /* \"#utility.yul\":11624:11642   */\n      add\n        /* \"#utility.yul\":11611:11642   */\n      swap5\n      pop\n        /* \"#utility.yul\":11485:11489   */\n      0x20\n        /* \"#utility.yul\":11482:11483   */\n      dup2\n        /* \"#utility.yul\":11478:11490   */\n      add\n        /* \"#utility.yul\":11473:11490   */\n      swap1\n      pop\n        /* \"#utility.yul\":11448:11656   */\n      jump(tag_219)\n    tag_221:\n        /* \"#utility.yul\":11684:11690   */\n      dup7\n        /* \"#utility.yul\":11675:11682   */\n      dup4\n        /* \"#utility.yul\":11672:11691   */\n      lt\n        /* \"#utility.yul\":11669:11848   */\n      iszero\n      tag_222\n      jumpi\n        /* \"#utility.yul\":11742:11751   */\n      dup5\n        /* \"#utility.yul\":11737:11740   */\n      dup10\n        /* \"#utility.yul\":11733:11752   */\n      add\n        /* \"#utility.yul\":11727:11753   */\n      mload\n        /* \"#utility.yul\":11785:11833   */\n      tag_223\n        /* \"#utility.yul\":11827:11831   */\n      0x1f\n        /* \"#utility.yul\":11819:11825   */\n      dup10\n        /* \"#utility.yul\":11815:11832   */\n      and\n        /* \"#utility.yul\":11804:11813   */\n      dup3\n        /* \"#utility.yul\":11785:11833   */\n      tag_85\n      jump\t// in\n    tag_223:\n        /* \"#utility.yul\":11777:11783   */\n      dup4\n        /* \"#utility.yul\":11770:11834   */\n      sstore\n        /* \"#utility.yul\":11692:11848   */\n      pop\n        /* \"#utility.yul\":11669:11848   */\n    tag_222:\n        /* \"#utility.yul\":11894:11895   */\n      0x01\n        /* \"#utility.yul\":11890:11891   */\n      0x02\n        /* \"#utility.yul\":11882:11888   */\n      dup9\n        /* \"#utility.yul\":11878:11892   */\n      mul\n        /* \"#utility.yul\":11874:11896   */\n      add\n        /* \"#utility.yul\":11868:11872   */\n      dup9\n        /* \"#utility.yul\":11861:11897   */\n      sstore\n        /* \"#utility.yul\":11296:11907   */\n      pop\n      pop\n      pop\n        /* \"#utility.yul\":11259:12146   */\n    tag_214:\n      pop\n        /* \"#utility.yul\":10849:12152   */\n      pop\n      pop\n      pop\n        /* \"#utility.yul\":10757:12152   */\n      pop\n      pop\n      jump\t// out\n\n    auxdata: 0xa26469706673582212206aa88ddd7951c500c5605f271c0ad89c1cb2798e5c5db81c8f1f0d23a4f8ff7964736f6c634300081a0033\n}\n",
				"bytecode": {
					"linkReferences": {},
					"object": "6080604052348015600e575f80fd5b50610a058061001c5f395ff3fe608060405234801561000f575f80fd5b5060043610610055575f3560e01c8063125b0b34146100595780637acc0b2014610075578063b9db15b4146100a8578063e0f6ef87146100da578063fd231411146100f8575b5f80fd5b610073600480360381019061006e91906104af565b610114565b005b61008f600480360381019061008a919061051b565b61019a565b60405161009f94939291906105b5565b60405180910390f35b6100c260048036038101906100bd919061051b565b61024b565b6040516100d1939291906105ff565b60405180910390f35b6100e2610308565b6040516100ef919061063b565b60405180910390f35b610112600480360381019061010d9190610654565b61030e565b005b60015f815480929190610126906106bf565b919050555060405180608001604052806001548152602001848152602001838152602001828152505f8060015481526020019081526020015f205f820151815f0155602082015181600101908161017d9190610900565b506040820151816002015560608201518160030155905050505050565b5f602052805f5260405f205f91509050805f0154908060010180546101be90610733565b80601f01602080910402602001604051908101604052809291908181526020018280546101ea90610733565b80156102355780601f1061020c57610100808354040283529160200191610235565b820191905f5260205f20905b81548152906001019060200180831161021857829003601f168201915b5050505050908060020154908060030154905084565b60605f805f805f8681526020019081526020015f209050806001018160020154826003015482805461027c90610733565b80601f01602080910402602001604051908101604052809291908181526020018280546102a890610733565b80156102f35780601f106102ca576101008083540402835291602001916102f3565b820191905f5260205f20905b8154815290600101906020018083116102d657829003601f168201915b50505050509250935093509350509193909250565b60015481565b5f805f8481526020019081526020015f209050818160030181905550505050565b5f604051905090565b5f80fd5b5f80fd5b5f80fd5b5f80fd5b5f601f19601f8301169050919050565b7f4e487b71000000000000000000000000000000000000000000000000000000005f52604160045260245ffd5b61038e82610348565b810181811067ffffffffffffffff821117156103ad576103ac610358565b5b80604052505050565b5f6103bf61032f565b90506103cb8282610385565b919050565b5f67ffffffffffffffff8211156103ea576103e9610358565b5b6103f382610348565b9050602081019050919050565b828183375f83830152505050565b5f61042061041b846103d0565b6103b6565b90508281526020810184848401111561043c5761043b610344565b5b610447848285610400565b509392505050565b5f82601f83011261046357610462610340565b5b813561047384826020860161040e565b91505092915050565b5f819050919050565b61048e8161047c565b8114610498575f80fd5b50565b5f813590506104a981610485565b92915050565b5f805f606084860312156104c6576104c5610338565b5b5f84013567ffffffffffffffff8111156104e3576104e261033c565b5b6104ef8682870161044f565b93505060206105008682870161049b565b92505060406105118682870161049b565b9150509250925092565b5f602082840312156105305761052f610338565b5b5f61053d8482850161049b565b91505092915050565b61054f8161047c565b82525050565b5f81519050919050565b5f82825260208201905092915050565b8281835e5f83830152505050565b5f61058782610555565b610591818561055f565b93506105a181856020860161056f565b6105aa81610348565b840191505092915050565b5f6080820190506105c85f830187610546565b81810360208301526105da818661057d565b90506105e96040830185610546565b6105f66060830184610546565b95945050505050565b5f6060820190508181035f830152610617818661057d565b90506106266020830185610546565b6106336040830184610546565b949350505050565b5f60208201905061064e5f830184610546565b92915050565b5f806040838503121561066a57610669610338565b5b5f6106778582860161049b565b92505060206106888582860161049b565b9150509250929050565b7f4e487b71000000000000000000000000000000000000000000000000000000005f52601160045260245ffd5b5f6106c98261047c565b91507fffffffffffffffffffffffffffffffffffffffffffffffffffffffffffffffff82036106fb576106fa610692565b5b600182019050919050565b7f4e487b71000000000000000000000000000000000000000000000000000000005f52602260045260245ffd5b5f600282049050600182168061074a57607f821691505b60208210810361075d5761075c610706565b5b50919050565b5f819050815f5260205f209050919050565b5f6020601f8301049050919050565b5f82821b905092915050565b5f600883026107bf7fffffffffffffffffffffffffffffffffffffffffffffffffffffffffffffffff82610784565b6107c98683610784565b95508019841693508086168417925050509392505050565b5f819050919050565b5f6108046107ff6107fa8461047c565b6107e1565b61047c565b9050919050565b5f819050919050565b61081d836107ea565b6108316108298261080b565b848454610790565b825550505050565b5f90565b610845610839565b610850818484610814565b505050565b5b81811015610873576108685f8261083d565b600181019050610856565b5050565b601f8211156108b85761088981610763565b61089284610775565b810160208510156108a1578190505b6108b56108ad85610775565b830182610855565b50505b505050565b5f82821c905092915050565b5f6108d85f19846008026108bd565b1980831691505092915050565b5f6108f083836108c9565b9150826002028217905092915050565b61090982610555565b67ffffffffffffffff81111561092257610921610358565b5b61092c8254610733565b610937828285610877565b5f60209050601f831160018114610968575f8415610956578287015190505b61096085826108e5565b8655506109c7565b601f19841661097686610763565b5f5b8281101561099d57848901518255600182019150602085019450602081019050610978565b868310156109ba57848901516109b6601f8916826108c9565b8355505b6001600288020188555050505b50505050505056fea26469706673582212206aa88ddd7951c500c5605f271c0ad89c1cb2798e5c5db81c8f1f0d23a4f8ff7964736f6c634300081a0033",
					"opcodes": "PUSH1 0x80 PUSH1 0x40 MSTORE CALLVALUE DUP1 ISZERO PUSH1 0xE JUMPI PUSH0 DUP1 REVERT JUMPDEST POP PUSH2 0xA05 DUP1 PUSH2 0x1C PUSH0 CODECOPY PUSH0 RETURN INVALID PUSH1 0x80 PUSH1 0x40 MSTORE CALLVALUE DUP1 ISZERO PUSH2 0xF JUMPI PUSH0 DUP1 REVERT JUMPDEST POP PUSH1 0x4 CALLDATASIZE LT PUSH2 0x55 JUMPI PUSH0 CALLDATALOAD PUSH1 0xE0 SHR DUP1 PUSH4 0x125B0B34 EQ PUSH2 0x59 JUMPI DUP1 PUSH4 0x7ACC0B20 EQ PUSH2 0x75 JUMPI DUP1 PUSH4 0xB9DB15B4 EQ PUSH2 0xA8 JUMPI DUP1 PUSH4 0xE0F6EF87 EQ PUSH2 0xDA JUMPI DUP1 PUSH4 0xFD231411 EQ PUSH2 0xF8 JUMPI JUMPDEST PUSH0 DUP1 REVERT JUMPDEST PUSH2 0x73 PUSH1 0x4 DUP1 CALLDATASIZE SUB DUP2 ADD SWAP1 PUSH2 0x6E SWAP2 SWAP1 PUSH2 0x4AF JUMP JUMPDEST PUSH2 0x114 JUMP JUMPDEST STOP JUMPDEST PUSH2 0x8F PUSH1 0x4 DUP1 CALLDATASIZE SUB DUP2 ADD SWAP1 PUSH2 0x8A SWAP2 SWAP1 PUSH2 0x51B JUMP JUMPDEST PUSH2 0x19A JUMP JUMPDEST PUSH1 0x40 MLOAD PUSH2 0x9F SWAP5 SWAP4 SWAP3 SWAP2 SWAP1 PUSH2 0x5B5 JUMP JUMPDEST PUSH1 0x40 MLOAD DUP1 SWAP2 SUB SWAP1 RETURN JUMPDEST PUSH2 0xC2 PUSH1 0x4 DUP1 CALLDATASIZE SUB DUP2 ADD SWAP1 PUSH2 0xBD SWAP2 SWAP1 PUSH2 0x51B JUMP JUMPDEST PUSH2 0x24B JUMP JUMPDEST PUSH1 0x40 MLOAD PUSH2 0xD1 SWAP4 SWAP3 SWAP2 SWAP1 PUSH2 0x5FF JUMP JUMPDEST PUSH1 0x40 MLOAD DUP1 SWAP2 SUB SWAP1 RETURN JUMPDEST PUSH2 0xE2 PUSH2 0x308 JUMP JUMPDEST PUSH1 0x40 MLOAD PUSH2 0xEF SWAP2 SWAP1 PUSH2 0x63B JUMP JUMPDEST PUSH1 0x40 MLOAD DUP1 SWAP2 SUB SWAP1 RETURN JUMPDEST PUSH2 0x112 PUSH1 0x4 DUP1 CALLDATASIZE SUB DUP2 ADD SWAP1 PUSH2 0x10D SWAP2 SWAP1 PUSH2 0x654 JUMP JUMPDEST PUSH2 0x30E JUMP JUMPDEST STOP JUMPDEST PUSH1 0x1 PUSH0 DUP2 SLOAD DUP1 SWAP3 SWAP2 SWAP1 PUSH2 0x126 SWAP1 PUSH2 0x6BF JUMP JUMPDEST SWAP2 SWAP1 POP SSTORE POP PUSH1 0x40 MLOAD DUP1 PUSH1 0x80 ADD PUSH1 0x40 MSTORE DUP1 PUSH1 0x1 SLOAD DUP2 MSTORE PUSH1 0x20 ADD DUP5 DUP2 MSTORE PUSH1 0x20 ADD DUP4 DUP2 MSTORE PUSH1 0x20 ADD DUP3 DUP2 MSTORE POP PUSH0 DUP1 PUSH1 0x1 SLOAD DUP2 MSTORE PUSH1 0x20 ADD SWAP1 DUP2 MSTORE PUSH1 0x20 ADD PUSH0 KECCAK256 PUSH0 DUP3 ADD MLOAD DUP2 PUSH0 ADD SSTORE PUSH1 0x20 DUP3 ADD MLOAD DUP2 PUSH1 0x1 ADD SWAP1 DUP2 PUSH2 0x17D SWAP2 SWAP1 PUSH2 0x900 JUMP JUMPDEST POP PUSH1 0x40 DUP3 ADD MLOAD DUP2 PUSH1 0x2 ADD SSTORE PUSH1 0x60 DUP3 ADD MLOAD DUP2 PUSH1 0x3 ADD SSTORE SWAP1 POP POP POP POP POP JUMP JUMPDEST PUSH0 PUSH1 0x20 MSTORE DUP1 PUSH0 MSTORE PUSH1 0x40 PUSH0 KECCAK256 PUSH0 SWAP2 POP SWAP1 POP DUP1 PUSH0 ADD SLOAD SWAP1 DUP1 PUSH1 0x1 ADD DUP1 SLOAD PUSH2 0x1BE SWAP1 PUSH2 0x733 JUMP JUMPDEST DUP1 PUSH1 0x1F ADD PUSH1 0x20 DUP1 SWAP2 DIV MUL PUSH1 0x20 ADD PUSH1 0x40 MLOAD SWAP1 DUP2 ADD PUSH1 0x40 MSTORE DUP1 SWAP3 SWAP2 SWAP1 DUP2 DUP2 MSTORE PUSH1 0x20 ADD DUP3 DUP1 SLOAD PUSH2 0x1EA SWAP1 PUSH2 0x733 JUMP JUMPDEST DUP1 ISZERO PUSH2 0x235 JUMPI DUP1 PUSH1 0x1F LT PUSH2 0x20C JUMPI PUSH2 0x100 DUP1 DUP4 SLOAD DIV MUL DUP4 MSTORE SWAP2 PUSH1 0x20 ADD SWAP2 PUSH2 0x235 JUMP JUMPDEST DUP3 ADD SWAP2 SWAP1 PUSH0 MSTORE PUSH1 0x20 PUSH0 KECCAK256 SWAP1 JUMPDEST DUP2 SLOAD DUP2 MSTORE SWAP1 PUSH1 0x1 ADD SWAP1 PUSH1 0x20 ADD DUP1 DUP4 GT PUSH2 0x218 JUMPI DUP3 SWAP1 SUB PUSH1 0x1F AND DUP3 ADD SWAP2 JUMPDEST POP POP POP POP POP SWAP1 DUP1 PUSH1 0x2 ADD SLOAD SWAP1 DUP1 PUSH1 0x3 ADD SLOAD SWAP1 POP DUP5 JUMP JUMPDEST PUSH1 0x60 PUSH0 DUP1 PUSH0 DUP1 PUSH0 DUP7 DUP2 MSTORE PUSH1 0x20 ADD SWAP1 DUP2 MSTORE PUSH1 0x20 ADD PUSH0 KECCAK256 SWAP1 POP DUP1 PUSH1 0x1 ADD DUP2 PUSH1 0x2 ADD SLOAD DUP3 PUSH1 0x3 ADD SLOAD DUP3 DUP1 SLOAD PUSH2 0x27C SWAP1 PUSH2 0x733 JUMP JUMPDEST DUP1 PUSH1 0x1F ADD PUSH1 0x20 DUP1 SWAP2 DIV MUL PUSH1 0x20 ADD PUSH1 0x40 MLOAD SWAP1 DUP2 ADD PUSH1 0x40 MSTORE DUP1 SWAP3 SWAP2 SWAP1 DUP2 DUP2 MSTORE PUSH1 0x20 ADD DUP3 DUP1 SLOAD PUSH2 0x2A8 SWAP1 PUSH2 0x733 JUMP JUMPDEST DUP1 ISZERO PUSH2 0x2F3 JUMPI DUP1 PUSH1 0x1F LT PUSH2 0x2CA JUMPI PUSH2 0x100 DUP1 DUP4 SLOAD DIV MUL DUP4 MSTORE SWAP2 PUSH1 0x20 ADD SWAP2 PUSH2 0x2F3 JUMP JUMPDEST DUP3 ADD SWAP2 SWAP1 PUSH0 MSTORE PUSH1 0x20 PUSH0 KECCAK256 SWAP1 JUMPDEST DUP2 SLOAD DUP2 MSTORE SWAP1 PUSH1 0x1 ADD SWAP1 PUSH1 0x20 ADD DUP1 DUP4 GT PUSH2 0x2D6 JUMPI DUP3 SWAP1 SUB PUSH1 0x1F AND DUP3 ADD SWAP2 JUMPDEST POP POP POP POP POP SWAP3 POP SWAP4 POP SWAP4 POP SWAP4 POP POP SWAP2 SWAP4 SWAP1 SWAP3 POP JUMP JUMPDEST PUSH1 0x1 SLOAD DUP2 JUMP JUMPDEST PUSH0 DUP1 PUSH0 DUP5 DUP2 MSTORE PUSH1 0x20 ADD SWAP1 DUP2 MSTORE PUSH1 0x20 ADD PUSH0 KECCAK256 SWAP1 POP DUP2 DUP2 PUSH1 0x3 ADD DUP2 SWAP1 SSTORE POP POP POP POP JUMP JUMPDEST PUSH0 PUSH1 0x40 MLOAD SWAP1 POP SWAP1 JUMP JUMPDEST PUSH0 DUP1 REVERT JUMPDEST PUSH0 DUP1 REVERT JUMPDEST PUSH0 DUP1 REVERT JUMPDEST PUSH0 DUP1 REVERT JUMPDEST PUSH0 PUSH1 0x1F NOT PUSH1 0x1F DUP4 ADD AND SWAP1 POP SWAP2 SWAP1 POP JUMP JUMPDEST PUSH32 0x4E487B7100000000000000000000000000000000000000000000000000000000 PUSH0 MSTORE PUSH1 0x41 PUSH1 0x4 MSTORE PUSH1 0x24 PUSH0 REVERT JUMPDEST PUSH2 0x38E DUP3 PUSH2 0x348 JUMP JUMPDEST DUP2 ADD DUP2 DUP2 LT PUSH8 0xFFFFFFFFFFFFFFFF DUP3 GT OR ISZERO PUSH2 0x3AD JUMPI PUSH2 0x3AC PUSH2 0x358 JUMP JUMPDEST JUMPDEST DUP1 PUSH1 0x40 MSTORE POP POP POP JUMP JUMPDEST PUSH0 PUSH2 0x3BF PUSH2 0x32F JUMP JUMPDEST SWAP1 POP PUSH2 0x3CB DUP3 DUP3 PUSH2 0x385 JUMP JUMPDEST SWAP2 SWAP1 POP JUMP JUMPDEST PUSH0 PUSH8 0xFFFFFFFFFFFFFFFF DUP3 GT ISZERO PUSH2 0x3EA JUMPI PUSH2 0x3E9 PUSH2 0x358 JUMP JUMPDEST JUMPDEST PUSH2 0x3F3 DUP3 PUSH2 0x348 JUMP JUMPDEST SWAP1 POP PUSH1 0x20 DUP2 ADD SWAP1 POP SWAP2 SWAP1 POP JUMP JUMPDEST DUP3 DUP2 DUP4 CALLDATACOPY PUSH0 DUP4 DUP4 ADD MSTORE POP POP POP JUMP JUMPDEST PUSH0 PUSH2 0x420 PUSH2 0x41B DUP5 PUSH2 0x3D0 JUMP JUMPDEST PUSH2 0x3B6 JUMP JUMPDEST SWAP1 POP DUP3 DUP2 MSTORE PUSH1 0x20 DUP2 ADD DUP5 DUP5 DUP5 ADD GT ISZERO PUSH2 0x43C JUMPI PUSH2 0x43B PUSH2 0x344 JUMP JUMPDEST JUMPDEST PUSH2 0x447 DUP5 DUP3 DUP6 PUSH2 0x400 JUMP JUMPDEST POP SWAP4 SWAP3 POP POP POP JUMP JUMPDEST PUSH0 DUP3 PUSH1 0x1F DUP4 ADD SLT PUSH2 0x463 JUMPI PUSH2 0x462 PUSH2 0x340 JUMP JUMPDEST JUMPDEST DUP2 CALLDATALOAD PUSH2 0x473 DUP5 DUP3 PUSH1 0x20 DUP7 ADD PUSH2 0x40E JUMP JUMPDEST SWAP2 POP POP SWAP3 SWAP2 POP POP JUMP JUMPDEST PUSH0 DUP2 SWAP1 POP SWAP2 SWAP1 POP JUMP JUMPDEST PUSH2 0x48E DUP2 PUSH2 0x47C JUMP JUMPDEST DUP2 EQ PUSH2 0x498 JUMPI PUSH0 DUP1 REVERT JUMPDEST POP JUMP JUMPDEST PUSH0 DUP2 CALLDATALOAD SWAP1 POP PUSH2 0x4A9 DUP2 PUSH2 0x485 JUMP JUMPDEST SWAP3 SWAP2 POP POP JUMP JUMPDEST PUSH0 DUP1 PUSH0 PUSH1 0x60 DUP5 DUP7 SUB SLT ISZERO PUSH2 0x4C6 JUMPI PUSH2 0x4C5 PUSH2 0x338 JUMP JUMPDEST JUMPDEST PUSH0 DUP5 ADD CALLDATALOAD PUSH8 0xFFFFFFFFFFFFFFFF DUP2 GT ISZERO PUSH2 0x4E3 JUMPI PUSH2 0x4E2 PUSH2 0x33C JUMP JUMPDEST JUMPDEST PUSH2 0x4EF DUP7 DUP3 DUP8 ADD PUSH2 0x44F JUMP JUMPDEST SWAP4 POP POP PUSH1 0x20 PUSH2 0x500 DUP7 DUP3 DUP8 ADD PUSH2 0x49B JUMP JUMPDEST SWAP3 POP POP PUSH1 0x40 PUSH2 0x511 DUP7 DUP3 DUP8 ADD PUSH2 0x49B JUMP JUMPDEST SWAP2 POP POP SWAP3 POP SWAP3 POP SWAP3 JUMP JUMPDEST PUSH0 PUSH1 0x20 DUP3 DUP5 SUB SLT ISZERO PUSH2 0x530 JUMPI PUSH2 0x52F PUSH2 0x338 JUMP JUMPDEST JUMPDEST PUSH0 PUSH2 0x53D DUP5 DUP3 DUP6 ADD PUSH2 0x49B JUMP JUMPDEST SWAP2 POP POP SWAP3 SWAP2 POP POP JUMP JUMPDEST PUSH2 0x54F DUP2 PUSH2 0x47C JUMP JUMPDEST DUP3 MSTORE POP POP JUMP JUMPDEST PUSH0 DUP2 MLOAD SWAP1 POP SWAP2 SWAP1 POP JUMP JUMPDEST PUSH0 DUP3 DUP3 MSTORE PUSH1 0x20 DUP3 ADD SWAP1 POP SWAP3 SWAP2 POP POP JUMP JUMPDEST DUP3 DUP2 DUP4 MCOPY PUSH0 DUP4 DUP4 ADD MSTORE POP POP POP JUMP JUMPDEST PUSH0 PUSH2 0x587 DUP3 PUSH2 0x555 JUMP JUMPDEST PUSH2 0x591 DUP2 DUP6 PUSH2 0x55F JUMP JUMPDEST SWAP4 POP PUSH2 0x5A1 DUP2 DUP6 PUSH1 0x20 DUP7 ADD PUSH2 0x56F JUMP JUMPDEST PUSH2 0x5AA DUP2 PUSH2 0x348 JUMP JUMPDEST DUP5 ADD SWAP2 POP POP SWAP3 SWAP2 POP POP JUMP JUMPDEST PUSH0 PUSH1 0x80 DUP3 ADD SWAP1 POP PUSH2 0x5C8 PUSH0 DUP4 ADD DUP8 PUSH2 0x546 JUMP JUMPDEST DUP2 DUP2 SUB PUSH1 0x20 DUP4 ADD MSTORE PUSH2 0x5DA DUP2 DUP7 PUSH2 0x57D JUMP JUMPDEST SWAP1 POP PUSH2 0x5E9 PUSH1 0x40 DUP4 ADD DUP6 PUSH2 0x546 JUMP JUMPDEST PUSH2 0x5F6 PUSH1 0x60 DUP4 ADD DUP5 PUSH2 0x546 JUMP JUMPDEST SWAP6 SWAP5 POP POP POP POP POP JUMP JUMPDEST PUSH0 PUSH1 0x60 DUP3 ADD SWAP1 POP DUP2 DUP2 SUB PUSH0 DUP4 ADD MSTORE PUSH2 0x617 DUP2 DUP7 PUSH2 0x57D JUMP JUMPDEST SWAP1 POP PUSH2 0x626 PUSH1 0x20 DUP4 ADD DUP6 PUSH2 0x546 JUMP JUMPDEST PUSH2 0x633 PUSH1 0x40 DUP4 ADD DUP5 PUSH2 0x546 JUMP JUMPDEST SWAP5 SWAP4 POP POP POP POP JUMP JUMPDEST PUSH0 PUSH1 0x20 DUP3 ADD SWAP1 POP PUSH2 0x64E PUSH0 DUP4 ADD DUP5 PUSH2 0x546 JUMP JUMPDEST SWAP3 SWAP2 POP POP JUMP JUMPDEST PUSH0 DUP1 PUSH1 0x40 DUP4 DUP6 SUB SLT ISZERO PUSH2 0x66A JUMPI PUSH2 0x669 PUSH2 0x338 JUMP JUMPDEST JUMPDEST PUSH0 PUSH2 0x677 DUP6 DUP3 DUP7 ADD PUSH2 0x49B JUMP JUMPDEST SWAP3 POP POP PUSH1 0x20 PUSH2 0x688 DUP6 DUP3 DUP7 ADD PUSH2 0x49B JUMP JUMPDEST SWAP2 POP POP SWAP3 POP SWAP3 SWAP1 POP JUMP JUMPDEST PUSH32 0x4E487B7100000000000000000000000000000000000000000000000000000000 PUSH0 MSTORE PUSH1 0x11 PUSH1 0x4 MSTORE PUSH1 0x24 PUSH0 REVERT JUMPDEST PUSH0 PUSH2 0x6C9 DUP3 PUSH2 0x47C JUMP JUMPDEST SWAP2 POP PUSH32 0xFFFFFFFFFFFFFFFFFFFFFFFFFFFFFFFFFFFFFFFFFFFFFFFFFFFFFFFFFFFFFFFF DUP3 SUB PUSH2 0x6FB JUMPI PUSH2 0x6FA PUSH2 0x692 JUMP JUMPDEST JUMPDEST PUSH1 0x1 DUP3 ADD SWAP1 POP SWAP2 SWAP1 POP JUMP JUMPDEST PUSH32 0x4E487B7100000000000000000000000000000000000000000000000000000000 PUSH0 MSTORE PUSH1 0x22 PUSH1 0x4 MSTORE PUSH1 0x24 PUSH0 REVERT JUMPDEST PUSH0 PUSH1 0x2 DUP3 DIV SWAP1 POP PUSH1 0x1 DUP3 AND DUP1 PUSH2 0x74A JUMPI PUSH1 0x7F DUP3 AND SWAP2 POP JUMPDEST PUSH1 0x20 DUP3 LT DUP2 SUB PUSH2 0x75D JUMPI PUSH2 0x75C PUSH2 0x706 JUMP JUMPDEST JUMPDEST POP SWAP2 SWAP1 POP JUMP JUMPDEST PUSH0 DUP2 SWAP1 POP DUP2 PUSH0 MSTORE PUSH1 0x20 PUSH0 KECCAK256 SWAP1 POP SWAP2 SWAP1 POP JUMP JUMPDEST PUSH0 PUSH1 0x20 PUSH1 0x1F DUP4 ADD DIV SWAP1 POP SWAP2 SWAP1 POP JUMP JUMPDEST PUSH0 DUP3 DUP3 SHL SWAP1 POP SWAP3 SWAP2 POP POP JUMP JUMPDEST PUSH0 PUSH1 0x8 DUP4 MUL PUSH2 0x7BF PUSH32 0xFFFFFFFFFFFFFFFFFFFFFFFFFFFFFFFFFFFFFFFFFFFFFFFFFFFFFFFFFFFFFFFF DUP3 PUSH2 0x784 JUMP JUMPDEST PUSH2 0x7C9 DUP7 DUP4 PUSH2 0x784 JUMP JUMPDEST SWAP6 POP DUP1 NOT DUP5 AND SWAP4 POP DUP1 DUP7 AND DUP5 OR SWAP3 POP POP POP SWAP4 SWAP3 POP POP POP JUMP JUMPDEST PUSH0 DUP2 SWAP1 POP SWAP2 SWAP1 POP JUMP JUMPDEST PUSH0 PUSH2 0x804 PUSH2 0x7FF PUSH2 0x7FA DUP5 PUSH2 0x47C JUMP JUMPDEST PUSH2 0x7E1 JUMP JUMPDEST PUSH2 0x47C JUMP JUMPDEST SWAP1 POP SWAP2 SWAP1 POP JUMP JUMPDEST PUSH0 DUP2 SWAP1 POP SWAP2 SWAP1 POP JUMP JUMPDEST PUSH2 0x81D DUP4 PUSH2 0x7EA JUMP JUMPDEST PUSH2 0x831 PUSH2 0x829 DUP3 PUSH2 0x80B JUMP JUMPDEST DUP5 DUP5 SLOAD PUSH2 0x790 JUMP JUMPDEST DUP3 SSTORE POP POP POP POP JUMP JUMPDEST PUSH0 SWAP1 JUMP JUMPDEST PUSH2 0x845 PUSH2 0x839 JUMP JUMPDEST PUSH2 0x850 DUP2 DUP5 DUP5 PUSH2 0x814 JUMP JUMPDEST POP POP POP JUMP JUMPDEST JUMPDEST DUP2 DUP2 LT ISZERO PUSH2 0x873 JUMPI PUSH2 0x868 PUSH0 DUP3 PUSH2 0x83D JUMP JUMPDEST PUSH1 0x1 DUP2 ADD SWAP1 POP PUSH2 0x856 JUMP JUMPDEST POP POP JUMP JUMPDEST PUSH1 0x1F DUP3 GT ISZERO PUSH2 0x8B8 JUMPI PUSH2 0x889 DUP2 PUSH2 0x763 JUMP JUMPDEST PUSH2 0x892 DUP5 PUSH2 0x775 JUMP JUMPDEST DUP2 ADD PUSH1 0x20 DUP6 LT ISZERO PUSH2 0x8A1 JUMPI DUP2 SWAP1 POP JUMPDEST PUSH2 0x8B5 PUSH2 0x8AD DUP6 PUSH2 0x775 JUMP JUMPDEST DUP4 ADD DUP3 PUSH2 0x855 JUMP JUMPDEST POP POP JUMPDEST POP POP POP JUMP JUMPDEST PUSH0 DUP3 DUP3 SHR SWAP1 POP SWAP3 SWAP2 POP POP JUMP JUMPDEST PUSH0 PUSH2 0x8D8 PUSH0 NOT DUP5 PUSH1 0x8 MUL PUSH2 0x8BD JUMP JUMPDEST NOT DUP1 DUP4 AND SWAP2 POP POP SWAP3 SWAP2 POP POP JUMP JUMPDEST PUSH0 PUSH2 0x8F0 DUP4 DUP4 PUSH2 0x8C9 JUMP JUMPDEST SWAP2 POP DUP3 PUSH1 0x2 MUL DUP3 OR SWAP1 POP SWAP3 SWAP2 POP POP JUMP JUMPDEST PUSH2 0x909 DUP3 PUSH2 0x555 JUMP JUMPDEST PUSH8 0xFFFFFFFFFFFFFFFF DUP2 GT ISZERO PUSH2 0x922 JUMPI PUSH2 0x921 PUSH2 0x358 JUMP JUMPDEST JUMPDEST PUSH2 0x92C DUP3 SLOAD PUSH2 0x733 JUMP JUMPDEST PUSH2 0x937 DUP3 DUP3 DUP6 PUSH2 0x877 JUMP JUMPDEST PUSH0 PUSH1 0x20 SWAP1 POP PUSH1 0x1F DUP4 GT PUSH1 0x1 DUP2 EQ PUSH2 0x968 JUMPI PUSH0 DUP5 ISZERO PUSH2 0x956 JUMPI DUP3 DUP8 ADD MLOAD SWAP1 POP JUMPDEST PUSH2 0x960 DUP6 DUP3 PUSH2 0x8E5 JUMP JUMPDEST DUP7 SSTORE POP PUSH2 0x9C7 JUMP JUMPDEST PUSH1 0x1F NOT DUP5 AND PUSH2 0x976 DUP7 PUSH2 0x763 JUMP JUMPDEST PUSH0 JUMPDEST DUP3 DUP2 LT ISZERO PUSH2 0x99D JUMPI DUP5 DUP10 ADD MLOAD DUP3 SSTORE PUSH1 0x1 DUP3 ADD SWAP2 POP PUSH1 0x20 DUP6 ADD SWAP5 POP PUSH1 0x20 DUP2 ADD SWAP1 POP PUSH2 0x978 JUMP JUMPDEST DUP7 DUP4 LT ISZERO PUSH2 0x9BA JUMPI DUP5 DUP10 ADD MLOAD PUSH2 0x9B6 PUSH1 0x1F DUP10 AND DUP3 PUSH2 0x8C9 JUMP JUMPDEST DUP4 SSTORE POP JUMPDEST PUSH1 0x1 PUSH1 0x2 DUP9 MUL ADD DUP9 SSTORE POP POP POP JUMPDEST POP POP POP POP POP POP JUMP INVALID LOG2 PUSH5 0x6970667358 0x22 SLT KECCAK256 PUSH11 0xA88DDD7951C500C5605F27 SHR EXP 0xD8 SWAP13 SHR 0xB2 PUSH26 0x8E5C5DB81C8F1F0D23A4F8FF7964736F6C634300081A00330000 "
				},
				"gasEstimates": {
					"creation": {
						"codeDepositCost": "513000",
						"executionCost": "547",
						"totalCost": "513547"
					},
					"external": {
						"addProduct(string,uint256,uint256)": "infinite",
						"getProduct(uint256)": "infinite",
						"productCount()": "2469",
						"products(uint256)": "infinite",
						"updateProductStock(uint256,uint256)": "infinite"
					}
				},
				"methodIdentifiers": {
					"addProduct(string,uint256,uint256)": "125b0b34",
					"getProduct(uint256)": "b9db15b4",
					"productCount()": "e0f6ef87",
					"products(uint256)": "7acc0b20",
					"updateProductStock(uint256,uint256)": "fd231411"
				}
			},
			"storageLayout": {
				"storage": [
					{
						"astId": 15,
						"contract": "Level0/Task02了解如何使用Solidity/数据类型/struct.sol:StructExample",
						"label": "products",
						"offset": 0,
						"slot": "0",
						"type": "t_mapping(t_uint256,t_struct(Product)10_storage)"
					},
					{
						"astId": 17,
						"contract": "Level0/Task02了解如何使用Solidity/数据类型/struct.sol:StructExample",
						"label": "productCount",
						"offset": 0,
						"slot": "1",
						"type": "t_uint256"
					}
				],
				"types": {
					"t_mapping(t_uint256,t_struct(Product)10_storage)": {
						"encoding": "mapping",
						"key": "t_uint256",
						"label": "mapping(uint256 => struct StructExample.Product)",
						"numberOfBytes": "32",
						"value": "t_struct(Product)10_storage"
					},
					"t_string_storage": {
						"encoding": "bytes",
						"label": "string",
						"numberOfBytes": "32"
					},
					"t_struct(Product)10_storage": {
						"encoding": "inplace",
						"label": "struct StructExample.Product",
						"members": [
							{
								"astId": 3,
								"contract": "Level0/Task02了解如何使用Solidity/数据类型/struct.sol:StructExample",
								"label": "id",
								"offset": 0,
								"slot": "0",
								"type": "t_uint256"
							},
							{
								"astId": 5,
								"contract": "Level0/Task02了解如何使用Solidity/数据类型/struct.sol:StructExample",
								"label": "name",
								"offset": 0,
								"slot": "1",
								"type": "t_string_storage"
							},
							{
								"astId": 7,
								"contract": "Level0/Task02了解如何使用Solidity/数据类型/struct.sol:StructExample",
								"label": "price",
								"offset": 0,
								"slot": "2",
								"type": "t_uint256"
							},
							{
								"astId": 9,
								"contract": "Level0/Task02了解如何使用Solidity/数据类型/struct.sol:StructExample",
								"label": "stock",
								"offset": 0,
								"slot": "3",
								"type": "t_uint256"
							}
						],
						"numberOfBytes": "128"
					},
					"t_uint256": {
						"encoding": "inplace",
						"label": "uint256",
						"numberOfBytes": "32"
					}
				}
			},
			"userdoc": {
				"kind": "user",
				"methods": {},
				"version": 1
			}
		}
	}
}