{
	"Level0/Task02了解如何使用Solidity/数据类型/variable.sol": {
		"controlTest": {
			"abi": [
				{
					"inputs": [],
					"name": "testFor",
					"outputs": [
						{
							"internalType": "uint256",
							"name": "",
							"type": "uint256"
						},
						{
							"internalType": "uint256",
							"name": "",
							"type": "uint256"
						}
					],
					"stateMutability": "pure",
					"type": "function"
				},
				{
					"inputs": [],
					"name": "testWhile",
					"outputs": [
						{
							"internalType": "uint256",
							"name": "",
							"type": "uint256"
						}
					],
					"stateMutability": "pure",
					"type": "function"
				}
			],
			"devdoc": {
				"kind": "dev",
				"methods": {},
				"version": 1
			},
			"evm": {
				"assembly": "    /* \"Level0/Task02\\xe4\\xba\\x86\\xe8\\xa7\\xa3\\xe5\\xa6\\x82\\xe4\\xbd\\x95\\xe4\\xbd\\xbf\\xe7\\x94\\xa8Solidity/\\xe6\\x95\\xb0\\xe6\\x8d\\xae\\xe7\\xb1\\xbb\\xe5\\x9e\\x8b/variable.sol\":62:675  contract controlTest {... */\n  mstore(0x40, 0x80)\n  callvalue\n  dup1\n  iszero\n  tag_1\n  jumpi\n  0x00\n  dup1\n  revert\ntag_1:\n  pop\n  dataSize(sub_0)\n  dup1\n  dataOffset(sub_0)\n  0x00\n  codecopy\n  0x00\n  return\nstop\n\nsub_0: assembly {\n        /* \"Level0/Task02\\xe4\\xba\\x86\\xe8\\xa7\\xa3\\xe5\\xa6\\x82\\xe4\\xbd\\x95\\xe4\\xbd\\xbf\\xe7\\x94\\xa8Solidity/\\xe6\\x95\\xb0\\xe6\\x8d\\xae\\xe7\\xb1\\xbb\\xe5\\x9e\\x8b/variable.sol\":62:675  contract controlTest {... */\n      mstore(0x40, 0x80)\n      callvalue\n      dup1\n      iszero\n      tag_1\n      jumpi\n      0x00\n      dup1\n      revert\n    tag_1:\n      pop\n      jumpi(tag_2, lt(calldatasize, 0x04))\n      shr(0xe0, calldataload(0x00))\n      dup1\n      0xd65d8b16\n      eq\n      tag_3\n      jumpi\n      dup1\n      0xf01ff72d\n      eq\n      tag_4\n      jumpi\n    tag_2:\n      0x00\n      dup1\n      revert\n        /* \"Level0/Task02\\xe4\\xba\\x86\\xe8\\xa7\\xa3\\xe5\\xa6\\x82\\xe4\\xbd\\x95\\xe4\\xbd\\xbf\\xe7\\x94\\xa8Solidity/\\xe6\\x95\\xb0\\xe6\\x8d\\xae\\xe7\\xb1\\xbb\\xe5\\x9e\\x8b/variable.sol\":374:672  function testFor() pure public returns (uint, uint) {... */\n    tag_3:\n      tag_5\n      tag_6\n      jump\t// in\n    tag_5:\n      mload(0x40)\n      tag_7\n      swap3\n      swap2\n      swap1\n      tag_8\n      jump\t// in\n    tag_7:\n      mload(0x40)\n      dup1\n      swap2\n      sub\n      swap1\n      return\n        /* \"Level0/Task02\\xe4\\xba\\x86\\xe8\\xa7\\xa3\\xe5\\xa6\\x82\\xe4\\xbd\\x95\\xe4\\xbd\\xbf\\xe7\\x94\\xa8Solidity/\\xe6\\x95\\xb0\\xe6\\x8d\\xae\\xe7\\xb1\\xbb\\xe5\\x9e\\x8b/variable.sol\":86:372  function testWhile() public pure returns (uint) {... */\n    tag_4:\n      tag_9\n      tag_10\n      jump\t// in\n    tag_9:\n      mload(0x40)\n      tag_11\n      swap2\n      swap1\n      tag_12\n      jump\t// in\n    tag_11:\n      mload(0x40)\n      dup1\n      swap2\n      sub\n      swap1\n      return\n        /* \"Level0/Task02\\xe4\\xba\\x86\\xe8\\xa7\\xa3\\xe5\\xa6\\x82\\xe4\\xbd\\x95\\xe4\\xbd\\xbf\\xe7\\x94\\xa8Solidity/\\xe6\\x95\\xb0\\xe6\\x8d\\xae\\xe7\\xb1\\xbb\\xe5\\x9e\\x8b/variable.sol\":374:672  function testFor() pure public returns (uint, uint) {... */\n    tag_6:\n        /* \"Level0/Task02\\xe4\\xba\\x86\\xe8\\xa7\\xa3\\xe5\\xa6\\x82\\xe4\\xbd\\x95\\xe4\\xbd\\xbf\\xe7\\x94\\xa8Solidity/\\xe6\\x95\\xb0\\xe6\\x8d\\xae\\xe7\\xb1\\xbb\\xe5\\x9e\\x8b/variable.sol\":414:418  uint */\n      0x00\n        /* \"Level0/Task02\\xe4\\xba\\x86\\xe8\\xa7\\xa3\\xe5\\xa6\\x82\\xe4\\xbd\\x95\\xe4\\xbd\\xbf\\xe7\\x94\\xa8Solidity/\\xe6\\x95\\xb0\\xe6\\x8d\\xae\\xe7\\xb1\\xbb\\xe5\\x9e\\x8b/variable.sol\":420:424  uint */\n      dup1\n        /* \"Level0/Task02\\xe4\\xba\\x86\\xe8\\xa7\\xa3\\xe5\\xa6\\x82\\xe4\\xbd\\x95\\xe4\\xbd\\xbf\\xe7\\x94\\xa8Solidity/\\xe6\\x95\\xb0\\xe6\\x8d\\xae\\xe7\\xb1\\xbb\\xe5\\x9e\\x8b/variable.sol\":429:442  uint sumOfOdd */\n      0x00\n        /* \"Level0/Task02\\xe4\\xba\\x86\\xe8\\xa7\\xa3\\xe5\\xa6\\x82\\xe4\\xbd\\x95\\xe4\\xbd\\xbf\\xe7\\x94\\xa8Solidity/\\xe6\\x95\\xb0\\xe6\\x8d\\xae\\xe7\\xb1\\xbb\\xe5\\x9e\\x8b/variable.sol\":449:463  uint sumofEven */\n      dup1\n        /* \"Level0/Task02\\xe4\\xba\\x86\\xe8\\xa7\\xa3\\xe5\\xa6\\x82\\xe4\\xbd\\x95\\xe4\\xbd\\xbf\\xe7\\x94\\xa8Solidity/\\xe6\\x95\\xb0\\xe6\\x8d\\xae\\xe7\\xb1\\xbb\\xe5\\x9e\\x8b/variable.sol\":475:481  uint i */\n      0x00\n        /* \"Level0/Task02\\xe4\\xba\\x86\\xe8\\xa7\\xa3\\xe5\\xa6\\x82\\xe4\\xbd\\x95\\xe4\\xbd\\xbf\\xe7\\x94\\xa8Solidity/\\xe6\\x95\\xb0\\xe6\\x8d\\xae\\xe7\\xb1\\xbb\\xe5\\x9e\\x8b/variable.sol\":470:606  for (uint i = 0; i < 10; i++) {... */\n    tag_14:\n        /* \"Level0/Task02\\xe4\\xba\\x86\\xe8\\xa7\\xa3\\xe5\\xa6\\x82\\xe4\\xbd\\x95\\xe4\\xbd\\xbf\\xe7\\x94\\xa8Solidity/\\xe6\\x95\\xb0\\xe6\\x8d\\xae\\xe7\\xb1\\xbb\\xe5\\x9e\\x8b/variable.sol\":491:493  10 */\n      0x0a\n        /* \"Level0/Task02\\xe4\\xba\\x86\\xe8\\xa7\\xa3\\xe5\\xa6\\x82\\xe4\\xbd\\x95\\xe4\\xbd\\xbf\\xe7\\x94\\xa8Solidity/\\xe6\\x95\\xb0\\xe6\\x8d\\xae\\xe7\\xb1\\xbb\\xe5\\x9e\\x8b/variable.sol\":487:488  i */\n      dup2\n        /* \"Level0/Task02\\xe4\\xba\\x86\\xe8\\xa7\\xa3\\xe5\\xa6\\x82\\xe4\\xbd\\x95\\xe4\\xbd\\xbf\\xe7\\x94\\xa8Solidity/\\xe6\\x95\\xb0\\xe6\\x8d\\xae\\xe7\\xb1\\xbb\\xe5\\x9e\\x8b/variable.sol\":487:493  i < 10 */\n      lt\n        /* \"Level0/Task02\\xe4\\xba\\x86\\xe8\\xa7\\xa3\\xe5\\xa6\\x82\\xe4\\xbd\\x95\\xe4\\xbd\\xbf\\xe7\\x94\\xa8Solidity/\\xe6\\x95\\xb0\\xe6\\x8d\\xae\\xe7\\xb1\\xbb\\xe5\\x9e\\x8b/variable.sol\":470:606  for (uint i = 0; i < 10; i++) {... */\n      iszero\n      tag_15\n      jumpi\n        /* \"Level0/Task02\\xe4\\xba\\x86\\xe8\\xa7\\xa3\\xe5\\xa6\\x82\\xe4\\xbd\\x95\\xe4\\xbd\\xbf\\xe7\\x94\\xa8Solidity/\\xe6\\x95\\xb0\\xe6\\x8d\\xae\\xe7\\xb1\\xbb\\xe5\\x9e\\x8b/variable.sol\":516:517  0 */\n      0x00\n        /* \"Level0/Task02\\xe4\\xba\\x86\\xe8\\xa7\\xa3\\xe5\\xa6\\x82\\xe4\\xbd\\x95\\xe4\\xbd\\xbf\\xe7\\x94\\xa8Solidity/\\xe6\\x95\\xb0\\xe6\\x8d\\xae\\xe7\\xb1\\xbb\\xe5\\x9e\\x8b/variable.sol\":511:512  2 */\n      0x02\n        /* \"Level0/Task02\\xe4\\xba\\x86\\xe8\\xa7\\xa3\\xe5\\xa6\\x82\\xe4\\xbd\\x95\\xe4\\xbd\\xbf\\xe7\\x94\\xa8Solidity/\\xe6\\x95\\xb0\\xe6\\x8d\\xae\\xe7\\xb1\\xbb\\xe5\\x9e\\x8b/variable.sol\":507:508  i */\n      dup3\n        /* \"Level0/Task02\\xe4\\xba\\x86\\xe8\\xa7\\xa3\\xe5\\xa6\\x82\\xe4\\xbd\\x95\\xe4\\xbd\\xbf\\xe7\\x94\\xa8Solidity/\\xe6\\x95\\xb0\\xe6\\x8d\\xae\\xe7\\xb1\\xbb\\xe5\\x9e\\x8b/variable.sol\":507:512  i % 2 */\n      tag_17\n      swap2\n      swap1\n      tag_18\n      jump\t// in\n    tag_17:\n        /* \"Level0/Task02\\xe4\\xba\\x86\\xe8\\xa7\\xa3\\xe5\\xa6\\x82\\xe4\\xbd\\x95\\xe4\\xbd\\xbf\\xe7\\x94\\xa8Solidity/\\xe6\\x95\\xb0\\xe6\\x8d\\xae\\xe7\\xb1\\xbb\\xe5\\x9e\\x8b/variable.sol\":507:517  i % 2 == 0 */\n      sub\n        /* \"Level0/Task02\\xe4\\xba\\x86\\xe8\\xa7\\xa3\\xe5\\xa6\\x82\\xe4\\xbd\\x95\\xe4\\xbd\\xbf\\xe7\\x94\\xa8Solidity/\\xe6\\x95\\xb0\\xe6\\x8d\\xae\\xe7\\xb1\\xbb\\xe5\\x9e\\x8b/variable.sol\":503:603  if (i % 2 == 0) {... */\n      tag_19\n      jumpi\n        /* \"Level0/Task02\\xe4\\xba\\x86\\xe8\\xa7\\xa3\\xe5\\xa6\\x82\\xe4\\xbd\\x95\\xe4\\xbd\\xbf\\xe7\\x94\\xa8Solidity/\\xe6\\x95\\xb0\\xe6\\x8d\\xae\\xe7\\xb1\\xbb\\xe5\\x9e\\x8b/variable.sol\":535:536  i */\n      dup1\n        /* \"Level0/Task02\\xe4\\xba\\x86\\xe8\\xa7\\xa3\\xe5\\xa6\\x82\\xe4\\xbd\\x95\\xe4\\xbd\\xbf\\xe7\\x94\\xa8Solidity/\\xe6\\x95\\xb0\\xe6\\x8d\\xae\\xe7\\xb1\\xbb\\xe5\\x9e\\x8b/variable.sol\":522:536  sumofEven += i */\n      dup3\n      tag_20\n      swap2\n      swap1\n      tag_21\n      jump\t// in\n    tag_20:\n      swap2\n      pop\n        /* \"Level0/Task02\\xe4\\xba\\x86\\xe8\\xa7\\xa3\\xe5\\xa6\\x82\\xe4\\xbd\\x95\\xe4\\xbd\\xbf\\xe7\\x94\\xa8Solidity/\\xe6\\x95\\xb0\\xe6\\x8d\\xae\\xe7\\xb1\\xbb\\xe5\\x9e\\x8b/variable.sol\":503:603  if (i % 2 == 0) {... */\n      jump(tag_22)\n    tag_19:\n        /* \"Level0/Task02\\xe4\\xba\\x86\\xe8\\xa7\\xa3\\xe5\\xa6\\x82\\xe4\\xbd\\x95\\xe4\\xbd\\xbf\\xe7\\x94\\xa8Solidity/\\xe6\\x95\\xb0\\xe6\\x8d\\xae\\xe7\\xb1\\xbb\\xe5\\x9e\\x8b/variable.sol\":579:580  i */\n      dup1\n        /* \"Level0/Task02\\xe4\\xba\\x86\\xe8\\xa7\\xa3\\xe5\\xa6\\x82\\xe4\\xbd\\x95\\xe4\\xbd\\xbf\\xe7\\x94\\xa8Solidity/\\xe6\\x95\\xb0\\xe6\\x8d\\xae\\xe7\\xb1\\xbb\\xe5\\x9e\\x8b/variable.sol\":567:580  sumOfOdd += i */\n      dup4\n      tag_23\n      swap2\n      swap1\n      tag_21\n      jump\t// in\n    tag_23:\n      swap3\n      pop\n        /* \"Level0/Task02\\xe4\\xba\\x86\\xe8\\xa7\\xa3\\xe5\\xa6\\x82\\xe4\\xbd\\x95\\xe4\\xbd\\xbf\\xe7\\x94\\xa8Solidity/\\xe6\\x95\\xb0\\xe6\\x8d\\xae\\xe7\\xb1\\xbb\\xe5\\x9e\\x8b/variable.sol\":503:603  if (i % 2 == 0) {... */\n    tag_22:\n        /* \"Level0/Task02\\xe4\\xba\\x86\\xe8\\xa7\\xa3\\xe5\\xa6\\x82\\xe4\\xbd\\x95\\xe4\\xbd\\xbf\\xe7\\x94\\xa8Solidity/\\xe6\\x95\\xb0\\xe6\\x8d\\xae\\xe7\\xb1\\xbb\\xe5\\x9e\\x8b/variable.sol\":495:498  i++ */\n      dup1\n      dup1\n      0x01\n      add\n      swap2\n      pop\n      pop\n        /* \"Level0/Task02\\xe4\\xba\\x86\\xe8\\xa7\\xa3\\xe5\\xa6\\x82\\xe4\\xbd\\x95\\xe4\\xbd\\xbf\\xe7\\x94\\xa8Solidity/\\xe6\\x95\\xb0\\xe6\\x8d\\xae\\xe7\\xb1\\xbb\\xe5\\x9e\\x8b/variable.sol\":470:606  for (uint i = 0; i < 10; i++) {... */\n      jump(tag_14)\n    tag_15:\n      pop\n        /* \"Level0/Task02\\xe4\\xba\\x86\\xe8\\xa7\\xa3\\xe5\\xa6\\x82\\xe4\\xbd\\x95\\xe4\\xbd\\xbf\\xe7\\x94\\xa8Solidity/\\xe6\\x95\\xb0\\xe6\\x8d\\xae\\xe7\\xb1\\xbb\\xe5\\x9e\\x8b/variable.sol\":616:624  sumOfOdd */\n      dup2\n        /* \"Level0/Task02\\xe4\\xba\\x86\\xe8\\xa7\\xa3\\xe5\\xa6\\x82\\xe4\\xbd\\x95\\xe4\\xbd\\xbf\\xe7\\x94\\xa8Solidity/\\xe6\\x95\\xb0\\xe6\\x8d\\xae\\xe7\\xb1\\xbb\\xe5\\x9e\\x8b/variable.sol\":626:635  sumofEven */\n      dup2\n        /* \"Level0/Task02\\xe4\\xba\\x86\\xe8\\xa7\\xa3\\xe5\\xa6\\x82\\xe4\\xbd\\x95\\xe4\\xbd\\xbf\\xe7\\x94\\xa8Solidity/\\xe6\\x95\\xb0\\xe6\\x8d\\xae\\xe7\\xb1\\xbb\\xe5\\x9e\\x8b/variable.sol\":608:636  return (sumOfOdd, sumofEven) */\n      swap4\n      pop\n      swap4\n      pop\n      pop\n      pop\n        /* \"Level0/Task02\\xe4\\xba\\x86\\xe8\\xa7\\xa3\\xe5\\xa6\\x82\\xe4\\xbd\\x95\\xe4\\xbd\\xbf\\xe7\\x94\\xa8Solidity/\\xe6\\x95\\xb0\\xe6\\x8d\\xae\\xe7\\xb1\\xbb\\xe5\\x9e\\x8b/variable.sol\":374:672  function testFor() pure public returns (uint, uint) {... */\n      swap1\n      swap2\n      jump\t// out\n        /* \"Level0/Task02\\xe4\\xba\\x86\\xe8\\xa7\\xa3\\xe5\\xa6\\x82\\xe4\\xbd\\x95\\xe4\\xbd\\xbf\\xe7\\x94\\xa8Solidity/\\xe6\\x95\\xb0\\xe6\\x8d\\xae\\xe7\\xb1\\xbb\\xe5\\x9e\\x8b/variable.sol\":86:372  function testWhile() public pure returns (uint) {... */\n    tag_10:\n        /* \"Level0/Task02\\xe4\\xba\\x86\\xe8\\xa7\\xa3\\xe5\\xa6\\x82\\xe4\\xbd\\x95\\xe4\\xbd\\xbf\\xe7\\x94\\xa8Solidity/\\xe6\\x95\\xb0\\xe6\\x8d\\xae\\xe7\\xb1\\xbb\\xe5\\x9e\\x8b/variable.sol\":128:132  uint */\n      0x00\n        /* \"Level0/Task02\\xe4\\xba\\x86\\xe8\\xa7\\xa3\\xe5\\xa6\\x82\\xe4\\xbd\\x95\\xe4\\xbd\\xbf\\xe7\\x94\\xa8Solidity/\\xe6\\x95\\xb0\\xe6\\x8d\\xae\\xe7\\xb1\\xbb\\xe5\\x9e\\x8b/variable.sol\":137:143  uint i */\n      dup1\n        /* \"Level0/Task02\\xe4\\xba\\x86\\xe8\\xa7\\xa3\\xe5\\xa6\\x82\\xe4\\xbd\\x95\\xe4\\xbd\\xbf\\xe7\\x94\\xa8Solidity/\\xe6\\x95\\xb0\\xe6\\x8d\\xae\\xe7\\xb1\\xbb\\xe5\\x9e\\x8b/variable.sol\":146:147  0 */\n      0x00\n        /* \"Level0/Task02\\xe4\\xba\\x86\\xe8\\xa7\\xa3\\xe5\\xa6\\x82\\xe4\\xbd\\x95\\xe4\\xbd\\xbf\\xe7\\x94\\xa8Solidity/\\xe6\\x95\\xb0\\xe6\\x8d\\xae\\xe7\\xb1\\xbb\\xe5\\x9e\\x8b/variable.sol\":137:147  uint i = 0 */\n      swap1\n      pop\n        /* \"Level0/Task02\\xe4\\xba\\x86\\xe8\\xa7\\xa3\\xe5\\xa6\\x82\\xe4\\xbd\\x95\\xe4\\xbd\\xbf\\xe7\\x94\\xa8Solidity/\\xe6\\x95\\xb0\\xe6\\x8d\\xae\\xe7\\xb1\\xbb\\xe5\\x9e\\x8b/variable.sol\":150:163  uint sumOfOdd */\n      0x00\n        /* \"Level0/Task02\\xe4\\xba\\x86\\xe8\\xa7\\xa3\\xe5\\xa6\\x82\\xe4\\xbd\\x95\\xe4\\xbd\\xbf\\xe7\\x94\\xa8Solidity/\\xe6\\x95\\xb0\\xe6\\x8d\\xae\\xe7\\xb1\\xbb\\xe5\\x9e\\x8b/variable.sol\":170:321  while (true) {... */\n    tag_25:\n        /* \"Level0/Task02\\xe4\\xba\\x86\\xe8\\xa7\\xa3\\xe5\\xa6\\x82\\xe4\\xbd\\x95\\xe4\\xbd\\xbf\\xe7\\x94\\xa8Solidity/\\xe6\\x95\\xb0\\xe6\\x8d\\xae\\xe7\\xb1\\xbb\\xe5\\x9e\\x8b/variable.sol\":177:181  true */\n      0x01\n        /* \"Level0/Task02\\xe4\\xba\\x86\\xe8\\xa7\\xa3\\xe5\\xa6\\x82\\xe4\\xbd\\x95\\xe4\\xbd\\xbf\\xe7\\x94\\xa8Solidity/\\xe6\\x95\\xb0\\xe6\\x8d\\xae\\xe7\\xb1\\xbb\\xe5\\x9e\\x8b/variable.sol\":170:321  while (true) {... */\n      iszero\n      tag_26\n      jumpi\n        /* \"Level0/Task02\\xe4\\xba\\x86\\xe8\\xa7\\xa3\\xe5\\xa6\\x82\\xe4\\xbd\\x95\\xe4\\xbd\\xbf\\xe7\\x94\\xa8Solidity/\\xe6\\x95\\xb0\\xe6\\x8d\\xae\\xe7\\xb1\\xbb\\xe5\\x9e\\x8b/variable.sol\":186:189  i++ */\n      dup2\n      dup1\n      tag_27\n      swap1\n      tag_28\n      jump\t// in\n    tag_27:\n      swap3\n      pop\n      pop\n        /* \"Level0/Task02\\xe4\\xba\\x86\\xe8\\xa7\\xa3\\xe5\\xa6\\x82\\xe4\\xbd\\x95\\xe4\\xbd\\xbf\\xe7\\x94\\xa8Solidity/\\xe6\\x95\\xb0\\xe6\\x8d\\xae\\xe7\\xb1\\xbb\\xe5\\x9e\\x8b/variable.sol\":205:206  0 */\n      0x00\n        /* \"Level0/Task02\\xe4\\xba\\x86\\xe8\\xa7\\xa3\\xe5\\xa6\\x82\\xe4\\xbd\\x95\\xe4\\xbd\\xbf\\xe7\\x94\\xa8Solidity/\\xe6\\x95\\xb0\\xe6\\x8d\\xae\\xe7\\xb1\\xbb\\xe5\\x9e\\x8b/variable.sol\":200:201  2 */\n      0x02\n        /* \"Level0/Task02\\xe4\\xba\\x86\\xe8\\xa7\\xa3\\xe5\\xa6\\x82\\xe4\\xbd\\x95\\xe4\\xbd\\xbf\\xe7\\x94\\xa8Solidity/\\xe6\\x95\\xb0\\xe6\\x8d\\xae\\xe7\\xb1\\xbb\\xe5\\x9e\\x8b/variable.sol\":196:197  i */\n      dup4\n        /* \"Level0/Task02\\xe4\\xba\\x86\\xe8\\xa7\\xa3\\xe5\\xa6\\x82\\xe4\\xbd\\x95\\xe4\\xbd\\xbf\\xe7\\x94\\xa8Solidity/\\xe6\\x95\\xb0\\xe6\\x8d\\xae\\xe7\\xb1\\xbb\\xe5\\x9e\\x8b/variable.sol\":196:201  i % 2 */\n      tag_29\n      swap2\n      swap1\n      tag_18\n      jump\t// in\n    tag_29:\n        /* \"Level0/Task02\\xe4\\xba\\x86\\xe8\\xa7\\xa3\\xe5\\xa6\\x82\\xe4\\xbd\\x95\\xe4\\xbd\\xbf\\xe7\\x94\\xa8Solidity/\\xe6\\x95\\xb0\\xe6\\x8d\\xae\\xe7\\xb1\\xbb\\xe5\\x9e\\x8b/variable.sol\":196:206  i % 2 == 0 */\n      sub\n        /* \"Level0/Task02\\xe4\\xba\\x86\\xe8\\xa7\\xa3\\xe5\\xa6\\x82\\xe4\\xbd\\x95\\xe4\\xbd\\xbf\\xe7\\x94\\xa8Solidity/\\xe6\\x95\\xb0\\xe6\\x8d\\xae\\xe7\\xb1\\xbb\\xe5\\x9e\\x8b/variable.sol\":192:248  if (i % 2 == 0) {... */\n      iszero\n        /* \"Level0/Task02\\xe4\\xba\\x86\\xe8\\xa7\\xa3\\xe5\\xa6\\x82\\xe4\\xbd\\x95\\xe4\\xbd\\xbf\\xe7\\x94\\xa8Solidity/\\xe6\\x95\\xb0\\xe6\\x8d\\xae\\xe7\\xb1\\xbb\\xe5\\x9e\\x8b/variable.sol\":211:219  continue */\n      tag_25\n        /* \"Level0/Task02\\xe4\\xba\\x86\\xe8\\xa7\\xa3\\xe5\\xa6\\x82\\xe4\\xbd\\x95\\xe4\\xbd\\xbf\\xe7\\x94\\xa8Solidity/\\xe6\\x95\\xb0\\xe6\\x8d\\xae\\xe7\\xb1\\xbb\\xe5\\x9e\\x8b/variable.sol\":192:248  if (i % 2 == 0) {... */\n      jumpi\n        /* \"Level0/Task02\\xe4\\xba\\x86\\xe8\\xa7\\xa3\\xe5\\xa6\\x82\\xe4\\xbd\\x95\\xe4\\xbd\\xbf\\xe7\\x94\\xa8Solidity/\\xe6\\x95\\xb0\\xe6\\x8d\\xae\\xe7\\xb1\\xbb\\xe5\\x9e\\x8b/variable.sol\":258:260  10 */\n      0x0a\n        /* \"Level0/Task02\\xe4\\xba\\x86\\xe8\\xa7\\xa3\\xe5\\xa6\\x82\\xe4\\xbd\\x95\\xe4\\xbd\\xbf\\xe7\\x94\\xa8Solidity/\\xe6\\x95\\xb0\\xe6\\x8d\\xae\\xe7\\xb1\\xbb\\xe5\\x9e\\x8b/variable.sol\":254:255  i */\n      dup3\n        /* \"Level0/Task02\\xe4\\xba\\x86\\xe8\\xa7\\xa3\\xe5\\xa6\\x82\\xe4\\xbd\\x95\\xe4\\xbd\\xbf\\xe7\\x94\\xa8Solidity/\\xe6\\x95\\xb0\\xe6\\x8d\\xae\\xe7\\xb1\\xbb\\xe5\\x9e\\x8b/variable.sol\":254:260  i > 10 */\n      gt\n        /* \"Level0/Task02\\xe4\\xba\\x86\\xe8\\xa7\\xa3\\xe5\\xa6\\x82\\xe4\\xbd\\x95\\xe4\\xbd\\xbf\\xe7\\x94\\xa8Solidity/\\xe6\\x95\\xb0\\xe6\\x8d\\xae\\xe7\\xb1\\xbb\\xe5\\x9e\\x8b/variable.sol\":265:270  break */\n      tag_26\n        /* \"Level0/Task02\\xe4\\xba\\x86\\xe8\\xa7\\xa3\\xe5\\xa6\\x82\\xe4\\xbd\\x95\\xe4\\xbd\\xbf\\xe7\\x94\\xa8Solidity/\\xe6\\x95\\xb0\\xe6\\x8d\\xae\\xe7\\xb1\\xbb\\xe5\\x9e\\x8b/variable.sol\":250:302  if (i > 10) {... */\n      jumpi\n        /* \"Level0/Task02\\xe4\\xba\\x86\\xe8\\xa7\\xa3\\xe5\\xa6\\x82\\xe4\\xbd\\x95\\xe4\\xbd\\xbf\\xe7\\x94\\xa8Solidity/\\xe6\\x95\\xb0\\xe6\\x8d\\xae\\xe7\\xb1\\xbb\\xe5\\x9e\\x8b/variable.sol\":316:317  i */\n      dup2\n        /* \"Level0/Task02\\xe4\\xba\\x86\\xe8\\xa7\\xa3\\xe5\\xa6\\x82\\xe4\\xbd\\x95\\xe4\\xbd\\xbf\\xe7\\x94\\xa8Solidity/\\xe6\\x95\\xb0\\xe6\\x8d\\xae\\xe7\\xb1\\xbb\\xe5\\x9e\\x8b/variable.sol\":304:317  sumOfOdd += i */\n      dup2\n      tag_32\n      swap2\n      swap1\n      tag_21\n      jump\t// in\n    tag_32:\n      swap1\n      pop\n        /* \"Level0/Task02\\xe4\\xba\\x86\\xe8\\xa7\\xa3\\xe5\\xa6\\x82\\xe4\\xbd\\x95\\xe4\\xbd\\xbf\\xe7\\x94\\xa8Solidity/\\xe6\\x95\\xb0\\xe6\\x8d\\xae\\xe7\\xb1\\xbb\\xe5\\x9e\\x8b/variable.sol\":170:321  while (true) {... */\n      jump(tag_25)\n    tag_26:\n        /* \"Level0/Task02\\xe4\\xba\\x86\\xe8\\xa7\\xa3\\xe5\\xa6\\x82\\xe4\\xbd\\x95\\xe4\\xbd\\xbf\\xe7\\x94\\xa8Solidity/\\xe6\\x95\\xb0\\xe6\\x8d\\xae\\xe7\\xb1\\xbb\\xe5\\x9e\\x8b/variable.sol\":330:338  sumOfOdd */\n      dup1\n        /* \"Level0/Task02\\xe4\\xba\\x86\\xe8\\xa7\\xa3\\xe5\\xa6\\x82\\xe4\\xbd\\x95\\xe4\\xbd\\xbf\\xe7\\x94\\xa8Solidity/\\xe6\\x95\\xb0\\xe6\\x8d\\xae\\xe7\\xb1\\xbb\\xe5\\x9e\\x8b/variable.sol\":323:338  return sumOfOdd */\n      swap3\n      pop\n      pop\n      pop\n        /* \"Level0/Task02\\xe4\\xba\\x86\\xe8\\xa7\\xa3\\xe5\\xa6\\x82\\xe4\\xbd\\x95\\xe4\\xbd\\xbf\\xe7\\x94\\xa8Solidity/\\xe6\\x95\\xb0\\xe6\\x8d\\xae\\xe7\\xb1\\xbb\\xe5\\x9e\\x8b/variable.sol\":86:372  function testWhile() public pure returns (uint) {... */\n      swap1\n      jump\t// out\n        /* \"#utility.yul\":7:84   */\n    tag_33:\n        /* \"#utility.yul\":44:51   */\n      0x00\n        /* \"#utility.yul\":73:78   */\n      dup2\n        /* \"#utility.yul\":62:78   */\n      swap1\n      pop\n        /* \"#utility.yul\":7:84   */\n      swap2\n      swap1\n      pop\n      jump\t// out\n        /* \"#utility.yul\":90:208   */\n    tag_34:\n        /* \"#utility.yul\":177:201   */\n      tag_40\n        /* \"#utility.yul\":195:200   */\n      dup2\n        /* \"#utility.yul\":177:201   */\n      tag_33\n      jump\t// in\n    tag_40:\n        /* \"#utility.yul\":172:175   */\n      dup3\n        /* \"#utility.yul\":165:202   */\n      mstore\n        /* \"#utility.yul\":90:208   */\n      pop\n      pop\n      jump\t// out\n        /* \"#utility.yul\":214:546   */\n    tag_8:\n        /* \"#utility.yul\":335:339   */\n      0x00\n        /* \"#utility.yul\":373:375   */\n      0x40\n        /* \"#utility.yul\":362:371   */\n      dup3\n        /* \"#utility.yul\":358:376   */\n      add\n        /* \"#utility.yul\":350:376   */\n      swap1\n      pop\n        /* \"#utility.yul\":386:457   */\n      tag_42\n        /* \"#utility.yul\":454:455   */\n      0x00\n        /* \"#utility.yul\":443:452   */\n      dup4\n        /* \"#utility.yul\":439:456   */\n      add\n        /* \"#utility.yul\":430:436   */\n      dup6\n        /* \"#utility.yul\":386:457   */\n      tag_34\n      jump\t// in\n    tag_42:\n        /* \"#utility.yul\":467:539   */\n      tag_43\n        /* \"#utility.yul\":535:537   */\n      0x20\n        /* \"#utility.yul\":524:533   */\n      dup4\n        /* \"#utility.yul\":520:538   */\n      add\n        /* \"#utility.yul\":511:517   */\n      dup5\n        /* \"#utility.yul\":467:539   */\n      tag_34\n      jump\t// in\n    tag_43:\n        /* \"#utility.yul\":214:546   */\n      swap4\n      swap3\n      pop\n      pop\n      pop\n      jump\t// out\n        /* \"#utility.yul\":552:774   */\n    tag_12:\n        /* \"#utility.yul\":645:649   */\n      0x00\n        /* \"#utility.yul\":683:685   */\n      0x20\n        /* \"#utility.yul\":672:681   */\n      dup3\n        /* \"#utility.yul\":668:686   */\n      add\n        /* \"#utility.yul\":660:686   */\n      swap1\n      pop\n        /* \"#utility.yul\":696:767   */\n      tag_45\n        /* \"#utility.yul\":764:765   */\n      0x00\n        /* \"#utility.yul\":753:762   */\n      dup4\n        /* \"#utility.yul\":749:766   */\n      add\n        /* \"#utility.yul\":740:746   */\n      dup5\n        /* \"#utility.yul\":696:767   */\n      tag_34\n      jump\t// in\n    tag_45:\n        /* \"#utility.yul\":552:774   */\n      swap3\n      swap2\n      pop\n      pop\n      jump\t// out\n        /* \"#utility.yul\":780:960   */\n    tag_35:\n        /* \"#utility.yul\":828:905   */\n      0x4e487b7100000000000000000000000000000000000000000000000000000000\n        /* \"#utility.yul\":825:826   */\n      0x00\n        /* \"#utility.yul\":818:906   */\n      mstore\n        /* \"#utility.yul\":925:929   */\n      0x12\n        /* \"#utility.yul\":922:923   */\n      0x04\n        /* \"#utility.yul\":915:930   */\n      mstore\n        /* \"#utility.yul\":949:953   */\n      0x24\n        /* \"#utility.yul\":946:947   */\n      0x00\n        /* \"#utility.yul\":939:954   */\n      revert\n        /* \"#utility.yul\":966:1142   */\n    tag_18:\n        /* \"#utility.yul\":998:999   */\n      0x00\n        /* \"#utility.yul\":1015:1035   */\n      tag_48\n        /* \"#utility.yul\":1033:1034   */\n      dup3\n        /* \"#utility.yul\":1015:1035   */\n      tag_33\n      jump\t// in\n    tag_48:\n        /* \"#utility.yul\":1010:1035   */\n      swap2\n      pop\n        /* \"#utility.yul\":1049:1069   */\n      tag_49\n        /* \"#utility.yul\":1067:1068   */\n      dup4\n        /* \"#utility.yul\":1049:1069   */\n      tag_33\n      jump\t// in\n    tag_49:\n        /* \"#utility.yul\":1044:1069   */\n      swap3\n      pop\n        /* \"#utility.yul\":1088:1089   */\n      dup3\n        /* \"#utility.yul\":1078:1113   */\n      tag_50\n      jumpi\n        /* \"#utility.yul\":1093:1111   */\n      tag_51\n      tag_35\n      jump\t// in\n    tag_51:\n        /* \"#utility.yul\":1078:1113   */\n    tag_50:\n        /* \"#utility.yul\":1134:1135   */\n      dup3\n        /* \"#utility.yul\":1131:1132   */\n      dup3\n        /* \"#utility.yul\":1127:1136   */\n      mod\n        /* \"#utility.yul\":1122:1136   */\n      swap1\n      pop\n        /* \"#utility.yul\":966:1142   */\n      swap3\n      swap2\n      pop\n      pop\n      jump\t// out\n        /* \"#utility.yul\":1148:1328   */\n    tag_36:\n        /* \"#utility.yul\":1196:1273   */\n      0x4e487b7100000000000000000000000000000000000000000000000000000000\n        /* \"#utility.yul\":1193:1194   */\n      0x00\n        /* \"#utility.yul\":1186:1274   */\n      mstore\n        /* \"#utility.yul\":1293:1297   */\n      0x11\n        /* \"#utility.yul\":1290:1291   */\n      0x04\n        /* \"#utility.yul\":1283:1298   */\n      mstore\n        /* \"#utility.yul\":1317:1321   */\n      0x24\n        /* \"#utility.yul\":1314:1315   */\n      0x00\n        /* \"#utility.yul\":1307:1322   */\n      revert\n        /* \"#utility.yul\":1334:1525   */\n    tag_21:\n        /* \"#utility.yul\":1374:1377   */\n      0x00\n        /* \"#utility.yul\":1393:1413   */\n      tag_54\n        /* \"#utility.yul\":1411:1412   */\n      dup3\n        /* \"#utility.yul\":1393:1413   */\n      tag_33\n      jump\t// in\n    tag_54:\n        /* \"#utility.yul\":1388:1413   */\n      swap2\n      pop\n        /* \"#utility.yul\":1427:1447   */\n      tag_55\n        /* \"#utility.yul\":1445:1446   */\n      dup4\n        /* \"#utility.yul\":1427:1447   */\n      tag_33\n      jump\t// in\n    tag_55:\n        /* \"#utility.yul\":1422:1447   */\n      swap3\n      pop\n        /* \"#utility.yul\":1470:1471   */\n      dup3\n        /* \"#utility.yul\":1467:1468   */\n      dup3\n        /* \"#utility.yul\":1463:1472   */\n      add\n        /* \"#utility.yul\":1456:1472   */\n      swap1\n      pop\n        /* \"#utility.yul\":1491:1494   */\n      dup1\n        /* \"#utility.yul\":1488:1489   */\n      dup3\n        /* \"#utility.yul\":1485:1495   */\n      gt\n        /* \"#utility.yul\":1482:1518   */\n      iszero\n      tag_56\n      jumpi\n        /* \"#utility.yul\":1498:1516   */\n      tag_57\n      tag_36\n      jump\t// in\n    tag_57:\n        /* \"#utility.yul\":1482:1518   */\n    tag_56:\n        /* \"#utility.yul\":1334:1525   */\n      swap3\n      swap2\n      pop\n      pop\n      jump\t// out\n        /* \"#utility.yul\":1531:1764   */\n    tag_28:\n        /* \"#utility.yul\":1570:1573   */\n      0x00\n        /* \"#utility.yul\":1593:1617   */\n      tag_59\n        /* \"#utility.yul\":1611:1616   */\n      dup3\n        /* \"#utility.yul\":1593:1617   */\n      tag_33\n      jump\t// in\n    tag_59:\n        /* \"#utility.yul\":1584:1617   */\n      swap2\n      pop\n        /* \"#utility.yul\":1639:1705   */\n      0xffffffffffffffffffffffffffffffffffffffffffffffffffffffffffffffff\n        /* \"#utility.yul\":1632:1637   */\n      dup3\n        /* \"#utility.yul\":1629:1706   */\n      sub\n        /* \"#utility.yul\":1626:1729   */\n      tag_60\n      jumpi\n        /* \"#utility.yul\":1709:1727   */\n      tag_61\n      tag_36\n      jump\t// in\n    tag_61:\n        /* \"#utility.yul\":1626:1729   */\n    tag_60:\n        /* \"#utility.yul\":1756:1757   */\n      0x01\n        /* \"#utility.yul\":1749:1754   */\n      dup3\n        /* \"#utility.yul\":1745:1758   */\n      add\n        /* \"#utility.yul\":1738:1758   */\n      swap1\n      pop\n        /* \"#utility.yul\":1531:1764   */\n      swap2\n      swap1\n      pop\n      jump\t// out\n\n    auxdata: 0xa2646970667358221220b68afa1325e47170e7008024f9091881ad3fa4f7956da7f8103785e182a43b8464736f6c634300081a0033\n}\n",
				"bytecode": {
					"linkReferences": {},
					"object": "6080604052348015600e575f80fd5b506102b88061001c5f395ff3fe608060405234801561000f575f80fd5b5060043610610034575f3560e01c8063d65d8b1614610038578063f01ff72d14610057575b5f80fd5b610040610075565b60405161004e92919061013e565b60405180910390f35b61005f6100d3565b60405161006c9190610165565b60405180910390f35b5f805f805f5b600a8110156100c6575f60028261009291906101ab565b036100aa5780826100a39190610208565b91506100b9565b80836100b69190610208565b92505b808060010191505061007b565b5081819350935050509091565b5f805f90505f5b60011561011e5781806100ec9061023b565b9250505f6002836100fd91906101ab565b03156100da57600a821161011e5781816101179190610208565b90506100da565b809250505090565b5f819050919050565b61013881610126565b82525050565b5f6040820190506101515f83018561012f565b61015e602083018461012f565b9392505050565b5f6020820190506101785f83018461012f565b92915050565b7f4e487b71000000000000000000000000000000000000000000000000000000005f52601260045260245ffd5b5f6101b582610126565b91506101c083610126565b9250826101d0576101cf61017e565b5b828206905092915050565b7f4e487b71000000000000000000000000000000000000000000000000000000005f52601160045260245ffd5b5f61021282610126565b915061021d83610126565b9250828201905080821115610235576102346101db565b5b92915050565b5f61024582610126565b91507fffffffffffffffffffffffffffffffffffffffffffffffffffffffffffffffff8203610277576102766101db565b5b60018201905091905056fea2646970667358221220b68afa1325e47170e7008024f9091881ad3fa4f7956da7f8103785e182a43b8464736f6c634300081a0033",
					"opcodes": "PUSH1 0x80 PUSH1 0x40 MSTORE CALLVALUE DUP1 ISZERO PUSH1 0xE JUMPI PUSH0 DUP1 REVERT JUMPDEST POP PUSH2 0x2B8 DUP1 PUSH2 0x1C PUSH0 CODECOPY PUSH0 RETURN INVALID PUSH1 0x80 PUSH1 0x40 MSTORE CALLVALUE DUP1 ISZERO PUSH2 0xF JUMPI PUSH0 DUP1 REVERT JUMPDEST POP PUSH1 0x4 CALLDATASIZE LT PUSH2 0x34 JUMPI PUSH0 CALLDATALOAD PUSH1 0xE0 SHR DUP1 PUSH4 0xD65D8B16 EQ PUSH2 0x38 JUMPI DUP1 PUSH4 0xF01FF72D EQ PUSH2 0x57 JUMPI JUMPDEST PUSH0 DUP1 REVERT JUMPDEST PUSH2 0x40 PUSH2 0x75 JUMP JUMPDEST PUSH1 0x40 MLOAD PUSH2 0x4E SWAP3 SWAP2 SWAP1 PUSH2 0x13E JUMP JUMPDEST PUSH1 0x40 MLOAD DUP1 SWAP2 SUB SWAP1 RETURN JUMPDEST PUSH2 0x5F PUSH2 0xD3 JUMP JUMPDEST PUSH1 0x40 MLOAD PUSH2 0x6C SWAP2 SWAP1 PUSH2 0x165 JUMP JUMPDEST PUSH1 0x40 MLOAD DUP1 SWAP2 SUB SWAP1 RETURN JUMPDEST PUSH0 DUP1 PUSH0 DUP1 PUSH0 JUMPDEST PUSH1 0xA DUP2 LT ISZERO PUSH2 0xC6 JUMPI PUSH0 PUSH1 0x2 DUP3 PUSH2 0x92 SWAP2 SWAP1 PUSH2 0x1AB JUMP JUMPDEST SUB PUSH2 0xAA JUMPI DUP1 DUP3 PUSH2 0xA3 SWAP2 SWAP1 PUSH2 0x208 JUMP JUMPDEST SWAP2 POP PUSH2 0xB9 JUMP JUMPDEST DUP1 DUP4 PUSH2 0xB6 SWAP2 SWAP1 PUSH2 0x208 JUMP JUMPDEST SWAP3 POP JUMPDEST DUP1 DUP1 PUSH1 0x1 ADD SWAP2 POP POP PUSH2 0x7B JUMP JUMPDEST POP DUP2 DUP2 SWAP4 POP SWAP4 POP POP POP SWAP1 SWAP2 JUMP JUMPDEST PUSH0 DUP1 PUSH0 SWAP1 POP PUSH0 JUMPDEST PUSH1 0x1 ISZERO PUSH2 0x11E JUMPI DUP2 DUP1 PUSH2 0xEC SWAP1 PUSH2 0x23B JUMP JUMPDEST SWAP3 POP POP PUSH0 PUSH1 0x2 DUP4 PUSH2 0xFD SWAP2 SWAP1 PUSH2 0x1AB JUMP JUMPDEST SUB ISZERO PUSH2 0xDA JUMPI PUSH1 0xA DUP3 GT PUSH2 0x11E JUMPI DUP2 DUP2 PUSH2 0x117 SWAP2 SWAP1 PUSH2 0x208 JUMP JUMPDEST SWAP1 POP PUSH2 0xDA JUMP JUMPDEST DUP1 SWAP3 POP POP POP SWAP1 JUMP JUMPDEST PUSH0 DUP2 SWAP1 POP SWAP2 SWAP1 POP JUMP JUMPDEST PUSH2 0x138 DUP2 PUSH2 0x126 JUMP JUMPDEST DUP3 MSTORE POP POP JUMP JUMPDEST PUSH0 PUSH1 0x40 DUP3 ADD SWAP1 POP PUSH2 0x151 PUSH0 DUP4 ADD DUP6 PUSH2 0x12F JUMP JUMPDEST PUSH2 0x15E PUSH1 0x20 DUP4 ADD DUP5 PUSH2 0x12F JUMP JUMPDEST SWAP4 SWAP3 POP POP POP JUMP JUMPDEST PUSH0 PUSH1 0x20 DUP3 ADD SWAP1 POP PUSH2 0x178 PUSH0 DUP4 ADD DUP5 PUSH2 0x12F JUMP JUMPDEST SWAP3 SWAP2 POP POP JUMP JUMPDEST PUSH32 0x4E487B7100000000000000000000000000000000000000000000000000000000 PUSH0 MSTORE PUSH1 0x12 PUSH1 0x4 MSTORE PUSH1 0x24 PUSH0 REVERT JUMPDEST PUSH0 PUSH2 0x1B5 DUP3 PUSH2 0x126 JUMP JUMPDEST SWAP2 POP PUSH2 0x1C0 DUP4 PUSH2 0x126 JUMP JUMPDEST SWAP3 POP DUP3 PUSH2 0x1D0 JUMPI PUSH2 0x1CF PUSH2 0x17E JUMP JUMPDEST JUMPDEST DUP3 DUP3 MOD SWAP1 POP SWAP3 SWAP2 POP POP JUMP JUMPDEST PUSH32 0x4E487B7100000000000000000000000000000000000000000000000000000000 PUSH0 MSTORE PUSH1 0x11 PUSH1 0x4 MSTORE PUSH1 0x24 PUSH0 REVERT JUMPDEST PUSH0 PUSH2 0x212 DUP3 PUSH2 0x126 JUMP JUMPDEST SWAP2 POP PUSH2 0x21D DUP4 PUSH2 0x126 JUMP JUMPDEST SWAP3 POP DUP3 DUP3 ADD SWAP1 POP DUP1 DUP3 GT ISZERO PUSH2 0x235 JUMPI PUSH2 0x234 PUSH2 0x1DB JUMP JUMPDEST JUMPDEST SWAP3 SWAP2 POP POP JUMP JUMPDEST PUSH0 PUSH2 0x245 DUP3 PUSH2 0x126 JUMP JUMPDEST SWAP2 POP PUSH32 0xFFFFFFFFFFFFFFFFFFFFFFFFFFFFFFFFFFFFFFFFFFFFFFFFFFFFFFFFFFFFFFFF DUP3 SUB PUSH2 0x277 JUMPI PUSH2 0x276 PUSH2 0x1DB JUMP JUMPDEST JUMPDEST PUSH1 0x1 DUP3 ADD SWAP1 POP SWAP2 SWAP1 POP JUMP INVALID LOG2 PUSH5 0x6970667358 0x22 SLT KECCAK256 0xB6 DUP11 STATICCALL SGT 0x25 0xE4 PUSH18 0x70E7008024F9091881AD3FA4F7956DA7F810 CALLDATACOPY DUP6 0xE1 DUP3 LOG4 EXTCODESIZE DUP5 PUSH5 0x736F6C6343 STOP ADDMOD BYTE STOP CALLER "
				},
				"gasEstimates": {
					"creation": {
						"codeDepositCost": "139200",
						"executionCost": "181",
						"totalCost": "139381"
					},
					"external": {
						"testFor()": "infinite",
						"testWhile()": "infinite"
					}
				},
				"methodIdentifiers": {
					"testFor()": "d65d8b16",
					"testWhile()": "f01ff72d"
				}
			},
			"storageLayout": {
				"storage": [],
				"types": null
			},
			"userdoc": {
				"kind": "user",
				"methods": {},
				"version": 1
			}
		}
	}
}